:020000040800F2
:10000000D8510020E9020008D92D0008FD2B000876
:10001000D52D00081F060008613700080000000009
:10002000000000000000000000000000290200089D
:10003000B30800080000000085020008A92E00088F
:100040000303000803030008030300080303000878
:100050000303000803030008030300080303000868
:100060000303000803030008030300080303000858
:100070000303000803030008030300080303000848
:100080000303000803030008030300080303000838
:1000900091060008A10600080303000803030008F6
:1000A000030300088D2F0008030300080303000862
:1000B0000303000803030008030300080303000808
:1000C00003030008030300080303000803030008F8
:1000D00003030008030300080303000803030008E8
:1000E00003030008030300080303000803030008D8
:1000F00003030008030300080303000803030008C8
:1001000003030008030300080303000803030008B7
:1001100003030008030300080303000803030008A7
:10012000030300088907000803030008030300080D
:1001300003030008000000000000000003030008A3
:100140001D0700082D07000803030008030300082B
:10015000030300089907000803030008513700084B
:100160000303000803030008030300080303000857
:100170000303000803030008000000000000000063
:10018000030300080303000800F002F800F03CF845
:100190000AA090E8000C82448344AAF10107DA45E2
:1001A00001D100F031F8AFF2090EBAE80F0013F0F8
:1001B000010F18BFFB1A43F0010318472C59000028
:1001C0004C590000103A24BF78C878C1FAD85207B9
:1001D00024BF30C830C144BF04680C6070470000C1
:1001E0000023002400250026103A28BF78C1FBD840
:1001F000520728BF30C148BF0B6070471FB505F0DC
:100200001BFC1FBD10B510BD00F0D0F91146FFF763
:10021000F5FF03F0C6FA00F0EEF903B4FFF7F2FFC2
:1002200003BC00F0F5F900002C4B19680868B0E831
:10023000F04F80F30988BFF36F8F4FF0000080F319
:10024000118870470000000008480068006880F3CB
:1002500008884FF0000080F3148862B661B6BFF3DF
:100260004F8FBFF36F8F00DF00BF00BF08ED00E0CE
:10027000DFF80C00016841F470010160704700BFB5
:1002800088ED00E0EFF30980BFF36F8F134B1A681E
:100290001EF0100F08BF20ED108A20E9F04F10600B
:1002A00009B44FF0500080F31188BFF34F8FBFF3B4
:1002B0006F8F04F08FFC4FF0000080F3118809BCB1
:1002C00019680868B0E8F04F1EF0100F08BFB0ECD6
:1002D000108A80F30988BFF36F8F704720000020D9
:1002E000EFF3058070470000094880470948004740
:1002F000FEE7FEE7FEE7FEE7FEE7FEE7FEE7FEE7D6
:10030000FEE7FEE704480549054A064B7047000032
:10031000792F000889010008D84B0020D85100200F
:10032000D84D0020D84D002053EA020C00F069801F
:100330002DE9F04B4FF00006002B1FBFB3FA83F5F9
:1003400003FA05F424FA05F65E4012BF1643B2FA2A
:1003500082F502FA05F4C5F120051EBF22FA05FC5C
:1003600044EA0C04203556EA044C4FEA144418BF02
:10037000641C4FF000084FF00009904271EB030C31
:1003800039D3002919BFB1FA81F701FA07F6B0FA9B
:1003900080F700FA07F6C7F120071EBF20FA07FC16
:1003A00046EA0C062037B6FBF4FCA7EB0507103F26
:1003B00007F01F0BCBF120060CFA0BFB2CFA06F60C
:1003C00044BFB3460026202FA4BF5E464FF0000B6B
:1003D0005BEA060C08BF4FF0010B19EB0B09ABFBF6
:1003E000027C48EB0608C01B06FB02CC0BFB03CCCF
:1003F00071EB0C01C1E70B46024641464846BDE899
:10040000F08B13B54FF000004FF00001AFF3008008
:10041000BDE81C407047032A40F2308010F0030C06
:1004200000F0158011F8013BBCF1020F624498BF47
:1004300011F801CB00F8013B38BF11F8013BA2F1E4
:10044000040298BF00F801CB38BF00F8013B11F05F
:10045000030300F05780083AC0F0088051F8043BCD
:10046000083A51F804CBA0E80810F5E7121D5CBF6C
:1004700051F8043B40F8043BAFF30080D20724BF9F
:1004800011F8013B11F801CB48BF11F8012B24BF33
:1004900000F8013B00F801CB48BF00F8012B704782
:1004A00002F0FF0343EA032242EA024200F05EB890
:1004B0004FF0000200B5134694469646203922BFFD
:1004C000A0E80C50A0E80C50B1F12001BFF4F7AF48
:1004D000090728BFA0E80C5048BF0CC05DF804EB2A
:1004E000890028BF40F8042B08BF704748BF20F898
:1004F000022B11F0804F18BF00F8012B7047704796
:100500007047704710B5203AC0F00B80B1E8185022
:10051000203AA0E81850B1E81850A0E81850BFF4ED
:10052000F5AF5FEA027C24BFB1E81850A0E818508C
:1005300044BF18C918C0BDE810405FEA827C24BFE0
:1005400051F8043B40F8043B08BF7047D20728BF6E
:1005500031F8023B48BF11F8012B28BF20F8023BBD
:1005600048BF00F8012B70474FF000020429C0F08B
:10057000128010F0030C3FF49DAFCCF1040CBCF1E1
:10058000020F18BF00F8012BA8BF20F8022BA1EB27
:100590000C01FFF78FBF5FEAC17C24BF00F8012B7D
:1005A00000F8012B48BF00F8012B7047754600F09A
:1005B0002BF8AE4605006946534620F007008546F5
:1005C00018B020B5FFF79EFEBDE820404FF00006B2
:1005D0004FF000074FF000084FF0000B21F007012B
:1005E000AC46ACE8C009ACE8C009ACE8C009ACE86E
:1005F000C0098D46704710B50446AFF30080204611
:10060000BDE81040FFF709BE00487047784B002056
:1006100001491820ABBEFEE726000200704700BF6C
:10062000FEE7F0B58BB007460C4615461E4604F0B3
:10063000020088B1C5F34F300190E80004F00301D7
:1006400040EA41000290F0040390F00004F003013E
:1006500040EA4100049009E068010190A007400FC2
:10066000029070010390A007400F049000200690B4
:10067000012005900990002007900120089000209B
:100680000A9001A9384600F0BDF90BB0F0BD00009A
:1006900010B5024800F013FB10BD0000A0000020C0
:1006A00010B5024800F00BFB10BD0000A0000020B8
:1006B000F0B58BB007460C4615461E4604F0020006
:1006C00088B1C5F34F300190E80004F0030140EA1F
:1006D00041000290F0040390F00004F0030140EAAE
:1006E0004100049009E068010190A007400F0290CA
:1006F00070010390A007400F04900E200690012087
:100700000590099000200790012008900E200A9083
:1007100001A9384600F076F90BB0F0BD10B50248DB
:1007200000F0CDFA10BD0000C800002010B502484E
:1007300000F0C5FA10BD0000C800002010B5044646
:10074000204600F090FD2068406940F002002168DA
:1007500048612068406940F010002168486110BD80
:10076000F0B587B006460C4617461D46019400209A
:1007700002900390049005956B463A4601A93046D5
:1007800000F09BF807B0F0BD10B5024800F00CFE79
:1007900010BD00009C01002010B5024800F004FECE
:1007A00010BD0000FC010020014608781038182315
:1007B000B0FBF3F20848805CC865032A05D90868D5
:1007C0006FF30900001D886503E008686FF30900F6
:1007D0008865886D70470000A45A00080146002013
:1007E0008A6A8B69CBB932B1012A0DD0022A03D0B3
:1007F000032A10D10EE000BFCB6A03F08073B3F17F
:10080000807F00D1012007E0CB6AB3F1C07F00D127
:10081000012001E000E000BF34E08B69B3F5005F28
:100820001AD132B1012A07D0022A03D0032A11D1EA
:100830000AE000BF01200EE0CB6A03F08073B3F141
:10084000807F00D1012006E0CB6AB3F1C07F00D1E8
:10085000012000E000BF15E032B1012A05D0022AD4
:1008600004D0032A0CD103E000BF00BF012008E040
:10087000CB6A03F08073B3F1807F00D1012000E0E8
:1008800000BF00BF704730B50468246824F480249A
:1008900005682C60046863608468402C04D1046897
:1008A000A2600468E16003E00468A1600468E2609B
:1008B00030BD704772B600BFFEE7F0B504460D4686
:1008C0001E4694F8207020688368A86800B900E08C
:1008D00000BF012F01D0022F7DD103F0806030B91D
:1008E00003F0006018B903F0805000287ED0C3F3F5
:1008F0000161012088403060A86860B9B5F800C087
:10090000E86840EA4C5C206800F5C07000EB01101C
:10091000C0F800C00FE0D5E901C040EACC00D5F82E
:100920000CC040EA0C00D4F800C00CF5C07C0CEB05
:10093000011CCCF80000D5F810C0206800F5C0708C
:1009400000EB0110C0F804C0287D01280ED12068FA
:1009500000F5C07000EB0110406840F4807C206816
:1009600000F5C07000EB0110C0F804C0D07900069B
:1009700092F806C040EA0C4092F805C040EA0C200C
:1009800092F804C040EA0C00D4F800C00CF5C07C1A
:100990000CEB011CCCF80C00D078000692F802C0D9
:1009A00040EA0C4092F801C040EA0C2092F800C0E6
:1009B00040EA0C00D4F800C00CF5C07C0CEB011C24
:1009C000CCF80800206800F5C07000EB011000684A
:1009D00040F0010C01E00FE008E0206800F5C07075
:1009E00000EB0110C0F800C00020F0BD606A40F4C8
:1009F000001060620120F8E7606A40F480206062C5
:100A00000120F2E7F0B504460A46216894F8205028
:100A1000012D01D0022D7ED1424901F500710868F7
:100A200040F001000860086820F47C500860086805
:100A3000566A40EA06200860107D00F01F0601207B
:100A400000FA06F3C8699843C861A1F50071D0693E
:100A5000C8B9D1F80C029843C1F80C02908880B252
:100A6000968940EA064601F51070576940F83760EC
:100A7000108880B2168940EA064601F51070576961
:100A800000EBC7004660D069012819D1D1F80C02EB
:100A90001843C1F80C02908880B2168840EA0646D6
:100AA00001F51070576940F83760908980B2168957
:100AB00040EA064601F51070576900EBC700466032
:100AC000906928B9D1F804029843C1F8040204E0FF
:100AD000D1F804021843C1F80402106928B9D1F80A
:100AE00014029843C1F8140204E0D1F81402184328
:100AF000C1F81402106A012804D1D1F81C0218436D
:100B0000C1F81C02D1F8000220F00100C1F8000277
:100B10000020F0BDFFE7606A40F4802060620120A1
:100B2000F7E7000000640040704770B5044694F891
:100B30002050012D01D0022D7DD151B92068C0680F
:100B400000F0030080B9606A40F400106062012088
:100B500070BD2068006900F0030028B9606A40F4A5
:100B6000001060620120F3E7206800F5D87000EB08
:100B70000110006800F004009060906840B920689F
:100B800000F5D87000EB01100068400D106007E020
:100B9000206800F5D87000EB01100068C0085060B4
:100BA000206800F5D87000EB0110006800F002002A
:100BB000D060206800F5D87000EB0110406800F0AC
:100BC0000F00082802D30820106108E0206800F513
:100BD000D87000EB0110406800F00F001061206831
:100BE00000F5D87000EB0110406800F47F40000A67
:100BF0009061206800F5D87000EB01104068000C8F
:100C00005061206800F5D87000EB01108068187002
:100C1000206800F5D87000EB0110806800F47F4078
:100C2000000A5870206800F5D87000EB0110806849
:100C300000F47F0000E03CE0000C9870206800F5B4
:100C4000D87000EB01108068000ED870206800F5A5
:100C5000D87000EB0110C0681871206800F5D870DA
:100C600000EB0110C06800F47F40000A5871206852
:100C700000F5D87000EB0110C06800F47F00000C94
:100C80009871206800F5D87000EB0110C068000E64
:100C9000D87131B92068C06840F020002668F06043
:100CA00005E02068006940F02000266830610020DF
:100CB0004EE7606A40F480206062012048E72DE939
:100CC000F05F04460025206846692068D0F804904B
:100CD000206887682068D0F80CA02068D0F810B091
:100CE0002068D0F8188006F00100002855D007F0E1
:100CF0000100C0B101202168886007F0020018B12E
:100D0000204600F0E0FA0EE007F0040010B145F4D0
:100D1000006508E007F0080010B145F4805502E0D6
:100D2000204600F0CFFA07F48070C8B14FF480700D
:100D30002168886007F4007018B1204600F0C5FAF9
:100D40000EE007F4806010B145F4005508E007F4A8
:100D5000006010B145F4804502E0204600F0B4FA8E
:100D600007F48030C8B14FF480302168886007F400
:100D7000003018B1204600F0AAFA0EE007F48020F7
:100D800010B145F4004508E007F4002010B145F427
:100D9000803502E0204600F099FA06F0080038B1EC
:100DA0000AF0100020B145F4007510202168C860D9
:100DB00006F0040040B10AF0080028B108202168BC
:100DC000C860204600F01EFA06F0020038B1206824
:100DD000C06800F0030010B1204600F014FA06F0DD
:100DE000400038B10BF0100020B145F480651020B0
:100DF0002168086106F0200040B10BF0080028B11E
:100E0000082021680861204600F0FEF906F0100075
:100E100038B12068006900F0030010B1204600F0EE
:100E2000F5F906F4003040B109F0100028B11020A7
:100E300021684860204600F015FA06F4803040B181
:100E400009F0080028B1082021684860204600F019
:100E50003FFA06F4004088B309F0040078B306F4C2
:100E6000807020B108F0010008B145F0010506F4DA
:100E7000007020B108F0020008B145F0020506F448
:100E8000806020B108F0040008B145F0040506F4C4
:100E90000060A0B108F0700088B108F07000402830
:100EA00017D006DC10280BD020280CD0302819D100
:100EB0000CE0502810D0602814D110E01DE019E09B
:100EC00045F008050FE045F010050CE045F0200561
:100ED00009E045F0400506E045F0800503E045F4F3
:100EE000807500E000BF00BF2068806920F07000BE
:100EF000216888610420216848602DB1606A284318
:100F000060622046FFF710FEBDE8F09F70B5044612
:100F10000CB9012070BD94F8200010B9204600F0F3
:100F2000AFF82068006840F001002168086000F018
:100F300015FD05460DE000F011FD401B0A2808D9FB
:100F4000606A40F400306062052084F820000120CF
:100F5000E0E72068406800F001000028EBD020683E
:100F6000006820F002002168086000F0F7FC0546E8
:100F70000DE000F0F3FC401B0A2808D9606A40F439
:100F800000306062052084F820000120C2E720685C
:100F9000406800F002000028EBD1207E012806D135
:100FA0002068006840F080002168086005E0206843
:100FB000006820F0800021680860607E012806D16A
:100FC0002068006840F040002168086005E0206863
:100FD000006820F0400021680860A07E012806D14A
:100FE0002068006840F020002168086005E0206863
:100FF000006820F0200021680860E07E012806D10A
:101000002068006820F010002168086005E0206872
:10101000006840F0100021680860207F012806D198
:101020002068006840F008002168086005E020683A
:10103000006820F0080021680860607F012806D160
:101040002068006840F004002168086005E020681E
:10105000006820F0040021680860D4E90201084318
:1010600021690843616908436168491E0843216892
:10107000C86100206062012084F82000002049E758
:1010800010B586B00446142101A8FFF711FA57499C
:10109000206888424AD156480068401C544908607C
:1010A0000846006801280FD100BF00200090514879
:1010B000006840F000704F4908600846006800F082
:1010C0000070009000BF00BF00BF002000904948A2
:1010D0001038006840F001004649103908600846A1
:1010E000006800F00100009000BF00BF4FF4C05046
:1010F0000190022002900020039003200490092018
:10110000059001A93C4800F02FFB00220521142086
:1011100000F0E2FC142000F0CBFC00220521152099
:1011200000F0DAFC152000F0C3FC5DE033492068D4
:10113000884259D100BF002000902E48006840F03E
:1011400080602C4908600846006800F080600090CC
:1011500000BF00BF26480068401C254908600846BB
:10116000006801280FD100BF0020009021480068CE
:1011700040F000701F4908600846006800F00070E9
:10118000009000BF00BF00BF002000901948103839
:10119000006840F0020017491039086008460068EE
:1011A00000F00200009000BF00BF4FF440500190DB
:1011B0000220029000200390032004900920059053
:1011C00001A90F4800F0D0FA00220521402000F0CC
:1011D00083FC402000F06CFC00220521412000F03F
:1011E0007BFC412000F064FC06B010BD00640040B0
:1011F0000C0000204038024000000240006800401F
:1012000000040240704770477047000010B58AB074
:10121000044602AB03AA01212046FFF786FCC8B9A9
:101220000D492068884208D1062001900A23012236
:1012300001A90A4801F082FC00BF094920688842E0
:1012400008D1072001900A23012201A9034801F0D7
:1012500075FC00BF0AB010BD0064004054010020BE
:1012600000680040704770B5044694F820000128DB
:1012700022D1022084F820002068006820F00100BC
:101280002168086000F06AFB05460DE000F066FB8F
:10129000401B0A2808D9606A40F4003060620520CB
:1012A00084F82000012070BD2068406800F0010033
:1012B0000028EBD16062F6E7606A40F400206062CB
:1012C0000120F0E7704770477047704770477047DC
:1012D000704770B50446A56D00F040FB064694F8D3
:1012E0003500022808D08020606500BF002084F807
:1012F000340000BF012070BD2068006820F0160097
:10130000216808602068406920F0800021684861F9
:10131000206C08B9A06C28B12068006820F0080093
:10132000216808602068006820F0010021680860DA
:1013300010E000F013FB801B05280BD9202060650E
:10134000032084F8350000BF002084F8340000BF7B
:101350000320D0E72068006800F001000028E8D1F1
:1013600094F85C103F208840A860012084F8350084
:1013700000BF002084F8340000BF00BFBBE7014677
:1013800091F83500022803D080204865012070477D
:10139000052081F835000868006820F001000A681F
:1013A00010600020F3E70000F8B50446002000902C
:1013B0008C4800684FF41651B0FBF1F7A56D2E680C
:1013C00094F85C1008208840304098B1206800688C
:1013D00000F0040070B12068006820F0040021686B
:1013E000086094F85C1008208840A860606D40F0A8
:1013F0000100606594F85C1001208840304068B1BD
:101400002068406900F0800040B194F85C10012031
:101410008840A860606D40F00200606594F85C1040
:1014200004208840304068B12068006800F0020065
:1014300040B194F85C1004208840A860606D40F0D2
:101440000400606594F85C1010208840304078B348
:101450002068006800F0080050B394F85C10102079
:101460008840A8602068006800F4802080B120686F
:10147000006800F4002028B9206CC8B12046216C17
:10148000884715E0A06C98B12046A16C88470FE012
:101490002068006800F4807028B92068006820F097
:1014A000080021680860206C10B12046216C884734
:1014B00094F85C10202088403040002865D02068D7
:1014C000006800F0100000285FD094F85C10202025
:1014D0008840A86094F83500052828D12068006865
:1014E00020F01600216808602068406920F0800024
:1014F00021684861206C08B9A06C28B12068006898
:1015000020F008002168086094F85C103F208840B3
:10151000A860012084F8350000BF002084F8340062
:1015200000BF206D10B12046216D8847F8BD2068AE
:10153000006800F4802080B12068006800F400207A
:1015400028B9606C10B12046616C88471DE0E06BE3
:10155000D8B12046E16B884717E02068006800F4A6
:10156000807068B92068006820F010002168086069
:10157000012084F8350000BF002084F8340000BF4B
:10158000E06B10B12046E16B8847606D38B3606D49
:1015900000F00100F0B1052084F8350020680068F3
:1015A00020F001002168086000BF0098401C0090F6
:1015B000B84200D905E02068006800F0010000286A
:1015C000F3D100BF012084F8350000BF002084F86B
:1015D000340000BFE06C10B12046E16C884700BFCA
:1015E000A4E700001C0000202DE9F041044600257E
:1015F00000F0B4F9074614B90120BDE8F081606A33
:1016000000B100BF022084F8350000BF002084F83C
:10161000340000BF2068006820F0010021680860E5
:101620000AE000F09BF9C01B052805D92020606561
:10163000032084F83500E0E72068006800F001002E
:101640000028EED12068056821480540D4E9010151
:101650000843E16808432169084361690843A169B7
:101660000843E1690843216A08430543606A042886
:1016700003D1D4E90B0108430543206805602068C5
:10168000456925F00705606A0543606A04280DD1A5
:10169000A06A0543E06A48B12046FFF79FF828B1E9
:1016A00040206065012084F83500A6E72068456188
:1016B0002046FFF779F8064694F85C103F208840F2
:1016C000B06000206065012084F83500002094E7B8
:1016D0003F8010F02DE9F04704460D4616461F46A0
:1016E0004FF00008D4F8589000BF94F83400012857
:1016F00002D10220BDE8F087012084F8340000BF49
:1017000094F83500012825D1022084F83500002006
:1017100060653B46324629462046FFF7B4F894F808
:101720005C103F208840C9F808002068006840F03D
:10173000160021680860206C28B12068006840F01D
:101740000800216808602068006840F001002168F6
:10175000086006E000BF002084F8340000BF4FF0AE
:1017600002084046C6E70000F8B502460B460025D1
:10177000002400200021D6E0012606FA01F51E68AB
:1017800006EA0504AC4274D11E7906F00306012E68
:1017900004D01E7906F00306022E13D190684F0084
:1017A0000326BE40B0434F00DE68BE403043906029
:1017B000506801268E40B0431E79C6F300168E4055
:1017C000304350601E7906F00306032E09D0D0681E
:1017D0004F000326BE40B0434F009E68BE403043DA
:1017E000D0601E7906F00306022E13D1CF0802F155
:1017F000200656F827004E07F70E0F26BE40B043CE
:101800004F07FF0E1E69BE403043CF0802F120068D
:1018100046F8270010684F000326BE40B0431E79EB
:1018200006F003064F00BE40304310605E6806F4C9
:101830004036002E76D000BF002600963C4E36681B
:1018400046F480463A4F3E603E46366806F480468F
:10185000009600BF00BF374E8F0856F827008E074E
:10186000370F0F26BE40B043334EB24202D100269E
:1018700024E057E0314EB24201D101261EE0304E45
:10188000B24201D1022619E02E4EB24201D1032606
:1018900014E02D4EB24201D104260FE02B4EB2428D
:1018A00001D105260AE02A4EB24201D1062605E002
:1018B000284EB24201D1072600E008268F073F0FCD
:1018C000BE4030431B4E8F0846F82700224E30683A
:1018D000A0435E6806F4801606B120431E4E3060B9
:1018E000361D3068A0435E6806F4001606B120433A
:1018F000194E361D3060184E361F3068A0435E68A2
:1019000006F4003606B12043134E361F3060361FF2
:101910003068A0435E6806F4803606B120430E4E60
:10192000083E3060491C1029FFF426AFF8BD0000C6
:1019300044380240083801400000024000040240E0
:1019400000080240000C0240001002400014024057
:1019500000180240001C0240083C01400148006899
:101960007047000010000020034800680349097810
:10197000084401490860704710000020180000204A
:1019800010B50D48006840F400700B490860084627
:10199000006840F4806008600846006840F4807089
:1019A0000860032000F0D6F80F2000F007F800F0E0
:1019B00055F8002010BD0000003C0240F0B587B093
:1019C00004460026002700BF002000901E48006843
:1019D00040F001001C4908600846006800F0010062
:1019E000009000BF00BF01A902A800F089F900F033
:1019F000BFF946001548B6FBF0F0471E14481549DC
:101A0000086040F2E7311348C1604760002101617E
:101A10008160816100F064FC054695B90D4800F0D5
:101A200093FC05466DB9192000F042F8102C07D23E
:101A300000222146192000F04FF80748046000E01A
:101A40000125284607B0F0BD4438024040420F004F
:101A5000000001405C0200201400002008B500BF17
:101A6000002000901148006840F480400F49086051
:101A70000846006800F48040009000BF00BF00BF2F
:101A800000200090081F006840F08050091F086087
:101A90000846006800F08050009000BF00BF0022A0
:101AA0000F21901E00F018F808BD000044380240D5
:101AB0000146084600280DDB00BF00BF00F01F03F1
:101AC00001229A4043099B0003F1E023C3F800215F
:101AD00000BF00BF00BF70472DE9F05F80460D4694
:101AE0001646002701F03EFE074639462A46334691
:101AF00001F00700C0F1070ABAF1040F02D94FF054
:101B0000040A01E0C0F1070AD14600F1040ABAF163
:101B1000070F02D24FF0000A01E0A0F1030AD446F9
:101B20004FF0010A0AFA09FAAAF1010A0AEA020ABE
:101B30000AFA0CFA4FF0010B0BFA0CFBABF1010B9C
:101B40000BEA030B4AEA0B042146404601F012FE61
:101B5000BDE8F09F00BF00F00702064B19684FF682
:101B6000FF031940044B0B4343EA0221014B196068
:101B700000BF70470CED00E00000FA0570B50446A8
:101B80000D460CB9012070BD5848006800F00700F0
:101B9000A84209D255490D700846006800F00700B8
:101BA000A84201D00120EEE7207800F002000228D0
:101BB0001DD1207800F00400042805D14C480068AD
:101BC00040F4E0504A490860207800F008000828F6
:101BD00005D14748006840F46040454908604448E2
:101BE000006820F0F000A1680843414908602078AF
:101BF00000F00100A8B36068012807D13C4808380C
:101C00000068C0F34040B8B90120BCE76068022812
:101C100002D06068032807D1354808380068C0F34F
:101C2000406048B90120AEE7314808380068C0F389
:101C3000400008B90120A6E72D48006820F0030005
:101C4000616808432A490860FFF788FE064609E0F4
:101C5000FFF784FE801B41F28831884202D90320BD
:101C600091E707E02248006800F00C006168B0EBE3
:101C7000810FEDD11D48006800F00700A84209D986
:101C80001A490D700846006800F00700A84201D00C
:101C9000012078E7207800F00400042807D11448D8
:101CA000006820F4E050E16808431149086020789A
:101CB00000F00800082808D10D48006820F46040B2
:101CC000216940EAC1000A49086000F061F808494A
:101CD0000968C1F30311074A515CC840064908600E
:101CE00006480068FFF76AFE00204CE7003C02400F
:101CF00008380240AC5A00081C00002014000020E4
:101D00000F2202600D4A126802F0030242600B4A81
:101D1000126802F0F0028260084A126802F4E0528F
:101D2000C260064A126802F46042D2080261044AA4
:101D3000126802F007020A6070470000083802408B
:101D4000003C024001480068704700001C00002071
:101D500000B5FFF7F7FF04490968C1F38221034A80
:101D6000515CC84000BD000008380240BC5A000861
:101D700000B5FFF7E7FF04490968C1F34231034AA0
:101D8000515CC84000BD000008380240BC5A000841
:101D90002DE9F047002400250026A14625480068CB
:101DA00000F00C0020B1042805D008283AD105E045
:101DB000DFF8849039E0DFF8849036E01D48001F9A
:101DC000006800F03F041B48001F006800F480001A
:101DD00078B11A481749091F0968C1F38811A0FB97
:101DE00001700146224600233846FEF79DFA05465B
:101DF0000EE011480F49091F0968C1F38811A0FBC3
:101E000001700146224600233846FEF78DFA05464A
:101E10000848001F0068C0F30140401C4600B5FBA5
:101E2000F6F902E0DFF8109000BF00BF4846BDE8B9
:101E3000F0870000083802400024F40040787D015B
:101E4000F8B504460CB90120F8BD207800F0010077
:101E5000002874D0F948006800F00C0004280DD068
:101E6000F648006800F00C00082813D1F348001F62
:101E7000006800F48000B0F5800F0BD1EF480838FF
:101E80000068C0F34040002859D06068002856D14F
:101E90000120D9E700BF6068B0F5803F08D1E7486E
:101EA0000838006840F48030E449083908601EE0D2
:101EB0006068B0F5A02F0DD1E0480838006840F404
:101EC0008020DE49083908600846006840F4803008
:101ED00008600CE0D9480838006820F48030D74901
:101EE000083908600846006820F48020086000BFB8
:101EF000606890B1FFF732FD054606E0FFF72EFD62
:101F0000401B642801D903209EE7CC4808380068AC
:101F1000C0F340400028F1D011E0FFF71FFD054657
:101F200006E0FFF71BFD401B642801D903208BE767
:101F3000C24808380068C0F340400028F1D120783A
:101F400000F0020002285FD1BC48006800F00C00DD
:101F500058B1BA48006800F00C0008281CD1B748F6
:101F6000001F006800F48000B0B9B4480838006869
:101F7000C0F3400020B1E068012801D0012063E7F0
:101F8000AE480838006820F0F800216940EAC10036
:101F9000AA490839086037E0E06800B30120A84981
:101FA0000860FFF7DBFC054606E0FFF7D7FC401BA7
:101FB000022801D9032047E7A04808380068C0F389
:101FC00040000028F1D09D480838006820F0F80053
:101FD000216940EAC10099490839086014E00020ED
:101FE00097490860FFF7BAFC054606E0FFF7B6FC24
:101FF000401B022801D9032026E7904808380068D2
:10200000C0F340000028F1D1207800F00800082833
:102010002CD16069A8B101208A490860FFF79EFCB5
:10202000054606E0FFF79AFC401B022801D9032071
:102030000AE782486C300068C0F340000028F1D005
:1020400014E000207F490860FFF788FC054606E0A1
:10205000FFF784FC401B022801D90320F4E67748EF
:102060006C300068C0F340000028F1D1207800F007
:102070000400042870D1002770483830006800F050
:10208000805090B900BF002000906C483830006844
:1020900040F080506949383108600846006800F017
:1020A0008050009000BF00BF01276748006800F41F
:1020B0008070B0B96448006840F48070624908607C
:1020C000FFF74CFC054606E0FFF748FC401B0228E2
:1020D00001D90320B8E65C48006800F4807000284D
:1020E000F2D000BFA068012808D1544868300068C9
:1020F00040F001005149683108601DE0A0680528E2
:102100000DD14E486830006840F004004B496831FA
:1021100008600846006840F0010008600CE047488D
:102120006830006820F001004449683108600846C2
:10213000006820F00400086000BFA068A8B1FFF7A5
:102140000DFC054609E0FFF709FC401B41F2883110
:10215000884202D9032077E626E0384868300068D4
:10216000C0F340000028EED013E0FFF7F7FB054670
:1021700008E0FFF7F3FB401B41F28831884201D9A8
:10218000032061E62D4868300068C0F34000002855
:10219000EFD1012F07D129483830006820F0805056
:1021A00026493831086000BFA069002845D023487F
:1021B000006800F00C0008285DD0A069022845D115
:1021C00000201F490866FFF7C9FB054606E0FFF738
:1021D000C5FB401B022801D9032035E61748083803
:1021E0000068C0F340600028F1D1D4E9070108433A
:1021F000616A40EA81110122A06AC2EB500041EA03
:1022000000412C20005D41EA00600C49091F086074
:1022100001200B490866FFF7A1FB054606E0FFF722
:102220009DFB401B022801D903200DE60348083816
:102230000068C0F340600028F1D049E0083802404F
:1022400000004742800E47420070004000202149B4
:102250000866FFF783FB054606E0FFF77FFB401BA0
:10226000022801D90320EFE51B480068C0F3406055
:102270000028F2D12CE0A069012800D1E4E516483D
:10228000001D0668A069012820D006F48001E069DD
:1022900081421BD106F03F01206A814216D147F6E8
:1022A000C0703040616AB0EB811F0FD106F440313D
:1022B0000122A06AC2EB5000B1EB004F06D106F03C
:1022C00070612C20005DB1EB006F01D00120BBE5F7
:1022D0000020B9E5000047420038024070477047CF
:1022E00010B504460CB9012010BD94F83D0028B982
:1022F000002084F83C00204600F025F8022084F8F5
:102300003D00211D206800F049FE012084F84600B0
:1023100000BF84F83E0001213F20015540200155B7
:102320004120015500BF00BF012084F84200432036
:102330000155442001554520015500BF012084F876
:102340003D000020D0E77047014691F83D0001288C
:1023500001D001207047022081F83D000868C06864
:1023600040F001000B68D8601A4B086898421BD0F7
:102370000868B0F1804F17D0174B0868984213D007
:10238000164B086898420FD0154B086898420BD03E
:10239000144B0868984207D0134B0868984203D042
:1023A000124B086898420CD10868806800F0070258
:1023B000062A0CD00868006840F001000B6818601D
:1023C00005E00868006840F001000B681860002014
:1023D000C0E7000000000140000400400008004089
:1023E000000C004000040140004001400018004083
:1023F000704770B504462068C5682068066906F015
:102400000200022819D105F00200022815D1401F50
:1024100021680861012020772068806900F00300AE
:1024200018B12046FFF7E4FF05E0204600F097F8DA
:10243000204600F095F80020207706F004000428DC
:1024400019D105F00400042815D1C04321680861A2
:10245000022020772068806900F4407018B120467F
:10246000FFF7C6FF05E0204600F079F8204600F0AF
:1024700077F80020207706F00800082819D105F029
:102480000800082815D1C04321680861042020777E
:102490002068C06900F0030018B12046FFF7A8FFCC
:1024A00005E0204600F05BF8204600F059F80020D7
:1024B000207706F01000102819D105F01000102820
:1024C00015D1C04321680861082020772068C069C1
:1024D00000F4407018B12046FFF78AFF05E020465F
:1024E00000F03DF8204600F03BF80020207706F091
:1024F000010048B105F0010030B16FF00100216822
:102500000861204600F02EF806F08000802809D1EE
:1025100005F08000802805D1C0432168086120466D
:10252000FFF7DCFE06F04000402809D105F040002E
:10253000402805D1C04321680861204600F01EF8FC
:1025400006F02000202809D105F02000202805D120
:10255000C043216808612046FFF7C1FE70BD704787
:102560007047000010B5044603492068884201D135
:10257000FFF7FAF910BD0000000001407047F8B500
:1025800004460E46174694F8420020282ED106B184
:102590000FB90120F8BD01202063002060633A4696
:1025A0003146204600F0FAFF0546EDB9206B0128C0
:1025B00019D100BF002000902068006800902068BA
:1025C0004068009000BF00BF00BF00BF21680C3111
:1025D00051E8001F41F0100021680C3141E8000271
:1025E000002AF3D100E001252846D3E70220D1E7F5
:1025F00013B504461B492068884232D1BDF8040057
:1026000064282EDC642218491848FFF7B8FF0A2313
:10261000BDF804201449154800F090FABDF80400F4
:10262000012807D100231A4601A91148006802F0C9
:10263000A5FD0AE0BDF80400022806D100231A46D1
:1026400001A90B48006802F099FD0A48006800687B
:1026500020F0080007490968086064210248FDF776
:1026600027FF1CBD00140140F00000205401002091
:10267000080000209C01002010B504460A4920688B
:10268000884210D1642209490948FFF778FF0948B8
:102690000068006820F008000649096808606421A5
:1026A0000248FDF705FF10BD00140140F0000020B6
:1026B000540100209C0100202DE9F84F04462068B9
:1026C00005682068C668206847694FF00009CA4657
:1026D00005F00F09B9F1000F0AD105F0200038B15B
:1026E00006F0200020B1204600F0C3FDBDE8F88FC1
:1026F000B9F1000F7CD007F0010018B906F4907012
:10270000002875D005F0010030B106F4807018B1D2
:10271000606C40F00100606405F0040030B107F027
:10272000010018B1606C40F00200606405F0020026
:1027300030B107F0010018B1606C40F00400606433
:1027400005F0080048B106F0200010B907F00100BC
:1027500018B1606C40F008006064606C002846D0DE
:1027600005F0200028B106F0200010B1204600F04E
:1027700080FD20684069C0F3801A606C00F008009A
:1027800010B9BAF1000F2DD0204600F019FD2068D5
:10279000406900F04000402820D100BF00BF216800
:1027A000143151E8001F21F040002168143141E844
:1027B0000002002AF3D100BFE06B50B17748E16B13
:1027C0000865E06BFEF7DBFD88B1E06B016D8847C3
:1027D0000DE02046FFF750FF09E009E02046FFF733
:1027E0004BFF04E02046FFF747FF002060647DE7D1
:1027F000206B012878D105F01000002874D006F075
:1028000010000028FAD000BF002000902068006867
:10281000009020684068009000BF00BF20684069B9
:1028200000F04000402860D1E06B006840681FFA6B
:1028300080F8B8F1000F56D0A08D404553DDA4F8C4
:102840002E80E06BC069B0F5807F43D000BF00BF31
:1028500021680C3151E8001F21F4807021680C318F
:1028600041E80002002AF3D100BF00BF00BF216889
:10287000143151E8001F21F001002168143141E8B2
:102880000002002AF3D100BF00BF00BF216814314D
:1028900051E8001F21F040002168143141E8000296
:1028A000002AF3D100BF202084F8420000202063DA
:1028B00000BF00BF21680C3151E8001F21F010005B
:1028C00021680C3141E80002002AF3D100BFE06B1F
:1028D000FEF7FFFC02206063A08DE28D801A81B2BA
:1028E0002046FFF785FE01E742E0A08DE18D401A0A
:1028F0001FFA80F8E08DD0B3B8F1000F37D000BFD9
:1029000000BF21680C3151E8001F21F4907021684C
:102910000C3141E80002002AF3D100BF00BF00BF24
:102920002168143151E8001F21F0010021681431A1
:1029300041E80002002AF3D100BF202084F84200C1
:102940000020206300BF00BF21680C3151E8001F48
:1029500021F0100021680C3141E80002002AF3D177
:1029600000BF0220606341462046FFF741FEBDE6FE
:1029700005F0800030B106F0800018B1204600F06C
:1029800071FEB3E605F0400030B106F0400018B12A
:10299000204600F04BFCA9E600BFA7E68530000802
:1029A00010B504460CB9012010BDA06900B100E0CB
:1029B00000BF94F8410028B9002084F84000204668
:1029C00000F02AF8242084F841002068C06820F430
:1029D00000502168C860204600F0CAFC20680069E9
:1029E00020F49040216808612068406920F02A00A6
:1029F000216848612068C06840F400502168C860C0
:102A000000206064202084F8410084F84200002007
:102A1000606300BFC8E7000010B586B0044614210B
:102A200001A8FDF745FD3E492068884275D100BFE9
:102A3000002000903B48006840F0200039490860C1
:102A40000846006800F02000009000BF00BF00BFF3
:102A50000020009033481438006840F004003149E9
:102A6000143908600846006800F00400009000BFB8
:102A700000BFC0200190022002900020039003209C
:102A800004900820059001A92748FEF76DFE27480D
:102A90002749086080054860002125488160C160A1
:102AA0004FF480610161002141618161C1614FF496
:102AB0008031016200214162FEF796FD08B1FDF709
:102AC000F9FE00BF1A48E063846300BF17487830FE
:102AD000184908604FF02060486040211548816027
:102AE0000021C1604FF48061016100214161816179
:102AF000C16101624162FEF777FD08B1FDF7DAFEC0
:102B000000BF0C48A063846300BF0022052147205A
:102B1000FEF7E2FF4720FEF7CBFF06B010BD000036
:102B2000001401404438024000080240286402407A
:102B30009C010020FC010020704770472DE9F84FF0
:102B400004460E46174699464FF0000A94F8410095
:102B5000202850D106B117B90120BDE8F88F002018
:102B60006064212084F84100FEF7F8FE8246A784C5
:102B7000E784A068B0F5805F04D1206910B9002512
:102B8000B04602E035464FF000081EE053460022F2
:102B900080212046CDF8009000F094FD20B1202047
:102BA00084F841000320D8E745B9B8F80000C0F325
:102BB00008002168486008F1020803E028782168CD
:102BC00048606D1CE08C401EE084E08C0028DDD164
:102BD0005346002240212046CDF8009000F072FDBF
:102BE00020B1202084F841000320B6E7202084F89B
:102BF00041000020B1E70220AFE7704700BFFEE7C9
:102C000010B50D480D4908600920486000210B48A7
:102C10008160C1604FF4803101610901416100218F
:102C2000017641768176C17601774177FEF76EF9BC
:102C300008B1FDF73FFE10BD00640040A000002079
:102C400010B50D480D4908600920486000210B4867
:102C50008160C1604FF4803101610901416100214F
:102C6000017641768176C17601774177FEF74EF99C
:102C700008B1FDF71FFE10BD00680040C80000202D
:102C800008B500BF002000900E48006840F48000A6
:102C90000C4908600846006800F48000009000BFFE
:102CA00000BF002205213920FEF716FF3920FEF76C
:102CB000FFFE002205214520FEF70EFF4520FEF70E
:102CC000F7FE08BD3038024010B50B4A0221102033
:102CD00000F0D2FD09490860094A0021094800F0C6
:102CE00018FE09490860094A0021094800F011FE50
:102CF0000849086010BD00008C5A00080800002038
:102D0000445A0008DD2D000800000020685A000821
:102D1000E92D00080400002008B500BF0020009045
:102D20001D48006840F080001B49086008460068A4
:102D300000F08000009000BF00BF00BF00200090A6
:102D40000846006840F0020008600846006800F08D
:102D50000200009000BF00BF00BF002000900846A6
:102D6000006840F0040008600846006800F00400B5
:102D7000009000BF00BF00BF002000900846006820
:102D800040F0010008600846006800F00100009073
:102D900000BF00BF08BD00003038024010B50B482E
:102DA0000B4908604FF4E130486000210848816019
:102DB000C16001610C21416100218161C161FFF7A6
:102DC000EFFD08B1FDF776FD10BD000000140140D5
:102DD0005401002000BFFEE700BFFEE700BF002057
:102DE00001F0E2FDFBE700000EB500BF02F0DEFBE4
:102DF0000290642226492748FFF7C1FB2648006855
:102E0000006820F008002449096808602348FDF79D
:102E100095FC2348FDF792FC40F2FF734FF48A7251
:102E200004211E48FDF7FDFB40F2FF734FF48A7248
:102E300074211B48FDF73CFC0020009000BF0122DC
:102E400001A91848006802F017FABDF8040001282B
:102E50000AD101236A464FF48A711048FDF780FCBD
:102E60000A2000F0B4FC0DE0BDF80400022809D1EE
:102E700001236A464FF48A710948FDF771FC0A2064
:102E800000F0A5FC0A2102A801F024FDD7E700000C
:102E9000F0000020540100209C010020A000002030
:102EA000C80000200800002010B54FF0E0200069A5
:102EB00002F06CFB012801D001F088FF10BD00007A
:102EC00000B593B0302107A8FDF7F2FA142102A84B
:102ED000FDF7EEFA00BF002001902548006840F0A1
:102EE0008050234908600846006800F08050019037
:102EF00000BF00BF00BF002001901E48006840F4E2
:102F000080401C4908600846006800F48040019039
:102F100000BF00BF0220079001200A9010200B90F4
:102F200002200D9000210E9108210F91A8211091EF
:102F3000022111910421129107A8FEF781FF08B127
:102F4000FDF7B8FC0F2002900220039000200490AF
:102F50004FF4A05005904FF480500690052102A830
:102F6000FEF70CFE08B1FDF7A5FC13B000BD000094
:102F700040380240007000400348006840F4700090
:102F8000014908607047000088ED00E010B5024874
:102F9000FFF72FFA10BD00005C02002010B5026898
:102FA0002D4B98420ED0B0F1804F0BD02B4B984256
:102FB00008D02B4B984205D02A4B984202D02A4B7E
:102FC000984203D122F070024B681A43224B984278
:102FD00020D0B0F1804F1DD0204B98421AD0204B0A
:102FE000984217D01F4B984214D01F4B984211D0D3
:102FF0001E4B98420ED01E4B98420BD01D4B984250
:1030000008D01D4B984205D01C4B984202D01C4B57
:10301000984203D122F44072CB681A4322F0800315
:103020004C6943EA040202608B68C3620B688362E6
:10303000094B984202D00C4B984201D10B690363B3
:1030400001234361036903F001031BB1036923F00A
:103050000103036110BD00000000014000040040B6
:1030600000080040000C0040000401400040014006
:10307000004401400048014000180040001C00408E
:103080000020004070B50546AC6B0020E085E08470
:103090002046FFF7F1FA70BD70B506460025B46B07
:1030A00020684069C0F3C01594F84100212805D17B
:1030B00025B10020E084204600F0C8F8206840696F
:1030C000C0F3801594F84200222805D125B10020D4
:1030D000E085204600F074F8606C40F010006064F9
:1030E0002046FFF7C9FA70BD70B50546AC6B28687D
:1030F000006800F48070002842D1E08500BF00BF66
:1031000021680C3151E8001F21F4807021680C31D6
:1031100041E80002002AF3D100BF00BF00BF2168D0
:10312000143151E8001F21F001002168143141E8F9
:103130000002002AF3D100BF00BF00BF2168143194
:1031400051E8001F21F040002168143141E80002DD
:10315000002AF3D100BF202084F84200206B012810
:103160000ED100BF00BF21680C3151E8001F21F0D3
:10317000100021680C3141E80002002AF3D100BFA1
:1031800000206063206B012804D1A18D2046FFF749
:103190002FFA02E02046FFF7CFFC70BD70B5054660
:1031A000AC6B01206063206B012805D1A08D410824
:1031B0002046FFF71DFA02E02046FFF7BEFC70BD77
:1031C00000BF00BF02680C3252E8002F22F4907159
:1031D00002680C3242E80013002BF3D100BF00BF9D
:1031E00000BF0268143252E8002F22F00101026889
:1031F000143242E80013002BF3D100BF016B012908
:103200000ED100BF00BF02680C3252E8002F22F03E
:10321000100102680C3242E80013002BF3D100BF0A
:10322000202180F8421000210163704710B5044648
:103230002068C06820F040002168C860202084F821
:1032400041002046FFF7D9FC002010BD00BF00BFA1
:1032500002680C3252E8002F22F0C00102680C32E2
:1032600042E80013002BF3D100BF202180F8411069
:103270007047F8B5044694F84200222875D1A0683A
:10328000B0F5805F0CD1206950B90025A66A20688E
:103290004068C0F308003080A06A801CA06215E07E
:1032A000A56A0026A068B0F5805F03D0A06828B9A1
:1032B000206918B920684068287004E020684068D8
:1032C00000F07F002870A06A401CA062E08D401EC4
:1032D00080B2E085002846D12068C06820F0200038
:1032E0002168C8602068C06820F480702168C860C8
:1032F0002068406920F0010021684861202084F89E
:10330000420000206063206B012826D1002020634A
:1033100000BF00BF21680C3151E8001F21F01000F0
:1033200021680C3141E80002002AF3D100BF206877
:10333000006800F0100010280AD100BF00200090A3
:1033400020680068009020684068009000BF00BFBF
:10335000A18D2046FFF74CF902E02046FFF7ECFB79
:103360000020F8BD01E00020FBE70220F9E70000A3
:103370002DE9F84F04462068006920F44050E168C8
:103380000843216808612169A0680843616908430E
:10339000E169084300902068C06849F20C618843E5
:1033A000009908432168C8602068406920F4407093
:1033B000A16908432168486176492068884203D0A2
:1033C00075492068884203D1FEF7D2FC814602E0AD
:1033D000FEF7BEFC8146E069B0F5004F6CD10220DB
:1033E0006168A0FB015003461920A9FB007001464B
:1033F0002A463846FCF798FF6421B0FBF1F04FEA0B
:10340000001A02206168A0FB01510B461920A9FB9C
:1034100000712A463846FCF787FF83460220616820
:10342000A0FB015003461920A9FB00712A4638462B
:10343000FCF77AFF6421B0FBF1F000EBC00101EB77
:103440000010ABEB8000322101EBC0006421B0FB27
:10345000F1F000F0F8000AEB400A02206168A0FBDE
:10346000015003461920A9FB007001462A46384640
:10347000FCF75AFF834602206168A0FB0150034617
:103480001920A9FB00712A463846FCF74DFF64213C
:10349000B0FBF1F000EBC00101EB0010ABEB8000E2
:1034A000322101EBC0006421B0FBF1F000F0070015
:1034B0005044216888606AE004206168A0FB0150E4
:1034C00003461920A9FB007001462A463846FCF73E
:1034D0002BFF824604206168A0FB0150034619209F
:1034E000A9FB007001462A463846FCF71DFF6421FF
:1034F000B0FBF1F000EBC00101EB0010AAEB800083
:10350000322101EB00106421B0FBF1F000F0F00A71
:1035100004206168A0FB017003461920A9FB00513B
:103520003A462846FCF700FF6421B0FBF1F00AEBB5
:10353000001A04206168A0FB01510B461920A9FB69
:1035400000712A463846FCF7EFFE83460420616886
:10355000A0FB015003461920A9FB007001462A4632
:103560003846FCF7E1FE6421B0FBF1F000EBC0014E
:1035700001EB0010ABEB8000322101EB0010642165
:10358000B0FBF1F000F00F00504421688860BDE806
:10359000F88F0000001001400014014077B581B0A1
:1035A000044615460298A062A5850020606422208A
:1035B00084F842002848E16BC8632848E16B08643E
:1035C0002748E16BC8640020E16B086502AE3268F1
:1035D0002368191D2B46E06BFEF77CF800BF002026
:1035E000009020680068009020684068009000BF4C
:1035F00000BF206970B100BF00BF21680C3151E8E5
:10360000001F41F4807021680C3141E80002002A5B
:10361000F3D100BF00BF00BF2168143151E8001F83
:1036200041F001002168143141E80002002AF3D181
:1036300000BF00BF00BF2168143151E8001F41F0F6
:1036400040002168143141E80002002AF3D100BF94
:10365000002004B070BD0000E93000089D31000872
:1036600099300008014691F84100212828D1886846
:10367000B0F5805F0BD1086948B90A6A1088C0F3B9
:1036800008000B685860086A801C086205E00B6A35
:10369000581C086218780B685860C88C401E80B2AD
:1036A000C88458B90868C06820F080000B68D860EA
:1036B0000868C06840F040000B68D8600020704780
:1036C0000220FCE72DE9F84304460D4617469846CC
:1036D000089E31E0701C70B3FEF740F9A0EB0800C3
:1036E000B04200D816B90320BDE8F8832068C0684E
:1036F00000F00400F8B1802D1ED0402D1CD02068B1
:103700000068C0F3C000B0B100BF00200090206886
:103710000068009020684068009000BF00BF20460D
:10372000FFF74EFD0820606400BF002084F84000D1
:1037300000BF0120D8E7FFE7206800682840A842C2
:1037400001D1012000E00020B842C3D00020CBE727
:1037500010B50248FEF7B0FF10BD00005401002074
:1037600000BFFEE702480068C0F302207047000077
:103770000CED00E010B5002804DB0A07130E054A23
:10378000135406E00A07140E034A00F00F031B1F30
:10379000D45410BD00E400E018ED00E0EFF3058024
:1037A0007047FEF7EDF8FFF78BFBFFF7B5FAFFF771
:1037B00067FAFFF7F3FAFFF723FAFFF741FA00F091
:1037C00015F8FFF781FA00F027F800BFFEE770B5A3
:1037D0000546FFF7E3FF10B16FF0050404E0002495
:1037E00015B1284601F048F8204670BD10B5FFF726
:1037F000D5FF10B16FF0050409E00648006820B954
:10380000012004490860002401E04FF0FF34204605
:1038100010BD00007000002070B5FFF7BFFF10B1B1
:103820006FF005041FE011480068012819D100BF9E
:10383000801F0021002804DB0A07130E0C4A1354D2
:1038400006E00A07150E0B4A00F00F031B1FD554A4
:1038500000BF00BF02200549086001F057F90024AD
:1038600001E04FF0FF34204670BD000070000020E2
:1038700000E400E018ED00E02DE9F84305460E46AF
:1038800014464FF00009FFF789FF00283ED1002DB4
:103890003CD0002E3AD0471EBCB1A06858B1E068B9
:1038A000502808D3206930B105FB06F061698142D8
:1038B00001D301270AE0A06840B9E06830B9206967
:1038C00020B9606910B9002700E00027012F09D155
:1038D0000020009031462846A368226901F0BDFA15
:1038E000814606E02FB900223146284601F088FAC9
:1038F0008146B9F1000F09D014B1D4F8008001E07D
:103900004FF000084146484600F07AFF4846BDE8BF
:10391000F8832DE9FF47804689461446002003902E
:10392000FFF73CFF00284ED1B8F1000F4BD08026A6
:1039300018258246471E44B3206808B1D4F800A079
:10394000A06900B1A5692DB1382D03D8207900F008
:10395000010018B1002004B0BDE8F087606908B12B
:1039600060698608A06840B1E0685C2805D32069DA
:1039700018B1606908B1012708E0A06830B9E068B3
:1039800020B9206910B9002700E00027012F0CD1D1
:103990002169A0684B463246CDE90051029051465C
:1039A000404601F095FD03900DE067B903A8B2B25F
:1039B0004B465146CDE90050404601F057FD0128E5
:1039C00001D0002003900398C5E700002DE9F041E5
:1039D00005460E461648076816480068001D00F0A8
:1039E000C3FD681C38B936B112480168091D124878
:1039F00000F010FE1AE07C190E4800684460BC42DA
:103A000007D20C480168091D0C48006800F0E8FD69
:103A10000CE008480168091D0948006800F0E0FD55
:103A200008480068844201D206480460BDE8F0817D
:103A300034000020200000209407002028000020EF
:103A4000240000205000002010B5044600F0EEFDD8
:103A500024480068401C234908602348006840B996
:103A6000214804600846006801280DD100F0FCF9E7
:103A70000AE01E48006838B91B480068C06AE16A5D
:103A8000884201D81848046019480068401C184949
:103A900008600846006860641649E06A0968884260
:103AA00002D91449E06A0860E16A01EB8101124A17
:103AB00002EB8100211D00F0ADFD00F0E1FD0B489F
:103AC000006868B108480068C06AE16A884207D2A5
:103AD0004FF0805009490860BFF34F8FBFF36F8FDD
:103AE00010BD000030000020200000203C0000201D
:103AF0004C00002038000020E402002004ED00E02B
:103B000008B500F093FD12480068E8B9114800F0CC
:103B100057FD114800F054FD0E48104908600E484A
:103B20000F49086000200F4B0F4A102100900A2017
:103B300001F093F9064908600846006820B10BA11E
:103B40000348006800F05CFE00F09AFD08BD00002C
:103B500064000020A8070020BC0700205C000020B3
:103B600060000020D007002020080020546D725112
:103B70000000000010B516E000F058FD0C48C068C9
:103B8000C468201D00F0F0FC0A480068401E094986
:103B9000086009480068401E0749086000F070FD91
:103BA000204600F05FF8044800680028E4D110BD0A
:103BB00080070020300000202C00002070B5044653
:103BC0000D46206C70B1216CE0680144E160D4E9DD
:103BD0000210884201D32168E1602846226CE16826
:103BE000FCF719FC70BD2DE9F04104460F4615465F
:103BF0004FF00008A66B206C48B9206800282CD133
:103C0000A06801F07BFD80460020A06025E07DB922
:103C10003946226C6068FCF7FEFB216C6068084442
:103C20006060D4E90101884217D32068606014E025
:103C30003946226CE068FCF7EEFB216CE068411A23
:103C4000E1602168E068884203D2216CA068411AD3
:103C5000E160022D01D106B1761E701CA0634046C2
:103C6000BDE8F08110B5044694F8590030B9206BD6
:103C700000F024FD204600F021FD1AE094F85900E0
:103C8000012803D1204600F019FD12E094F85900F4
:103C9000022801D1012000E0002050B900BF5020CF
:103CA00080F31188BFF34F8FBFF36F8F00BF00BF4A
:103CB000FEE710BD0146084A126812680AB90122DF
:103CC00000E000220A600A6822B9034A1268D2683A
:103CD000106800E0002070475C00002030B54FF411
:103CE0007053174800F007042CB1C01D20F00700E6
:103CF000134C041B1B1B0246124C22600024114D66
:103D00006C60D018083820F007000F4C20600024A9
:103D10000D4D2D686C600C4D2D682C601146441AB9
:103D20004C60094C24680C60084D4C682C60084DB0
:103D30004C682C604FF00044064D2C6030BD0000F4
:103D4000780F0020740000207C00002084000020F8
:103D5000800000209000002000BFFFF70BFF064806
:103D600000680128F9D94FF0805004490860BFF37A
:103D70004F8FBFF36F8FF0E7E402002004ED00E007
:103D80002DE9F04106460D4617469846069C0DB9AA
:103D9000246000E02760E66325640121204601F0ED
:103DA000CDF884F84C80BDE8F0812DE9F05F8246C3
:103DB0000E4690469B460A9F0C9C4FEA8801A5221E
:103DC000206BFCF76DFBA8F10100216B01EB800972
:103DD00029F0070909F0070008B9012000E00020D8
:103DE00050B900BF502080F31188BFF34F8FBFF34D
:103DF0006F8F00BF00BFFEE786B1002507E0715D51
:103E000004F134004155705D00B902E06D1C102DC5
:103E1000F5D300BF00214320015502E0002084F8C3
:103E20003400382F00D33727E762E764002020658D
:103E3000201D00F0D2FB04F1180000F0CEFB24613D
:103E4000C7F13800A06164620020606584F8580002
:103E50005A465146484600F071FB20600B9808B165
:103E60000B980460BDE8F09F10B5002407E004EB58
:103E700084010F4A02EB810000F0A2FB641C382C85
:103E8000F5D30C4800F09CFB0B4800F099FB0B4865
:103E900000F096FB0A4800F093FB0A4800F090FB04
:103EA00004480949086004480849086010BD00003A
:103EB000E402002044070020580700206C0700207F
:103EC0008007002094070020240000202800002004
:103ED00010B50146164800E0006803688B42FBD32A
:103EE0000246436813448B4204D143684C68234420
:103EF000436001460A464B6813440468A34211D14B
:103F00000C4C03682468A34208D04B6804686468BA
:103F100023444B6003681B680B6005E0054B1B687E
:103F20000B6001E003680B60884200D0016010BDA7
:103F3000740000207C0000202DE9F04104460D466D
:103F400016461F464FF0000865602461B5420CD844
:103F5000F01BA169884202D34FF0010811E0211D36
:103F60000948006800F03CFB0BE0BE4204D2BD42B1
:103F700002D34FF0010804E0211D0448006800F05E
:103F80002FFB4046BDE8F081600000205C0000206F
:103F900070B5054600F04AFBA86B08B9012400E0A3
:103FA000002400F06DFB204670BD70B5054600F0A2
:103FB0003DFBA86BE96B884201D1012400E000249D
:103FC00000F05EFB204670BDF8B505460F461A4866
:103FD0000068C068C468201D00F0C6FA94F8280084
:103FE00000F00400E8B1A06941192B463A4620468A
:103FF000FFF7A2FFD8B1002003462A4601460090F1
:10400000204601F0D7FC064656B900BF502080F389
:104010001188BFF34F8FBFF36F8F00BF00BFFEE764
:1040200005E094F8280020F0010084F828002046DC
:10403000216A8847F8BD00005C000020F0B587B019
:10404000A0E00398002811DA04AE56B900BF502052
:1040500080F31188BFF34F8FBFF36F8F00BF00BF96
:10406000FEE7D6E90020B168904700BF039800281A
:10407000E6DB059C606908B9012000E0002010B96A
:10408000201D00F071FA02A800F0DEF80546039842
:104090000A2875D2DFE800F00905073941630608F0
:1040A0003A4200BF00BF00BF00BF94F8280040F0B4
:1040B000010084F828000498A269811803462A4662
:1040C0002046FFF739FFF8B12046216A884794F867
:1040D000280000F00400B8B1002000900498A16905
:1040E000421800231946204601F064FC074657B9E0
:1040F00000BF502080F31188BFF34F8FBFF36F8F45
:1041000000BF00BFFEE700BF3BE000BF94F82800FF
:1041100020F0010084F8280033E000BF94F8280064
:1041200040F0010084F828000498A061A06908B15B
:10413000012000E0002050B900BF502080F311881A
:10414000BFF34F8FBFF36F8F00BF00BFFEE7A069C3
:1041500041192B462A462046FFF7EEFE11E094F85F
:10416000280000F0020018B9204600F0A7FA05E088
:1041700094F8280020F0010084F8280001E0FFE70F
:1041800000BF00BF002203A90448006801F074F8D2
:1041900000287FF456AF07B0F0BD00006400002097
:1041A000F8B505460C4600F00DFD684600F04CF8E9
:1041B0000646009820BB44B9B54206D801F03CFB46
:1041C00031462846FFF700FF1CE03CB10E4800686E
:1041D000006808B9012000E000200446A91B22461F
:1041E0000A48006800F022FB01F026FB50B94FF0AE
:1041F000805007490860BFF34F8FBFF36F8F01E016
:1042000001F01AFBF8BD00006000002064000020EF
:1042100004ED00E00A490968096809B9012100E0D4
:10422000002121B14FF0FF31064A116006E0044938
:104230000968C968C868034A41681160704700008E
:10424000240000205000002070B5044601F0AEF9B3
:10425000054607480068854204D200F00BF80120AB
:10426000206001E00020206001480560284670BD04
:104270006C0000202DE9F84334E025480068C06850
:10428000056823480068C068C468201D00F06CF908
:104290002046216A884794F8280000F0040008B3FB
:1042A000A0694619AE4207D966602461211D1848ED
:1042B000006800F095F915E0002003462A46014603
:1042C0000090204601F076FB074657B900BF50200A
:1042D00080F31188BFF34F8FBFF36F8F00BF00BF14
:1042E000FEE700BF0A480068006808B9012000E046
:1042F00000200028C1D00648D0F80080054800689A
:10430000034908600348C0F80080BDE8F883000056
:104310005C000020600000200E480068401C08B9C6
:10432000012000E0002050B900BF502080F3118828
:10433000BFF34F8FBFF36F8F00BF00BFFEE700BF1B
:10434000502080F31188BFF34F8FBFF36F8F00BFF2
:1043500000BFFEE79400002008B500BF6846FFF7E5
:10436000A9FC044620460099FFF71AFFFFF766FEF6
:10437000F4E770B5044600F059F994F9455010E09F
:10438000606A08B9012000E0002038B904F1240077
:1043900001F006FA18B100F077FB00E003E0681EB8
:1043A00045B2002DECDC00BFFF2084F8450000F092
:1043B00067F900F03BF994F9445010E0206908B91E
:1043C000012000E0002048B904F1100001F0E8F9F4
:1043D00008B100F059FB681E45B200E001E0002D75
:1043E000ECDC00BFFF2084F8440000F049F970BD08
:1043F0002DE9F04104464FF0000800F0E3FB494886
:10440000006808B9FFF76AFC4748006820400028A8
:1044100070D1D4B1083404F00700B0B104F0070043
:10442000C0F10800044404F0070008B9012000E0CE
:10443000002050B900BF502080F31188BFF34F8F88
:10444000BFF36F8F00BF00BFFEE7002C52D037488C
:10445000006884424ED8364E3046056801E02E464C
:104460002D686868A04202D228680028F7D12D483C
:10447000006885423ED0306800F108082868306046
:104480006868001B102819D92F1907F0070008B910
:10449000012000E0002050B900BF502080F31188B7
:1044A000BFF34F8FBFF36F8F00BF00BFFEE7686899
:1044B000001B78606C603846FFF70AFD1B4968688E
:1044C0000968081A19490860084600681949096806
:1044D000884203D215480068164908601249686886
:1044E0000968084368600020286013480068401C81
:1044F0001149086001F0A0F908F0070008B901208F
:1045000000E0002050B900BF502080F31188BFF3B5
:104510004F8FBFF36F8F00BF00BFFEE74046BDE87F
:10452000F08100007C00002090000020800000202E
:10453000740000208400002088000020001F4FF03D
:1045400080730360001F21F001030360001F054B0F
:10455000036014380260001F6FF00203036020380C
:10456000704700001943000801460A69D1E901308B
:104570009860D1E9010358605068884201D1886889
:104580005060002008611068401E1060106870477D
:10459000034B0360034B0B608023136070470000E4
:1045A000C00800201C090020034B0360034B0B6074
:1045B0004FF48073136070471C0B0020780B0020B1
:1045C00000F1080141604FF0FF31816000F1080106
:1045D000C1600161002101607047002101617047E5
:1045E00010B502460B685C1C0CB9106907E002F1BB
:1045F000080000E04068446824689C42FAD9446896
:104600004C604C68A160886041600A611468641C59
:10461000146010BD42684A6093688B60936859606B
:104620009160086103685B1C0360704700BF502005
:1046300080F31188BFF34F8FBFF36F8F00BF0E4819
:104640000068401C0C49086008460068012812D127
:104650000A480068C0B208B9012000E0002050B943
:1046600000BF502080F31188BFF34F8FBFF36F8FCF
:1046700000BF00BFFEE770479400002004ED00E09B
:104680000D48006850B900BF502080F31188BFF377
:104690004F8FBFF36F8F00BF00BFFEE70648006873
:1046A000401E054908600846006820B9002080F3D4
:1046B000118800BF00BF70479400002070B5064607
:1046C0003546002E44D0083D2C46224960680968D2
:1046D000084008B1012000E0002050B900BF502080
:1046E00080F31188BFF34F8FBFF36F8F00BF00BF00
:1046F000FEE7206808B9012000E0002050B900BFA3
:10470000502080F31188BFF34F8FBFF36F8F00BF2E
:1047100000BFFEE70F49606809680840C0B1206823
:10472000B0B90C49606809688843606000F04AFAD3
:104730000949606809680844074908602046FFF78E
:10474000C7FB06480068401C0449086001F074F883
:1047500070BD000090000020800000208C00002030
:1047600000204FF0E02108618861064800684FF49E
:104770007A71B0FBF1F0401E4FF0E0214861072054
:10478000086170471C00002070B5FBF7A9FD0446C6
:10479000102C16D304F1E02090F8F053154800785F
:1047A000854201DB012000E0002050B900BF50200D
:1047B00080F31188BFF34F8FBFF36F8F00BF00BF2F
:1047C000FEE70D48006800F4E0600C490968884283
:1047D00001D8012000E0002050B900BF502080F334
:1047E0001188BFF34F8FBFF36F8F00BF00BFFEE78D
:1047F00070BD0000980000200CED00E09C0000203F
:10480000024600200BE0084B53F8303033B9064B1A
:1048100043F8301003EBC0035A6002E0401C082844
:10482000F1D300BF70470000A40200202DE9F04141
:1048300005460E4617462C46FFF7F8FE94F944004D
:10484000401C10B9002084F8440094F94500401C35
:1048500010B9002084F84500FFF712FFA06B28B9BB
:104860003A46314604F1240000F030F92046FFF7C3
:1048700080FDBDE8F081000070B504460025D4B18C
:104880001248006808B9012000E0002050B900BFBC
:10489000502080F31188BFF34F8FBFF36F8F00BF9D
:1048A00000BFFEE700F08EF900212046FFF78EF8EA
:1048B00000F0C2FF05463DB94FF080500449086042
:1048C000BFF34F8FBFF36F8F70BD00005800002003
:1048D00004ED00E02DE9F04704460F464FF00009D3
:1048E00054B900BF502080F31188BFF34F8FBFF33E
:1048F0006F8F00BF00BFFEE70FB1012000E0002076
:1049000050B900BF502080F31188BFF34F8FBFF321
:104910006F8F00BF00BFFEE72048006808B9012084
:1049200000E0002050B900BF502080F31188BFF391
:104930004F8FBFF36F8F00BF00BFFEE700F042F95B
:10494000174806682068C5192068B04207D9206852
:10495000A8420BD9B54209D94FF0010906E02068F9
:10496000A84201D8B54201D94FF001092560B9F13B
:10497000000F03D0A81B0021FFF728F800F05CFF10
:104980008046B8F1000F07D14FF08050054908600C
:10499000BFF34F8FBFF36F8FBDE8F0875800002043
:1049A0003400002004ED00E070B50546FFF73EFE40
:1049B00015B92748006800E028460446201DFFF787
:1049C000D3FDA06A18B104F11800FFF7CDFD21480E
:1049D0000068401C1F4908601D480068844209D1D6
:1049E000211D1D48FFF716FE1C480068401C1B498E
:1049F000086009E01A480068401E1949086020460E
:104A0000FFF730F9FFF706FCFFF73AFE154800689C
:104A1000E8B10F480068844219D11348006808B90A
:104A2000012000E0002050B900BF502080F3118821
:104A3000BFF34F8FBFF36F8F00BF00BFFEE74FF094
:104A400080500A490860BFF34F8FBFF36F8F70BD6E
:104A5000200000204C000020800700202C000020B7
:104A6000300000203C0000205800002004ED00E051
:104A70000349096801600349096841607047000003
:104A800048000020340000200120014908607047E0
:104A90004400002070B504460D4654B900BF5020B4
:104AA00080F31188BFF34F8FBFF36F8F00BF00BF3C
:104AB000FEE70548016818312046FFF791FD012106
:104AC0002846FEF783FF70BD2000002070B5054624
:104AD0000E46144655B900BF502080F31188BFF32D
:104AE0004F8FBFF36F8F00BF00BFFEE7064801681E
:104AF00018312846FFF78EFD0CB14FF0FF362146E6
:104B00003046FEF763FF70BD2000002010B586B070
:104B100000200590049003AA04A905A8FFF738FD1A
:104B20000022DDE904101346CDE9002102901EA108
:104B30001F48039A00F0CCFC1E4908600846006834
:104B400008B1012400E00024012C02D100F0F6FE9F
:104B50000446012C15D100BF502080F31188BFF30B
:104B60004F8FBFF36F8F00BF4FF0FF3012490860C7
:104B700001201249086000201149086000F072F815
:104B800010E0601C08B1012000E0002050B900BF17
:104B9000502080F31188BFF34F8FBFF36F8F00BF9A
:104BA00000BFFEE706B010BD49444C4500000000C0
:104BB000593D000854000020500000203C00002017
:104BC0003400002002480068401C0149086070471A
:104BD000580000201E48006818B101201D490860D7
:104BE00034E000201B4908601B4801680CE051B903
:104BF00000BF502080F31188BFF34F8FBFF36F8F3A
:104C000000BF00BFFEE7491E01EB8100134A52F8C6
:104C1000200008B9012000E000200028E7D101EBC6
:104C200081020E4B03EB820042685268426000F141
:104C300008024368934202D1426852684260426867
:104C4000D268074B1A600448016000BF704700003B
:104C5000580000204400002038000020E40200201A
:104C6000200000201CB5524800685249884201D0FB
:104C7000012000E0002050B900BF502080F31188CF
:104C8000BFF34F8FBFF36F8F00BF00BFFEE74848F1
:104C900000684849491E884201D0012000E00020F8
:104CA00050B900BF502080F31188BFF34F8FBFF37E
:104CB0006F8F00BF00BFFEE73F49084600780190B4
:104CC000FF200A4610700846007800909DF800000A
:104CD00000F0F0009DF80020904201D1012000E09A
:104CE000002050B900BF502080F31188BFF34F8FD0
:104CF000BFF36F8F00BF00BFFEE79DF8000000F01C
:104D000050002E4A107007202D4A106009E02C48F0
:104D10000068401E2A4A10609DF800004006000E00
:104D200000909DF8000000F080008028EFD024481B
:104D30000068C0F10700042801D1012000E0002034
:104D400050B900BF502080F31188BFF34F8FBFF3DD
:104D50006F8F00BF00BFFEE7194800680002184AC5
:104D600010601046008800F4E0601060124A01985C
:104D700010700F482030006840F470000C4920315A
:104D800008600846006840F070400860FFF7E8FCE3
:104D900000200C490860FBF76BFA0B48006840F0F4
:104DA000404009490860FBF74FFA00201CBD000095
:104DB00000ED00E071C20F4100E400E09800002027
:104DC0009C0000209400002034EF00E010B500BFEC
:104DD000502080F31188BFF34F8FBFF36F8F00BF58
:104DE00000F0EAFB18B14FF080500449086000BFA2
:104DF000002080F3118800BF10BD000004ED00E02A
:104E00002DE9F84305460E4617460DB1012000E096
:104E1000002050B900BF502080F31188BFF34F8F9E
:104E2000BFF36F8F00BF00BFFEE705FB06F808F178
:104E30005000FFF7DDFA044664B1A14609F15009BC
:104E4000002084F846003B464A46314628460094F6
:104E5000FEF796FF2046BDE8F8832DE9F84380462B
:104E60000E4617461D46DDF82090B8F1000F01D020
:104E7000012000E0002050B900BF502080F31188CD
:104E8000BFF34F8FBFF36F8F00BF00BFFEE70DB1C1
:104E9000012000E0002050B900BF502080F31188AD
:104EA000BFF34F8FBFF36F8F00BF00BFFEE707B1A7
:104EB0000EB1012000E0002050B900BF502080F367
:104EC0001188BFF34F8FBFF36F8F00BF00BFFEE7A6
:104ED00007B90EB9012000E0002050B900BF5020F2
:104EE00080F31188BFF34F8FBFF36F8F00BF00BFF8
:104EF000FEE7502000900098502801D1012000E0EA
:104F0000002050B900BF502080F31188BFF34F8FAD
:104F1000BFF36F8F00BF00BFFEE700BF2C464CB150
:104F2000012084F846004B463A46314640460094FC
:104F3000FEF726FF2046BDE8F883000070B5054661
:104F40000E462C4654B900BF502080F31188BFF3A1
:104F50004F8FBFF36F8F00BF00BFFEE7FFF766FB09
:104F6000D4E90F12206801FB0200A0600020A063BA
:104F700020686060E06B401E226C216800FB02111B
:104F8000E160FF2084F8440084F845009EB9206960
:104F900008B9012000E00020A8B904F1100000F0D9
:104FA000FFFB80B14FF0805009490860BFF34F8F7D
:104FB000BFF36F8F07E004F11000FFF701FB04F16E
:104FC0002400FFF7FDFAFFF75BFB012070BD000036
:104FD00004ED00E02DE9FF4383B0064688461D46F8
:104FE0004FF00009344654B900BF502080F31188B7
:104FF000BFF34F8FBFF36F8F00BF00BFFEE7B8F165
:10500000000F01D1206C08B9012000E0002050B948
:1050100000BF502080F31188BFF34F8FBFF36F8F15
:1050200000BF00BFFEE7022D02D1E06B012801D1D5
:10503000012000E0002050B900BF502080F311880B
:10504000BFF34F8FBFF36F8F00BF00BFFEE700F0CD
:105050009DFA08B9059808B9012000E0002050B970
:1050600000BF502080F31188BFF34F8FBFF36F8FC5
:1050700000BF00BFFEE700BFFFF7D8FAA06BE16BEF
:10508000884201D3022D28D12A4641462046FEF708
:10509000AAFD0746606A08B9012000E0002068B94F
:1050A00004F1240000F07CFB88B14FF080503249BD
:1050B0000860BFF34F8FBFF36F8F08E03FB14FF031
:1050C00080502D490860BFF34F8FBFF36F8FFFF7FC
:1050D000D7FA012007B0BDE8F083059818B9FFF7AB
:1050E000CFFA0020F6E7B9F1000F04D101A8FFF7CD
:1050F000BFFC4FF00109FFF7C3FAFFF763FDFFF7AD
:1051000095FA94F94400401C10B9002084F844003A
:1051100094F94500401C10B9002084F84500FFF7C1
:10512000AFFA05A901A800F05BF9F0B92046FEF737
:105130003CFFA0B104F110000599FFF7ABFC20463D
:10514000FFF717F900F078FB002895D14FF0805059
:1051500009490860BFF34F8FBFF36F8F8CE720467C
:10516000FFF707F900F068FB86E72046FFF701F933
:1051700000F062FB0020ADE704ED00E02DE9F84F00
:1051800007468A4690461E463C4654B900BF50200A
:1051900080F31188BFF34F8FBFF36F8F00BF00BF45
:1051A000FEE7BAF1000F01D1206C08B9012000E040
:1051B000002050B900BF502080F31188BFF34F8FFB
:1051C000BFF36F8F00BF00BFFEE7022E02D1E06B7E
:1051D000012801D1012000E0002050B900BF50207B
:1051E00080F31188BFF34F8FBFF36F8F00BF00BFF5
:1051F000FEE7FFF7C9FA00BF5021EFF3118081F3FA
:105200001188BFF34F8FBFF36F8F00BF0546A06BB0
:10521000E16B884201D3022E25D194F945B0A06BF1
:105220000090324651462046FEF7DDFC0BF10100AE
:1052300088B9606A08B9012000E0002050B904F183
:10524000240000F0ADFA28B1B8F1000F02D001201F
:10525000C8F8000004E00BF1010040B284F84500FA
:105260004FF0010901E04FF0000900BF85F31188FC
:1052700000BF4846BDE8F88F2DE9F74183B00546E9
:105280000E464FF000082C4654B900BF502080F362
:105290001188BFF34F8FBFF36F8F00BF00BFFEE7D2
:1052A0000EB9206C08B9012000E0002050B900BF01
:1052B000502080F31188BFF34F8FBFF36F8F00BF73
:1052C00000BFFEE700F062F908B9059808B90120AF
:1052D00000E0002050B900BF502080F31188BFF3D8
:1052E0004F8FBFF36F8F00BF00BFFEE700BFFFF718
:1052F0009DF9A76BF7B131462046FEF75FFC781E9B
:10530000A063206908B9012000E0002060B904F121
:10531000100000F045FA38B14FF080502F49086076
:10532000BFF34F8FBFF36F8FFFF7AAF9012006B0CD
:10533000BDE8F081059818B9FFF7A2F90020F6E75B
:10534000B8F1000F04D101A8FFF792FB4FF001085C
:10535000FFF796F9FFF736FCFFF768F994F9440078
:10536000401C10B9002084F8440094F94500401C0A
:1053700010B9002084F84500FFF782F905A901A8BB
:1053800000F02EF8F0B92046FEF702FEA0B104F1BD
:1053900024000599FFF77EFB2046FEF7EAFF00F0A8
:1053A0004BFA0028A3D14FF080500C490860BFF39E
:1053B0004F8FBFF36F8F9AE72046FEF7DAFF00F0BA
:1053C0003BFA94E72046FEF7D4FF00F035FA20467A
:1053D000FEF7DEFD00288AD00020A8E704ED00E0FB
:1053E00070B505460C4655B900BF502080F31188B2
:1053F000BFF34F8FBFF36F8F00BF00BFFEE754B9FD
:1054000000BF502080F31188BFF34F8FBFF36F8F21
:1054100000BF00BFFEE7FFF709F91248026868689D
:10542000131A2068401C08B9002617E00E492868A6
:105430000968884204D06868904201D801260DE0CE
:105440002068984207D92068C01A20602846FFF7D4
:105450000FFB002602E0002020600126FFF710F974
:10546000304670BD34000020480000202DE9FF4F79
:1054700085B0804689461746DDE912ABB800FEF7D5
:10548000B7FF064656B15C20FEF7B2FF04460CB1EA
:10549000266304E03046FFF711F900E000248CB1E8
:1054A000002084F85900CDE900ABCDE902403A462E
:1054B00049464046089BFEF778FC2046FEF7C4FAB2
:1054C000012501E04FF0FF35284609B0BDE8F08F17
:1054D0002DE9F04F85B00746884691469A46DDE9AA
:1054E0000EB6109C0EB1012000E0002050B900BFA4
:1054F000502080F31188BFF34F8FBFF36F8F00BF31
:1055000000BFFEE70CB1012000E0002050B900BF51
:10551000502080F31188BFF34F8FBFF36F8F00BF10
:1055200000BFFEE75C20039003985C2801D10120B6
:1055300000E0002050B900BF502080F31188BFF375
:105540004F8FBFF36F8F00BF00BFFEE700BFB4B146
:10555000AEB125462C462E63022085F85900002066
:1055600004A953464A46CDE900B1CDE9025041466F
:105570003846FEF71AFC2846FEF766FA01E00020DE
:105580000490049805B0BDE8F08F00000549096853
:1055900009B9012005E00449096809B9022000E0C1
:1055A000002070473C000020580000200149086896
:1055B00070470000340000202DE9F0414FF0000852
:1055C0004348006800287BD142480068451C414898
:1055D000056015BB40480068006808B9012000E07C
:1055E000002050B900BF502080F31188BFF34F8FC7
:1055F000BFF36F8F00BF00BFFEE73748076837482B
:105600000068354908603548076035480068401C27
:1056100033490860FEF7FEFD00BF3248006885424E
:105620003BD300BF2C480068006808B9012000E0A7
:10563000002020B14FF0FF302A4908602CE02648B6
:105640000068C068C4686668B54202D22548066032
:1056500022E0201DFEF788FFA06A18B104F11800AF
:10566000FEF782FF2049E06A0968884202D91E4994
:10567000E06A0860E16A01EB81011C4A02EB8100EB
:10568000211DFEF7C7FF1A49E06A0968C96A884206
:10569000C8D34FF00108C5E700BF15480068C06ACD
:1056A00000EB8000114951F82000012801D94FF08A
:1056B00001081048006808B14FF0010805E0FFE755
:1056C0000D480068401C0C4908604046BDE8F08168
:1056D0005800002034000020240000202800002072
:1056E000480000205000002038000020E402002084
:1056F00020000020440000204000002070B5054636
:105700002C460026002D43D022480068844201D157
:10571000012000E0002050B900BF502080F3118824
:10572000BFF34F8FBFF36F8F00BF00BFFEE7206D49
:1057300050B900BF502080F31188BFF34F8FBFF3E3
:105740006F8F00BF00BFFEE7206D401E2065E16C3B
:10575000E06A88421CD0206DD0B9201DFEF704FFFE
:10576000E06CE062E06AC0F13800A0610A49E06ADA
:105770000968884202D90849E06A0860E16A01EBD9
:105780008101064A02EB8100211DFEF743FF01263D
:10579000304670BD2000002038000020E4020020C8
:1057A00070B50646F068C46854B900BF502080F355
:1057B0001188BFF34F8FBFF36F8F00BF00BFFEE7AD
:1057C00004F11800FEF7D0FE15480068A0B9201DAE
:1057D000FEF7CAFE1349E06A0968884202D91149F6
:1057E000E06A0860E16A01EB81010F4A02EB810087
:1057F000211DFEF70FFF04E004F118010B48FEF72E
:1058000009FF0B49E06A0968C96A884204D9012581
:1058100001200849086000E00025284670BD00000E
:105820005800002038000020E40200206C0700200F
:10583000200000204400002070B5002400263648D7
:10584000006850B900BF502080F31188BFF34F8F1C
:10585000BFF36F8F00BF00BFFEE7FEF7E7FE2E48E5
:105860000068401E2C4908600846006800284ED198
:105870002A48006800284AD023E02948C068C46844
:1058800004F11800FEF770FE201DFEF76DFE25499D
:10589000E06A0968884202D92249E06A0860E16A40
:1058A00001EB8101204A02EB8100211DFEF7B2FECF
:1058B0001E49E06A0968C96A884202D301201C496E
:1058C00008601748006808B9012000E0002000289F
:1058D000D3D00CB1FEF79EFC1648056865B100BF39
:1058E000FFF76AFE10B10120114908606D1E002DFE
:1058F000F6D100200F4908600D48006838B1012634
:1059000030070D490860BFF34F8FBFF36F8FFEF76D
:10591000B7FE304670BD0000580000203000002067
:105920006C07002038000020E40200202000002046
:10593000440000204000002004ED00E010B586B0D7
:105940000024FEF7DDF816480068D0B1002005906D
:10595000049003AA04A905A8FEF726FE0222DDE9A9
:1059600004100023CDE9002102900EA10F48039AF4
:10597000FFF7AEFD0E4908600846006800B101243B
:1059800000BF54B900BF502080F31188BFF34F8F80
:10599000BFF36F8F00BF00BFFEE7204606B010BD0B
:1059A00064000020546D7220537663005943000850
:1059B000680000202DE9FF4704460D4616461F46A5
:1059C000DDF830804FF0000954B900BF502080F35B
:1059D0001188BFF34F8FBFF36F8F00BF00BFFEE78B
:1059E0001448006810B3009501960294062D15DA4C
:1059F000FFF7CCFD022808D10023424669460D4836
:105A00000068FFF7E7FA814610E000231A4669466E
:105A100008480068FFF7DEFA814607E000233A46AF
:105A2000694604480068FFF7A9FB8146484604B070
:105A3000BDE8F087640000204FF04070E1EE100AEE
:105A400070470000DC5A0008000000000000000061
:105A5000000000000000000000020000180000002C
:105A60000000000000000000D05A00080000000004
:105A70000000000000000000000000000002000024
:105A8000080000000000000000000000C45A0008E8
:105A90000000000000000000000000000000000006
:105AA000000000000006101600061016000000009E
:105AB00000000000010203040607080900000000BE
:105AC000010203046D795175657565303100000080
:105AD0006D795461736B303100000000646566615C
