:020000040800F2
:100000003822002021020008A32B0008BF2200088C
:10001000A12B000817060008213700080000000087
:10002000000000000000000000000000890100083E
:100030005B06000800000000CD0100082530000824
:100040003B0200083B0200083B0200083B0200089C
:100050003B0200083B0200083B0200083B0200088C
:100060003B0200083B0200083B0200083B0200087C
:100070003B0200083B02000819060008250600089C
:100080003B0200083B0200083B0200083B0200085C
:100090003B0200083B0200083B0200083B0200084C
:1000A0003B0200083B0200083B0200083B0200083C
:1000B0003B0200083B020008B13000083B02000888
:1000C0003B0200083B0200083B0200083B0200081C
:1000D0003B020008153700083B0200083B020008FD
:1000E0003B0200083B0200083B02000800F002F857
:1000F00000F03AF80AA090E8000C82448344AAF188
:100100000107DA4501D100F02FF8AFF2090EBAE885
:100110000F0013F0010F18BFFB1A43F0010318473B
:100120004C9B00006C9B0000103A24BF78C878C13B
:10013000FAD8520724BF30C830C144BF04680C60ED
:10014000704700000023002400250026103A28BF35
:1001500078C1FBD8520728BF30C148BF0B60704739
:100160001FB51FBD10B510BD00F020FA1146FFF7F6
:10017000F7FF04F05DFE00F03EFA03B4FFF7F2FF74
:1001800003BC00F041FA0000224B19680868B0E88F
:10019000F00F80F30988BFF36F8F4FF0000080F3FA
:1001A00011884EF00D0E70470000000006480068F0
:1001B000006880F3088862B661B6BFF34F8FBFF363
:1001C0006F8F00DF00BF00BF08ED00E0EFF3098094
:1001D000BFF36F8F0F4B1A6820E9F00F106008B55E
:1001E0004FF0500080F31188BFF34F8FBFF36F8F34
:1001F00006F058FD4FF0000080F31188BDE808407C
:1002000019680868B0E8F00F80F30988BFF36F8FB2
:10021000704700BF28000020EFF305807047000002
:100220000948804709480047FEE7FEE7FEE7FEE78A
:10023000FEE7FEE7FEE7FEE7FEE7FEE704480549C6
:10024000054A064B70470000AF300008ED0000087B
:10025000381C002038220020381E0020381E0020C4
:1002600010B54C1084EA530404D54042C1F100019A
:1002700038BF491E1B4204D55242C3F1000338BFA8
:100280005B1E00F0B4F814F0804F04D04042C1F17E
:10029000000138BF491E14F0004F04D05242C3F190
:1002A000000338BF5B1E10BD40EA010310B59B0779
:1002B0000FD1042A0DD310C808C9121F9C42F8D0D0
:1002C00020BA19BA884201D9012010BD4FF0FF3081
:1002D00010BD1AB1D30703D0521C07E0002010BD97
:1002E00010F8013B11F8014B1B1B07D110F8013B23
:1002F00011F8014B1B1B01D1921EF1D1184610BD04
:10030000032A40F2308010F0030C00F0158011F841
:10031000013BBCF1020F624498BF11F801CB00F819
:10032000013B38BF11F8013BA2F1040298BF00F86D
:1003300001CB38BF00F8013B11F0030300F0D98076
:10034000083AC0F0088051F8043B083A51F804CB51
:10035000A0E80810F5E7121D5CBF51F8043B40F817
:10036000043BAFF30080D20724BF11F8013B11F822
:1003700001CB48BF11F8012B24BF00F8013B00F866
:1003800001CB48BF00F8012B704702F0FF0343EA9E
:10039000032242EA024200F0E0B84FF0000200B54A
:1003A000134694469646203922BFA0E80C50A0E898
:1003B0000C50B1F12001BFF4F7AF090728BFA0E846
:1003C0000C5048BF0CC05DF804EB890028BF40F812
:1003D000042B08BF704748BF20F8022B11F0804F54
:1003E00018BF00F8012B704770477047704753EAF9
:1003F000020C00F069802DE9F04B4FF00006002B55
:100400001FBFB3FA83F503FA05F424FA05F65E403C
:1004100012BF1643B2FA82F502FA05F4C5F12005BF
:100420001EBF22FA05FC44EA0C04203556EA044CAF
:100430004FEA144418BF641C4FF000084FF0000945
:10044000904271EB030C39D3002919BFB1FA81F73F
:1004500001FA07F6B0FA80F700FA07F6C7F12007AD
:100460001EBF20FA07FC46EA0C062037B6FBF4FC58
:10047000A7EB0507103F07F01F0BCBF120060CFA86
:100480000BFB2CFA06F644BFB3460026202FA4BF70
:100490005E464FF0000B5BEA060C08BF4FF0010B05
:1004A00019EB0B09ABFB027C48EB0608C01B06FBF3
:1004B00002CC0BFB03CC71EB0C01C1E70B460246EF
:1004C00041464846BDE8F08B13B54FF000004FF0B1
:1004D0000001AFF30080BDE81C40704710B500F08C
:1004E0005DF8006810BD10B5044600F057F80460D0
:1004F00010BD10B5203AC0F00B80B1E81850203A7A
:10050000A0E81850B1E81850A0E81850BFF4F5AFB3
:100510005FEA027C24BFB1E81850A0E8185044BF3D
:1005200018C918C0BDE810405FEA827C24BF51F8AA
:10053000043B40F8043B08BF7047D20728BF31F89E
:10054000023B48BF11F8012B28BF20F8023B48BFEF
:1005500000F8012B70474FF000020429C0F0128010
:1005600010F0030C3FF41BAFCCF1040CBCF1020FF4
:1005700018BF00F8012BA8BF20F8022BA1EB0C013B
:10058000FFF70DBF5FEAC17C24BF00F8012B00F824
:10059000012B48BF00F8012B70470000004870474E
:1005A000D41B002000487047D41B00207546FFF77D
:1005B000F9FFAE4605006946534620F00700854620
:1005C00018B020B5FFF73AFEBDE820404FF0000616
:1005D0004FF000074FF000084FF0000B21F007012B
:1005E000AC46ACE8C009ACE8C009ACE8C009ACE86E
:1005F000C0098D46704710B50446AFF30080204611
:10060000BDE81040FFF7B9BD01491820ABBEFEE7B9
:10061000260002007047FEE7014800F091B8000094
:1006200064020020014800F08BB800002002002086
:1006300030B590F840500124AC40C56B6C60046844
:1006400063604368102B036803D099600068C26040
:1006500030BD9A600068C16030BD704772B6FEE779
:1006600010B590F821100022022905D004218163E1
:1006700080F82020012010BD01680B6823F00E03D4
:100680000B6001680B6823F001030B6090F84030A9
:10069000C46B012101FA03F3636080F8211080F834
:1006A0002020104610BD000010B590F82110002445
:1006B000022903D00421816301243DE001680A6816
:1006C00022F00E020A6001680A6822F001020A6044
:1006D0001A4A0168914201D1012121E0174A1432DE
:1006E000914201D110211BE0144A2832914201D1DC
:1006F000891515E0114A3C32914201D189140FE06D
:100700000E4A5032914202D14FF4803108E00B4A38
:100710006432914202D14FF4801101E04FF08071B8
:10072000064A083A5160012180F82110002180F822
:100730002010416B01B18847204610BD08000240DF
:100740002DE9F05FC16B0C6801680B68D0F840C000
:10075000042202FA0CF2494DDFF824A1494E4A4F17
:10076000DFF828B1DFF828E122422CD05A072AD539
:100770000A68920603D40A6822F004020A6001683B
:10078000A94201D1042219E0514501D1402215E0CE
:10079000B14202D14FF4806210E0B94202D14FF46D
:1007A00080420BE0594502D14FF4802206E07145AA
:1007B00002D14FF4800201E04FF080622F490839E6
:1007C0004A60C16A3BE04FF0020808FA0CF818EAE8
:1007D000040F4FF000094FF0010235D05FEA837833
:1007E00032D50B689B0605D40B6823F00A030B6017
:1007F00080F821200168A94201D1022219E0514567
:1008000001D1202215E0B14202D14FF4007210E074
:10081000B94202D14FF400520BE0594502D14FF4D6
:10082000003206E0714502D14FF4001201E04FF0B2
:100830000072124908394A6080F82090816A0029C4
:100840001AD0BDE8F05F0847082505FA0CF52542E7
:1008500012D01B0710D50B6823F00E030B6090F825
:100860004010C36B02FA01F15960826380F82120C5
:1008700080F82090016BE2E7BDE8F09F080002409D
:100880001C00024030000240440002405800024078
:100890006C00024030B528B308C81349142219442B
:1008A000B1FBF2F18900C1631049816302214177F4
:1008B0001A6843F6F0718A43D0E900142143D0E965
:1008C00002452C432143046921434469214384693F
:1008D00021431143196000214163012242770177CE
:1008E000084630BD012030BDF8FFFDBF00000240CA
:1008F00070B5044690F82000002501280CD0012096
:1009000084F8200094F821600020012E06D084F89D
:1009100020000225284670BD022070BD022684F802
:100920002160A0632068066826F001060660204664
:10093000FFF77EFEE06A00282068016802D041F0DF
:100940000E0106E021F0040101602068016841F019
:100950000A0101602068016841F001010160D9E7E6
:1009600070B5044600F004F90546601C02D0044846
:100970000078044400F0FCF8401BA042FAD370BD9C
:10098000180000202DE9F84FDFF8B8910024A9F1F4
:10099000040B23460F2709F1040AABF1040EC9E04A
:1009A0000125A5402A40AA427DD1674ED1F804C056
:1009B000ACEB0608B44532D014DCBCF1030F3AD0DE
:1009C00009DCBCF1000F2AD0BCF1010F1CD0BCF136
:1009D000020F31D11DE0BCF1110F17D0BCF1120F85
:1009E0002AD119E0B8F5881F19D006DCB8F5803F88
:1009F00015D0B8F5801F1FD111E0B8F5001F0ED03B
:100A0000B8F5041F18D10AE0CB6815E0CB681B1DB0
:100A100012E0CB6808330FE0CB680C330CE08B6836
:100A20002BB1012B4FF0080303D0456104E00423F0
:100A300002E0056100E00023FF2A01D8064601E03C
:100A400000F104064FEA840501D9A5F12005D6F886
:100A5000008007FA05FC28EA0C0803FA05F548EAC5
:100A60000508C6F800804D68ED0062D5374DAE69C7
:100A700046F00106AE61AD6924F0030605F00105FC
:100A80000095334D06EB050CDCF80850A607360F31
:100A900007FA06F825EA0805DFF8B880404503D1D3
:100AA0004FF0000817E044E0DFF8AC80404502D189
:100AB0004FF001080FE0DFF8A480404502D14FF06D
:100AC000020808E0DFF89880404502D14FF00308A3
:100AD00001E04FF0040808FA06F848EA0508CCF8E7
:100AE00008804D68D9F80060ED024D4601D51643E7
:100AF00000E096432E604D68DAF80060AD0255467E
:100B000001D5164300E096432E604D68DBF8006087
:100B1000AD035D4601D5164300E096432E604D6857
:100B2000DEF80060ED03754601D5164300E09643FC
:100B30002E60641C0D682A46E5407FF431AFBDE8A5
:100B4000F88F00000804014000001110001002405E
:100B50000000014000080140000C0140001001406D
:100B6000001401400AB1016170470904FBE700006D
:100B700001488068704700001800002070B504002C
:100B800025D094F83D00002520B984F83C5020463B
:100B900000F078FA242084F83D002068016821F0F4
:100BA000010101602068016841F400410160206892
:100BB000016821F40041016000F014FC4D4A6168B5
:100BC000914201D84C4900E04C49884201D20120B1
:100BD00070BD4B492368B0FBF1F15E6826F03F061B
:100BE0000E435E606368934206D94FF4967359438F
:100BF0004FF47A73B1FBF3F12368491C1E6A26F0A7
:100C00003F06314319626168914210D84900401E85
:100C1000B0FBF1F2521CC2F30B02042A01D20420F1
:100C200022E0B0FBF1F0401CC0F30B001CE0A26816
:100C3000F2B301EBC10303EB0116431EB3FBF6F362
:100C40005B1C43F480431B0549D092B301EBC10206
:100C500002EB0111401EB0FBF1F0401CC0F30B0091
:100C600040F4804040F400402168CA694CF6FF73AC
:100C70009A431043C861D4E9071001432068026811
:100C800022F0C00211430160D4E90301014320684E
:100C9000826848F2FF339A4311438160D4E9050129
:100CA00008432168CA6822F0FF021043C86001E0CF
:100CB0000EE016E02068016841F001010160256442
:100CC000202084F83D00256384F83E50002070BD4C
:100CD00001EB4106431EB3FBF6F35B1CB3E70120B7
:100CE000C2E701EB4101401EB0FBF1F0401CC0F334
:100CF0000B00B7E7A086010080841E0000093D00BC
:100D000040420F002DE9FF4F83B00025DDE9107947
:100D10009A4693460446DDF848800095FFF728FF81
:100D2000064694F83D0020287CD1192301228549EC
:100D30002046009601F0DAFB0028F5D194F83C003B
:100D400001286FD0012084F83C0020680168C907A1
:100D500003D1016841F0010101602068016821F4BC
:100D600000610160222084F83D00402084F83E00AC
:100D700025646762A4F82A90608D20857248E0623D
:100D8000CDE9008653465A462046049901F0B0FA50
:100D900000287DD1208DDFF8B491202768B101288B
:100DA00014D00228206801681ED041F480610160DF
:100DB0002068416980690090B6E0206841698169D6
:100DC0000091016841F400710160ADE020680168A4
:100DD00021F48061016072B62068416981690091E7
:100DE000016841F400710AE041F40061016072B6EB
:100DF0002068416981690091016821F48061016086
:100E000062B691E0032868D801280CD00228434636
:100E10004FF000024946204600960FD001F066FBD5
:100E2000B0BB10E08BE032464146204601F004FCA6
:100E300070BB20680069616A08706CE001F056FBC5
:100E400030BB72B634E02068016821F48061016033
:100E500072B620680069616A0870606A401C60624E
:100E6000208D401E2085608D401E6085384846F2EA
:100E7000A8110068B0FBF1F0C0EBC00000EB8000EF
:100E80000090401E009008D020684069C04300E0F8
:100E900029E040070CD50098F3E744F8305F67730A
:100EA000A573206940F02000206162B625731AE026
:100EB0002068016841F40071016020680069616A7E
:100EC0000870606A401C6062218D491E2185618D19
:100ED000491E618562B621681BE0324641462046C4
:100EE00001F0AAFB18B1012007B0BDE8F08F20681F
:100EF0000069616A0870606A401C6062218D491E49
:100F00002185618D491E618521684A69D243520756
:100F10000AD409690170606A401C6062208D401E1D
:100F20002085608D401E6085208D00287FF46AAF8B
:100F300084F83D7084F83E5084F83C50D4E7022099
:100F4000D2E70000020010000000FFFF04000100D3
:100F5000240000202DE9FF4F83B09A46DDE9119768
:100F600093460446DDF84080FFF702FE054694F8FC
:100F70003D0020287FD119230122404920460095B9
:100F800001F0B4FA002876D194F83C00012872D020
:100F9000012084F83C0020680168C90703D101687A
:100FA00041F0010101602068016821F400610160E5
:100FB000212084F83D00402084F83E00002626646D
:100FC000C4F82480A4F82A90608D20852C48E06223
:100FD000CDE9007553465A462046049901F006FAB9
:100FE00070B930E02A463946204601F05DFB58B121
:100FF000206C042804D12068016841F4007101606C
:10100000012007B0BDE8F08F606A216800780861B0
:10101000606A401C6062218D491E89B22185628D03
:10102000521E628522685369DB435B070BD469B1AA
:1010300000781061606A401C6062208D401E20852F
:10104000608D401E6085208D0028CBD12A46394610
:10105000204601F01FFA0028CAD154F83D0B016860
:1010600041F400710160202004F81E09E6776677DC
:101070000020C6E7FFE70220C3E7000002001000DF
:101080000000FFFF10B586B0002100910191029190
:1010900003910068104988421BD1104CA06940F0B0
:1010A0000800A061A069694600F0080004904FF4B0
:1010B0004060009012200190032003900848FFF741
:1010C00061FCE06940F48000E061E06900F48000C8
:1010D000049006B010BD000000580040001002400F
:1010E000000C014002488168027811448160704719
:1010F00018000020074810B5016841F01001016098
:10110000032000F0A7F80F2000F006F800F050F8D8
:10111000002010BD0020024030B505461F4887B0B2
:10112000C16941F00401C161C06906A900F0040071
:10113000009001A800F036F90498B0B100F052F91F
:1011400040001749174AB0FBF1F11748491E0260E9
:10115000416040F2E7320021C0E9032181608161F2
:1011600000F04CFB040003D015E000F03BF9E8E789
:101170000D4800F083FB04000DD11E2000F03CF868
:10118000102D07D2002229461E2000F043F8074800
:10119000056000E0012407B0204630BD0010024089
:1011A00040420F0000080040A80200201C00002060
:1011B0000F4808B5816941F001018161816901F041
:1011C00001010091C16941F08051C161C0690022F3
:1011D00000F0805000900F21901E00F01BF8054891
:1011E000416821F0E06141F00071416008BD0000FC
:1011F0000010024000000140002809DB00F01F023F
:10120000012191404009800000F1E020C0F8001168
:1012100070470000F0B40E4B1B680C46C3F302236A
:10122000C3F10705042D00D90425191D072901D292
:10123000002300E0DB1E012606FA05F1491E2140CD
:1012400099409E40761E16403143F0BC02F07DBAB4
:101250000CED00E0064900F0070208684FF6FF03B6
:10126000184040EA0220034A10430860704700001B
:101270000CED00E00000FA052DE9F0470F460500EF
:1012800061D0434E306800F00700B84209D23068A0
:1012900020F0070038433060306800F00700B842A3
:1012A00051D128683B4C810712D5400703D56068AF
:1012B00040F4E06060602878000703D5606840F47F
:1012C000605060606068A96820F0F00008436060CA
:1012D0002878C00728D06868012810D02168022823
:1012E00010D0890700292EDA616821F0030101433B
:1012F0006160FFF73DFC804641F288390DE02168CE
:101300008903EFE78901EDE7FFF732FCA0EB080165
:10131000494502D90320BDE8F0876068696800F09C
:101320000C00B0EB810FEFD1306800F00700B8423D
:101330000BD9306820F0070038433060306800F087
:101340000700B84201D00120E5E72878400705D51D
:101350006068E96820F4E06008436060287800076E
:1013600006D56068296920F4605040EAC1006060D9
:1013700000F058F86168084AC1F30311515CC84095
:101380000649086006480068FFF7C6FE0020C2E76D
:101390000020024000100240EA88000824000020DB
:1013A0001C0000200F2202600C4A536803F0030364
:1013B0004360536803F0F0038360536803F4E06311
:1013C000C36052684FF4E06303EAD202026104484A
:1013D000006800F00700086070470000001002403D
:1013E000002002400448054900684968044AC1F3E6
:1013F0000221515CC84070472400002000100240C8
:10140000FA8800080448054900684968044AC1F39D
:10141000C221515CC84070472400002000100240E7
:10142000FA8800080E4A51680E4801F00C03042B9C
:1014300011D0082B0FD10C48C1F38343C903C05C02
:101440000AD55168084AC1F34041921E515C054AD1
:101450005043B0FBF1F07047044948437047000027
:101460000010024000127A00DA88000800093D00EE
:101470002DE9F84F040070D02078C04DC00749D046
:101480006868C0F38100012807D06868C0F3810054
:10149000022809D16868C00306D52868800339D5B9
:1014A00060680028E7D035E06068B0F5803F0BD079
:1014B00010B1B0F5A02F11D0286820F4803028603A
:1014C000286820F4802002E0286840F480302860FA
:1014D000606890B1FFF74CFB06460AE0286840F4CC
:1014E00080202860F0E700BFFFF742FB801B6428E4
:1014F00073D828688003F7D50CE0FFF739FB064660
:1015000005E000BFFFF734FB801B6428F0D8286893
:101510008003F7D420789A4E80074FF001094FF0EE
:10152000000839D5686810F00C0F07D06868C0F360
:101530008100022809D16868C00306D428688007A2
:1015400014D52069012808D110E02069B0B1C6F88F
:101550000090FFF70DFB074605E00AE1FFF708FBE7
:10156000C01B0228C4D828688007F7D5286861699D
:1015700020F0F80040EAC10028600DE0C6F80080C5
:10158000FFF7F6FA074604E0FFF7F2FAC01B02285D
:1015900023D828688007F7D4207800072CD579480D
:1015A000A169D9B1C0F80090FFF7E2FA074604E05C
:1015B000FFF7DEFAC01B02280FD8686A8007F7D54C
:1015C00071484FF4FA510068B0FBF1F0009000BF91
:1015D0000098411E0091FAD20EE080E0C0F8008031
:1015E000FFF7C6FA074604E0FFF7C2FAC01B02285D
:1015F00075D8686A8007F7D42078400760D5E86915
:101600000027C00008D4E86940F08050E861E8692C
:10161000012700F0805000905C480168C90513D490
:101620000168834641F480710160FFF7A1FA8246A8
:1016300006E000BFFFF79CFAA0EB0A0064284ED832
:10164000DBF80000C005F5D5E06801280AD008B134
:10165000052813D0286A20F001002862286A20F0AB
:10166000040002E0286A40F001002862E06841F2CC
:10167000883B98B1FFF77CFA82460BE0286A40F07D
:1016800004002862EEE700BFFFF772FAA0EB0A0140
:1016900059455AD8286A8007F6D50CE0FFF768FA52
:1016A000824605E0FFF764FAA0EB0A0159454CD8E1
:1016B000286A8007F6D41FB1E86920F08050E861FD
:1016C000E06988B36968C1F38101022944D0022826
:1016D000C6F8608004D0FFF74BFA044638E034E0E7
:1016E000FFF746FA074604E0FFF742FAC01B02285C
:1016F0002BD828688001F7D4206AB0F5803F05D147
:101700006868A16820F4003008436860D4E90801E3
:101710000843696821F4741108436860C6F8609052
:10172000FFF726FA044606E025E000BFFFF720FA9F
:10173000001B022809D828688001F7D51BE000BFEC
:10174000FFF716FA001B022802D90320BDE8F88F24
:1017500028688001F4D40EE00128F7D06868226A76
:1017600000F48031914204D1616A00F47010884223
:1017700001D00120EAE70020E8E700000010024065
:1017800000004242800442422400002000700040D9
:101790007047704770B590F83C20012A26D001248C
:1017A00080F83C40022280F83D2003685A689D681A
:1017B00022F070060A6832435A600D4B02689A4262
:1017C00008D0B2F1804F05D00A4B9A4202D00A4BA2
:1017D0009A4204D1496825F080031943916080F84A
:1017E0003D40002180F83C10084670BD022070BDCD
:1017F000002C0140000400400008004010B5040027
:1018000003D094F83D0010B107E0012010BD002086
:1018100084F83C00204600F01FF8022084F83D00C8
:10182000211D206801F04AFC012084F8460084F85C
:101830003E0084F83F0084F8400084F8410084F8BA
:10184000420084F8430084F8440084F8450084F89A
:101850003D00002010BD000008B50068B0F1804FC9
:1018600008D10548C16941F00101C161C06900F0BA
:101870000100009008BD00000010024090F83D10EB
:10188000012901D001207047022180F83D10016834
:10189000CA6842F00102CA6000680B49884208D059
:1018A000B0F1804F05D00949884202D008498842EA
:1018B00004D1816801F00701062903D0016841F0D5
:1018C0000101016000207047002C0140000400402D
:1018D0000008004070B5044690F83C00002501283F
:1018E00017D0012684F83C60022084F83D0020686F
:1018F000826822F0770222F47F42826008685028D2
:1019000038D00DDC20284FD005DC90B3102811D141
:101910004AE0022070BD302846D040280AD13BE082
:1019200060282FD070280DD0B0F5805F03D0B0F5BF
:10193000005F12D0012584F83D60002084F83C004F
:10194000284670BDCB68D1E90121206801F0F9FB80
:101950002068816841F0770109E0CB68D1E9012175
:10196000206801F0EEFB2068816841F480418160CD
:10197000E1E719E0CA684968206801F097FC502146
:10198000206806E0CA684968206801F0A0FC602170
:10199000206801F0E0FBCEE7CA684968206801F0E2
:1019A00085FC40212068F4E7226801461046F0E7F4
:1019B000704770B50446006801694FF00005C943DF
:1019C000890715D4C168C943890711D4E91E01618B
:1019D00001202077206880698007204602D0FFF729
:1019E000E7FF04E000F0BCF8204600F04EF9257750
:1019F00020680169C943490717D4C168C943490729
:101A000013D46FF0040101610220207720688069FF
:101A100010F4407F204602D0FFF7CAFF04E000F038
:101A20009FF8204600F031F9257720680169C94305
:101A3000090716D4C168C943090712D46FF0080119
:101A40000161042020772068C0698007204602D009
:101A5000FFF7AEFF04E000F083F8204600F015F930
:101A6000257720680169C943C90617D4C168C943ED
:101A7000C90613D46FF01001016108202077206897
:101A8000C06910F4407F204602D0FFF791FF04E0C8
:101A900000F066F8204600F0F8F825772068016924
:101AA000C943C90708D1C168C943C90704D1891E00
:101AB0000161204600F038F920680169C943090630
:101AC00009D4C168C943090605D46FF080010161DA
:101AD0002046FFF75DFE20680169C943490609D425
:101AE000C168C943490605D46FF040010161204631
:101AF00000F024F920680169C94389060BD4C16844
:101B0000C943890607D46FF0200101612046BDE872
:101B10007040FFF73EBE70BD00B585B0002100915A
:101B20000191029103910068B0F1804F11D10A48F0
:101B3000816941F0040181618069694600F0040017
:101B40000490012000900220019003900348FEF7CA
:101B500019FF05B000BD0000001002400008014060
:101B6000704770B5044690F83C0000260D460128E9
:101B70000FD0012084F83C006AB1042A1DD0082A45
:101B80002FD00C2A3FD00126002084F83C0030469C
:101B900070BD022070BD206801F0E6FA20688169FE
:101BA00041F0080181612068816921F004018161AF
:101BB000206881692A69114311E0206801F0FCFA6C
:101BC0002068816941F4006181612068816921F4A4
:101BD00080618161206881692A6941EA022181610D
:101BE000D2E7206801F014FB2068C16941F00801C8
:101BF000C1612068C16921F00401C1612068C16927
:101C00002A69114311E0206801F02EFB2068C169A8
:101C100041F40061C1612068C16921F48061C16142
:101C20002068C1692A6941EA0221C161ACE710B5A7
:101C3000040003D094F83D0010B107E0012010BD6E
:101C4000002084F83C00204600F01EF8022084F8B2
:101C50003D00211D206801F031FA012084F8460082
:101C600084F83E0084F83F0084F8400084F8410086
:101C700084F8420084F8430084F8440084F8450066
:101C800084F83D00002010BD7047704710B5044631
:101C9000022249B104290ED0082913D094F841003A
:101CA000012816D0012010BD94F83E000128F9D17A
:101CB00084F83E200FE094F83F000128F2D184F828
:101CC0003F2008E094F840000128EBD184F8402040
:101CD00001E084F841200122206801F025FA0F4933
:101CE0002068884203D1426C42F40042426420687A
:101CF000884208D0B0F1804F05D00949884202D00F
:101D00000849884204D1816801F00701062903D0FF
:101D1000016841F001010160002010BD002C01406C
:101D2000000400400008004000680349884201D1D7
:101D3000FFF7D8B97047000000080040704738B579
:101D4000044690F84200202801D0022038BD61B13D
:101D50005AB10120206300206063204601F03AFC64
:101D60000028F3D1216B012901D0012038BD216861
:101D70000A684968009121680C3151E8002F42F04F
:101D8000100241E80023002BF5D138BD13B50068DF
:101D9000174988422AD1BDF80400642826D815497D
:101DA000642201F16400FFF7CAFF12494FF6FF7386
:101DB000BDF8042001F1640000F033FABDF804100E
:101DC0000D48012901D0022905D100231A4601A995
:101DD000006805F039F90748AC300068016821F067
:101DE0000401016064210348FEF7D7FA1CBD00001E
:101DF00000380140740100201000002010B5006878
:101E00000B49884212D10B49642201F16400FFF7AB
:101E100096FF0848AC300068016821F004010160B9
:101E2000BDE8104064210348FEF7B7BA10BD0000BA
:101E30000038014074010020F8B5016804460868C4
:101E4000CA684B6910F00F0F4FF0000559D003F02E
:101E5000010602F49077374365D0C10705D0D1055C
:101E600003D5616C41F001016164410705D5D907D3
:101E700003D0616C41F002016164810705D5D90787
:101E800003D0616C41F004016164010707D502F0E1
:101E90002001314303D0616C41F008016164616C41
:101EA00000293AD0800604D5900602D5204601F0DC
:101EB000D4FA20684069616CC0F38010090700D42F
:101EC00060B3204601F094FA20684069400621D5AD
:101ED0002068143050E8001F21F0400140E8001253
:101EE000002AF5D1E06BA8B16D494163E06BFEF7C4
:101EF000DBFB002811D0E06B416B01B0BDE8F04086
:101F0000084783060FD593060DD52046BDE8F84057
:101F100001F0A3BA2046FFF771FFF8BD2046FFF796
:101F20006DFF6564F8BD266B2023012E7CD1C606AB
:101F30007AD5D60678D508684868009048694FF089
:101F40000206400640D5E16B086840680004000CBA
:101F5000E8D0A28D8242E5D9E085886920282DD07D
:101F600020680C3050E8001F21F4807140E8001216
:101F7000002AF5D12068143050E8001F21F001013B
:101F800040E80012002AF5D12068143050E8001F04
:101F900021F0400140E80012002AF5D184F84230D7
:101FA000256320680C3050E8001F21F0100140E844
:101FB0000012002AF5D1E06BFEF752FB6663A08D9C
:101FC000E18D401A81B22AE0A08DE18D401A81B2E4
:101FD000E08D0028A6D00029A4D022680C3252E857
:101FE000000F20F4907042E80007002FF5D1206820
:101FF000143050E8002F22F0010240E80027002FA3
:10200000F5D184F84230256320680C3050E8002F69
:1020100022F0100240E80023002BF5D16663204631
:10202000FFF7B4FEF8BDFFE705062BD5150629D549
:1020300094F841002128F5D1A068B0F5805F01D166
:102040002069B0B1206A411C216221680078486093
:10205000E08C401E0004000CE084E3D12068C168DD
:1020600021F08001C1602068C16841F04001C16079
:10207000D8E7206A0088C0F308004860206A801C06
:102080002062E5E74006CDD55006CBD5CA6820468C
:1020900022F04002CA6084F8413000F00FF9C1E735
:1020A000F332000870B5040004D094F84100002514
:1020B00010B106E0012070BD84F84050204600F0C9
:1020C00023F8242084F841002068C16821F40051DD
:1020D000C160204601F022FA2068016921F4904194
:1020E00001612068416921F02A0141612068C168CD
:1020F00041F40051C1606564202084F8410084F8F7
:1021000042006563002070BDF0B585B0002406462E
:10211000009401940294039400682D49884255D19B
:102120002C48816941F480418161816901F48041D9
:102130000491816941F0040181618069264D00F0BC
:10214000040004904FF400700090022001900320DE
:10215000039069462846FEF715FC2815CDE90004D2
:10216000694628460294FEF70DFC1D4D1B4880274A
:10217000C5E90004C5E902472C61B8016C61C5E9F5
:1021800006402846FEF786FB08B1FEF767FAF563BE
:102190006E62134D11484435143801C5102091C5A5
:1021A0000F4845F8104944306C61AC61EC61FEF7B2
:1021B00071FB08B1FEF752FAB56300220521252014
:1021C0006E62FFF727F82520FFF716F805B0F0BD7F
:1021D0000038014000100240000801405800024051
:1021E0002002002090F84230202B01D002207047BE
:1021F00021B11AB10023036301F034BA0120704702
:102200000549884207D10549012002460870491C4A
:102210000148FFF7E7BF7047D801002014000020F5
:1022200070472DE9F843044690F841001F461646D2
:102230000D46202802D00220BDE8F8837DB176B19A
:1022400000206064212084F84100FEF791FCA68400
:102250008046E684A068B0F5805F02D003E00120EC
:10226000EAE7206910B12E4600250EE000260CE0BA
:102270008021204601F011FAA0B9AEB116F8010B89
:1022800021684860E08C401EE084E08C43464FF0BB
:10229000000200970028EBD14FF04001204601F0EA
:1022A000FCF930B10320C7E735F8020BC0F3080092
:1022B000E6E7202084F841000020BDE77047FEE7F4
:1022C00001684A69D24352050FD46FF480624A61B3
:1022D000002140F8301F202242738173026942F0CE
:1022E0000402026101730120704700207047000062
:1022F0002DE9F84F0446006889460B9D0168984611
:10230000174641F4806101602068016841F48071E2
:10231000016000954FF0011B0022594620460A9BA0
:1023200000F0E4F84FF4007A40B120680068C0057E
:1023300001D5C4F840A00320BDE8F88F216809F05A
:10234000FE0008612B46284920460A9A00F016F93B
:10235000F0BB20684169806900902A4620460A99AE
:1023600000F0A2F940B1206C04283AD1206801683D
:1023700041F40071016034E0FEB2B8F1010F09D000
:102380002168380A08612A4620460A9900F08CF92B
:102390000028E8D1206806612A4620460A9900F004
:1023A00083F90028DFD12068016841F48071016061
:1023B00000950022594620460A9B00F097F8002815
:1023C000B3D1216809F0FF0040F00100086100E08E
:1023D00007E02B46044920460A9A00F0CFF800286F
:1023E000AAD00120A8E70000020001002DE9F8436F
:1023F000044600680D46DDE90897016898461646D0
:1024000041F4807101604B4600224FF001112046DB
:10241000009700F06BF848B120680068C00502D54D
:102420004FF4007020640320BDE8F883216805F0B4
:10243000FE0008613B464A461549204600F09EF8DA
:1024400088B920684169806900903A46494620462B
:1024500000F02AF948B1206C042804D120680168F2
:1024600041F4007101600120DEE7F5B2B8F1010F1F
:1024700009D02168300A08613A464946204600F0F2
:1024800013F90028E7D1206805610020CCE700009F
:102490000200010070B516460D4604461EE02046B7
:1024A000FFF70EFF08B1012070BD681C16D0FEF7C3
:1024B0005FFB801BA84200D885B920684069C043F3
:1024C00040070BD5002044F8300F20216173A07322
:1024D000216941F0200121612073E4E7206840690F
:1024E000C0434007DBD4002070BD00002DE9F04759
:1024F000984617460D460446C1F30746DDF820907E
:102500002AE000BFB8F1FF3F26D0FEF731FBA0EB79
:102510000901414502D8B8F1000F1DD12068012EF4
:1025200016D0806925EA00000004000C12D00020BB
:10253000B84211D1002044F8300F20216173A073FC
:10254000216941F02001216120730120BDE8F0875D
:102550004069E7E70120EBE72068012E0AD0806997
:1025600025EA00000004000C06D00020B842C9D0C3
:102570000020EBE74069F3E70120F7E72DE9F0479A
:10258000984616460D4604464FF000094FF0200AC3
:10259000C1F3074723E020684069C043400515D4D4
:1025A0002068016841F40071016021686FF4806067
:1025B0004861C4F8309084F83DA084F83E90216CC6
:1025C00041F00401216484F83C9021E0701C06D0A5
:1025D000FEF7CEFAA0EB0800B04203D816B1012FE7
:1025E0001FD021E02068012F15D0806925EA000066
:1025F0000004000C18D000BF44F8309F84F80DA0F0
:1026000084F80E90216941F02001216184F80C903A
:102610000120BDE8F087406925EA00000004000CB5
:10262000EAD12068406901E02068806925EA00005D
:102630000004000CAFD1ECE72DE9F04100259046F5
:102640000E460446202728E04069C043C0060CD44B
:1026500054F8301B6FF01000486144F81059677748
:10266000A577206A2062257714E0FEF781FAA0EBB7
:102670000800B04200D886B920684069C0434006CF
:102680000BD544F8305F6773A573206940F02000D4
:10269000206125730120BDE8F08120684169C943AC
:1026A0004906D1D40020F6E770B516460D4604461B
:1026B0001EE02046FFF704FE08B1012070BD681C33
:1026C00016D0FEF755FA801BA84200D885B92068BD
:1026D0004069C04300060BD5002044F8300F20218C
:1026E0006173A073216941F0200121612073E4E747
:1026F00020684069C0430006DBD4002070BD0000A4
:102700002DE9FF4F8DB00CA906A8CDE900010BAB58
:1027100007AA04A902A801F029FD20B14FF0FF305B
:1027200011B0BDE8F08FBDF81800C0057ED5079840
:1027300005F072FE6FF01D04214606F03AF882465D
:10274000089805F069FE214606F033F8814609989D
:1027500005F062FE214606F02CF880460A9805F046
:102760005BFE214606F025F805460121504606F09D
:1027700020F80646414605F07BFE04464FF04041F6
:10278000484605F075FE0746294605F071FE2146CC
:1027900005F0DCFC05F0AEFC01F090F84FF0663B74
:1027A0005A464A4B05F0CCF904F090FF0D990860A9
:1027B0000121404605F0FDFF4146009005F058FE1E
:1027C00004463846494605F053FE214605F01CFFF5
:1027D0004FF07E5105F0BAFC05F08CFC07460C4624
:1027E0003046494605F044FE06462946009805F065
:1027F0003FFE314605F0AAFC05F07CFC3A46234634
:1028000001F0A4FA5A46314B05F09AF904F05EFF44
:102810000E9908602946084605F02AFE07464146FB
:10282000084605F025FE0646494600E04BE008460E
:1028300005F01EFE04465146084605F019FE2146E5
:1028400005F084FC314605F0DFFE394605F0DCFE7C
:1028500005F050FC06460C462946504605F008FE99
:1028600005464146484605F003FE294605F06EFC44
:10287000012105F09EFF05F03DFC3246234601F0A4
:1028800065FA5A46114B05F05BF904F01FFF0F99EA
:1028900008601098BDF8081001801A98BDF80A1059
:1028A00001801B98BDF80C1001801C98BDF8101019
:1028B00001801D98BDF8121001801E98BDF81410FB
:1028C000018000202CE76FF0010029E766A64C404C
:1028D00038B5684602F098FB10B14FF0FF3038BDB4
:1028E000782003F03DF910B16FF0010038BD782079
:1028F00002F0BCFA10B16FF0020038BD642003F0A2
:10290000E3F810B16FF0030038BD01F025FC10B101
:102910006FF0040038BD1948044602F065FA054618
:10292000E01C02F061FA45EAC005A01D02F05CFA65
:1029300045EA801080B201F0C1FD10B16FF00500D2
:1029400038BD40F2731001F0DFFA10B16FF00600ED
:1029500038BD642001F01AFD10B16FF0070038BDDA
:1029600003F090FE10B16FF0080038BD012002F0B6
:10297000A5FF0028F9D06FF0090038BDCC00002079
:102980000D4808B5416941F00101416140690022EB
:1029900000F00100009005210E20FEF73BFC0E2008
:1029A000FEF72AFC002205210F20FEF733FCBDE8CC
:1029B00008400F20FEF720BC0010024010B5124A5C
:1029C0000221102003F0B2F9104C0F4A00212061BF
:1029D000903A0F4803F0E4F90B4A20606C3A00216A
:1029E0000C4803F0DDF9084A6060483A00210A48C3
:1029F00003F0D6F9044AA060243A0021074803F006
:102A0000CFF9E06010BD0000C08800080000002081
:102A1000752E00087D2E0008B12E00083D2F0008FD
:102A200070B586B000241848009401940294039471
:102A3000816941F020018161816901F020010491E7
:102A4000816941F004018161816901F0040104910F
:102A5000816941F00801816180690C4E00F0080035
:102A60004FF440750490002229463046FEF77AF86C
:102A700011200095CDE901040220039069463046FB
:102A8000FDF780FF06B070BD00100240000C014051
:102A90000D4810B50B4901600C49416000214FF40D
:102AA00080428160C0E9031241618161C1610162BC
:102AB000FEF764F8002803D0BDE81040FDF7CEBD56
:102AC00010BD000000580040D8000020A086010082
:102AD00010B58EB000240794089409940A940B94BE
:102AE0001C2168460C94FDF758FC1E484FF08041AD
:102AF000016040F2CF21C0E901146321C0E9031451
:102B00008461FEF77BFE08B1FDF7A8FD4FF480500D
:102B1000079007A91348FEF7DDFE08B1FDF79EFDFB
:102B20001048FFF784F808B1FDF798FD0B940BA946
:102B30000C480C94FEF72EFE08B1FDF78FFD6020C7
:102B4000CDE9000402940022694606480494FFF788
:102B500008F808B1FDF782FD0248FEF7DDFF0EB070
:102B600010BD00002C0100200C4810B50A4901607E
:102B70004FF4E1314160002181600C22C160C0E965
:102B800004128161C161FFF78DFA002803D0BDE80E
:102B90001040FDF763BD10BD00380140D801002092
:102BA000FEE7FEE770B500240021204600F0ABF8F8
:102BB0000025002000F04DF96D1CEDB2802DF8D3FA
:102BC000641CE4B2082CEFD370BD10B5FFF728FFEA
:102BD000012000F01DF9BDE81040012000F020B9EF
:102BE00070B500240546802626FA04F0284000F03F
:102BF00017F9012000F00CF9002000F009F9641C1D
:102C0000E4B2082CF0D3012000F002F9BDE87040D6
:102C1000002000F0FDB810B5012000F001F90120FE
:102C200000F0F6F8002000F0FBF8BDE810400020AE
:102C300000F0EEB810B5002000F0F2F8012000F02E
:102C4000E7F8BDE81040012000F0EAB810B5002018
:102C50004FF47A720021491C9142FCD3401C9042EF
:102C6000F8D3FFF7B2FFAE2000F0E2F8D52000F075
:102C7000DFF8802000F0DCF8A82000F0D9F83F2031
:102C800000F0D6F8D32000F0D3F8002000F0D0F800
:102C9000402000F0CDF8A12000F0CAF8C82000F0D4
:102CA000C7F8DA2000F0C4F8122000F0C1F8812043
:102CB00000F0BEF8CF2000F0BBF8D92000F0B8F843
:102CC000F12000F0B5F8DB2000F0B2F8302000F081
:102CD000AFF8A42000F0ACF8A62000F0A9F88D20F1
:102CE00000F0A6F8142000F0A3F8AF2000F0A0F840
:102CF000BDE81040FFF756BF0246012000E05043F8
:102D0000491EFCD2704710B50C4640F0B00000F0F0
:102D10008FF8102040EA141000F08AF804F00F0039
:102D2000BDE8104000F084B82DE9F0410746CE0020
:102D30004000083E801E15464FF0FF38F1B2C0B289
:102D4000FFF7E1FF1148002400EB05152819A0F555
:102D5000805090F8000E00F07CF8641CE4B2082C5F
:102D6000F4D308EB4700F1B2C0B2FFF7CCFF002468
:102D70002819A0F5805090F8080E00F06AF8641C3D
:102D8000E4B2082CF4D3BDE8F08100000289000809
:102D90002DE9F0471E4614008846814604D42B22B4
:102DA000FFF7C2FF254603E02D22FFF7BDFF654276
:102DB00000240A2714E0311B0A20491EFFF79CFF5C
:102DC000B5FBF0F0B0FBF7F107FB110208EB0400D4
:102DD000401CC1B248463032FFF7A6FF641CE4B283
:102DE000B442E8D3BDE8F0872DE9F04115460E4620
:102DF0000746002406E03019C1B23846FFF794FFB9
:102E0000641CE4B22A5D002AF5D1BDE8F08100001F
:102E100002464FF480710148FDF7A4BE000C01404A
:102E200002464FF400710148FDF79CBE000C0140C2
:102E300010B50446FFF7EFFE7820FFF7D1FE002023
:102E4000FFF7CEFE2046FFF7CBFEBDE81040FFF7B0
:102E5000F1BE10B50446FFF7DEFE7820FFF7C0FE96
:102E60004020FFF7BDFE2046FFF7BAFEBDE8104048
:102E7000FFF7E0BE002003F03FFEFBE708B504F0DB
:102E80007DFA0090642207490748FEF758FF07487B
:102E90000068016821F0040101600A21684603F01E
:102EA000E5FDFAE774010020D8010020200200208F
:102EB0001CB504F063FA1F4E1F4D0090012201A9BA
:102EC000306904F01FF9BDF80400012802D002287F
:102ED00015D029E0002428684463012003F0A0FDF8
:102EE000641C642CF7DB00242968C4F16400486387
:102EF000012003F095FD641C642CF5DB14E0002434
:102F0000286844630A2003F08BFD641C642CF7DB03
:102F10005FF000042968C4F1640048630A2003F0EC
:102F20007FFD641C642CF5DB0A21684603F09EFDDE
:102F3000C4E70000000000202C01002090B004F045
:102F40001DFA4FF47A750A90FFF7C2FC044601217E
:102F50002FA20846FFF748FF01212EA20846FFF7DF
:102F600043FF0123224608211846FFF711FF284698
:102F700003F056FD002CE7D1012125A20846FFF7FA
:102F800033FF012125A20846FFF72EFF09AC08AD4B
:102F900007AE06AF0DF11408CDF80080CDE903545B
:102FA000CDE901760BAB0EAA0DA90CA8FFF7A8FB83
:102FB00048B30523BDF91C2001210220FFF7E8FEDC
:102FC0000523BDF9202001210320FFF7E1FE0523A1
:102FD000BDF9242001210420FFF7DAFE0523BDF905
:102FE0002C2008210220FFF7D3FE0523BDF9142071
:102FF00008210320FFF7CCFE0523BDF91820082186
:103000000420FFF7C5FE64210AA803F02FFDC3E7E3
:1030100020000000496E69744E473A00496E697499
:103020004F4B000010B5502080F31188BFF34F8F35
:10303000BFF36F8F04F0A8F918B104494FF0805026
:103040000860002080F3118810BD000004ED00E04E
:1030500030B58FB028216846FDF79FF914210AA8E2
:10306000FDF79BF901210804CDE90010002402942A
:1030700002250491CDE907504FF4E010099068460D
:10308000FEF7F6F908B172B6FEE70F20CDE90A05A2
:103090004FF48060CDE90C4002210AA80E94FEF79F
:1030A000EBF8002801D072B6FEE70FB030BD7047D4
:1030B0000148FEF77EBC0000A8020020F0B50268BF
:1030C000164B174C174D4FF08047984205D0B84229
:1030D00003D0A04201D0A84203D122F070064A6872
:1030E0003243984205D0B84203D0A04201D0A84252
:1030F00003D122F44074CA6822434C6922F0800252
:10310000224302608A68C2620A688262984201D1E0
:103110000969016301214161F0BD0000002C0140FB
:10312000000400400008004010B501F01F03012119
:10313000046A99408C430462016A9A401143016217
:1031400010BD10B5846842EA032224F47F440A4388
:103150002243826010BD826822F070020A4342F06E
:10316000070181607047000030B5036A026A22F0EF
:10317000010202624268846924F073050C682C43E2
:1031800023F002058B682B430A4DA8420BD123F094
:103190000805CB6822F440722B434D6923F00403E9
:1031A00015438A692A434260846149684163036226
:1031B00030BD0000002C014030B5026A036A23F0E4
:1031C00010030362436884690D6824F4E64444EA0A
:1031D00005248D6822F0200242EA05120B4DA84218
:1031E0000ED1CD6822F0800242EA05124D6923F427
:1031F000406343EA85038D6922F0400243EA850378
:103200004360846149688163026230BD002C0140E3
:1032100030B5036A026A22F4807202624268C469AD
:1032200023F4007324F073050C682C438D6843EA83
:1032300005230C4DA8420ED1CD6823F4006343EA68
:1032400005234D6922F4405242EA05128D6923F4A8
:10325000806342EA05124260C4614968C163036247
:1032600030BD0000002C014030B5046A026A22F42F
:10327000805202624268C3690D6823F4E64343EA60
:1032800005238D6824F4005444EA0534064DA84211
:1032900004D14D6922F4804242EA85124260C36142
:1032A00049680164046230BD002C014010B5036A16
:1032B000046A24F001040462846924F0F00444EAFE
:1032C000021423F00A020A438461026210BD10B5A1
:1032D000036A046A24F010040462846923F0A003E2
:1032E00024F4704444EA023243EA0111826101622B
:1032F00010BD10B5406A0021C185C184FEF77EFD76
:1033000010BD70B5446A2068406994F84110C0F35C
:10331000C0100025212904D118B1E584204600F011
:103320008EF82068406994F84210C0F3801022297A
:1033300004D118B1E585204600F05AF8606C40F0E1
:10334000100060642046FEF759FD70BD10B50146BF
:10335000406A096809684FF0000289062ED4C285C8
:1033600001680C3151E8003F23F4807341E80034D8
:10337000002CF5D10168143151E8003F23F001031E
:1033800041E80034002CF5D10168143151E8003FC8
:1033900023F0400341E80034002CF5D1202180F8CF
:1033A0004210016B012909D101680C3151E8003F3D
:1033B00023F0100341E80034002CF5D14263016B87
:1033C000012902D0FEF71CFF10BD818DFEF7DEFC47
:1033D00010BD10B5406A01214163016B012902D083
:1033E000FEF71EFF10BD818D4908FEF7CFFC10BD12
:1033F00001680C3151E8002F22F4907241E800235B
:10340000002BF5D10168143151E8002F22F00102A0
:1034100041E80023002BF5D1016B012909D1016896
:103420000C3151E8002F22F0100241E80023002B5C
:10343000F5D1202180F84210002101637047016816
:103440000C3151E8002F22F0C00241E80023002B8C
:10345000F5D1202180F84110704708B590F842104E
:10346000222901D0022008BD82684FF480539A427D
:1034700001D1016921B1816A9A421BD04AB10AE0A7
:103480000268816A5268C2F308020A80816A891C54
:1034900008E0026972B10268526802F07F020A70A5
:1034A000816A491C8162C18D491E0904090CC185CC
:1034B00003D01BE002685268F1E70168CA6822F095
:1034C0002002CA600168CA6822F48072CA6001687A
:1034D0004A6922F001024A61202180F8421000214D
:1034E0004163026B012A03D0FEF78AFE002008BD6B
:1034F000016301680C3151E8002F22F0100241E80D
:103500000023002BF5D101680A68D20602D50A68AB
:1035100049680091818DFEF739FCE7E770B50446F4
:1035200000680169E26821F4405111430161216999
:10353000A0680843616908432168CA6841F20C63C6
:103540009A430243CA6020684169A26921F440712C
:10355000114341611E492068884202D1FDF752FFA4
:1035600001E0FDF73FFF00EBC00101EB00126068D6
:1035700064218000B2FBF0F3B3FBF1F36FF01806A7
:103580007343B2FBF0F5B2FBF0F605EB8305322393
:1035900003EB0515B5FBF1F5B6FBF1F605F0F0050B
:1035A00005EB0615B2FBF0F6B2FBF0F0B0FBF1F064
:1035B0006FF01802504306EB800003EB0010B0FBE5
:1035C000F1F0216800F00F002844886070BD000011
:1035D0000038014038B581620446828500201346D8
:1035E0006064222284F84220E56B1B4AAA62E56BE4
:1035F0001A4AEA62E56B1A4A2A63E26B50630A468A
:103600002168E06B091DFDF773F9206801684068C7
:103610000090206948B120680C3050E8001F41F448
:10362000807140E80012002AF5D12068143050E87B
:10363000001F41F0010140E80012002AF5D1206886
:10364000143050E8001F41F0400140E80012002A09
:10365000F5D1002038BD00004D330008D3330008F9
:103660000333000881628285C285002141642221E2
:1036700080F84210016921B10168CA6842F4807281
:10368000CA6001684A6942F001024A610068C16883
:1036900041F02001C160002070472DE9F0419846BB
:1036A00017460E460446069D27E0681C25D02DB11E
:1036B000FDF75EFAA0EB0800A8421ED920680C3086
:1036C00050E8001F21F4D07140E80012002AF5D123
:1036D0002068143050E8001F21F0010140E800127A
:1036E000002AF5D1202084F8410084F8420000200F
:1036F00084F840000320BDE8F0812068006836EAC5
:10370000000004D00020B842CFD00020F3E7012011
:10371000F9E700000148FEF78FBB0000D801002048
:10372000FEE7490050EAC12018BF04204A0D18BF27
:1037300040F0010040F2FF72B2EB515F08BF40F071
:103740000200012808BF052070470907090E00285C
:1037500004DB00F1E02080F80014704700F00F0057
:1037600000F1E02080F8141D70472DE9F0414F1E54
:1037700000EBC7010446D1E9000115461E4637F0AB
:1037800006020DD02A46334604F0DAF97F1E04EB18
:10379000C703D3E9002303F0CBFF37F00602F1D1D2
:1037A000022F25D0042F13D0062F18BFBDE8F081BB
:1037B0002A46334604F0C4F9D4E90A2303F0B8FFDB
:1037C0002A46334604F0BCF9D4E9082303F0B0FFDD
:1037D0002A46334604F0B4F9D4E9062303F0A8FFDF
:1037E0002A46334604F0ACF9D4E9042303F0A0FFE1
:1037F0002A46334604F0A4F9D4E9022303F098FFE3
:103800002A46334604F09CF9D4E90023BDE8F04190
:1038100003F08EBF012204F09EBF03F089BF002297
:1038200013461046114604F033B80000024A002047
:10383000110704F090BF000001FDFFFF2DE9FE4FCE
:1038400007460E460025684600F0DCFF00246FF0B6
:103850000F0AE8464FF0010957F8240056F82410E3
:10386000401A00D5404204F0D7FD514604F0A1FFB4
:1038700058F8241011F0FF4F0BD004F0CFFC4FF09C
:103880007E5104F0C1FE0A4920F00040884205DC68
:1038900007E0084908440849884202D309FA04F0BD
:1038A0000543641C032CD7DB2846BDE8FE8F0000CF
:1038B0005C8F423E666666C19A99D9002DE9F04D4B
:1038C0008D4F21F0004A86B005460C46BA452ADBEA
:1038D000AAEB070028430AD08848824501DC1AD1A8
:1038E000CDB106B02846BDE8F04DFFF793BF844A3E
:1038F000844B284604F024F907460E46824A834B3F
:103900002846214604F01CF906B03A463346BDE885
:10391000F04D03F00DBF0120FCF7E5FD06B0BDE85A
:10392000F04DFFF77CBF7A48824542DABAF1795F01
:103930000BDA2846FFF7F5FE042808BFFFF776FFED
:10394000284606B02146BDE8F08D2A460B461046B3
:1039500004F0F6F8834602466E480E460B460621F2
:103960007844FFF702FF5A46334604F0E9F88046F0
:1039700069488A465A46334604217844FFF7F5FEE3
:103980005A46334604F0DCF800223B4603F0D0FEF2
:1039900002460B464046514603F07AFF2A4623462C
:1039A00004F0CEF806B02A462346BDE8F04D03F0F9
:1039B000BFBE284624F0004100223D463B4604F0AD
:1039C000BDF94FF0FF3204F0C6FE064602465348EA
:1039D0000F460B4606217844FFF7C7FE32463B46AA
:1039E00004F0AEF8CDE900014D4832463B460421D3
:1039F0007844FFF7BAFE32463B4604F0A1F80022B5
:103A00002B4603F095FE834602913046394602F07C
:103A1000B1FE804643480D46504517DCDDE9000104
:103A20005A46029B03F034FF42462B4604F088F8C6
:103A300042462B4603F07CFE012204F08CFE304A05
:103A4000304B04F06DFA304A304B4CE04FF0000A36
:103A500052460B46404603F06BFECDE9031052463A
:103A60002B461046194604F06BF832463B4604F0EC
:103A700065F9DDE9033203F00BFF06460F46DDE989
:103A800000015A46029B03F003FF83460091012286
:103A90003046394604F05FFE194A1A4B04F04EF9DD
:103AA00006460F4601224046294604F054FE5A4677
:103AB000009B04F045F832463B4604F031FA0646D6
:103AC0000F4601225046294604F045FE0E4DDFF810
:103AD00058802A46434604F031F932463B4604F00A
:103AE0002DF92A46434604F029F9002CD8BF81F06D
:103AF000004106B0BDE8F08D0000F03F0000F07F0F
:103B0000075C143326A6913C182D4454FB21F93F41
:103B10000000E03FDC610000F2610000666100002F
:103B20007C6100003333EF3FFB21E93F2DE9F84F83
:103B300004460D4621F0004000917349814211DC9A
:103B40007249884201DC06D12CB120462946BDE8E5
:103B5000F84FFFF75FBE6E48002DCCBF6D496E4930
:103B6000BDE8F88F6D49814211DD6D498142D8BFB2
:103B70004FF0FF366DDD20462946FFF7D2FD0428C1
:103B800008BFFFF753FE20462946BDE8F88F654978
:103B9000654F25F00045814233DD6449814219DDDE
:103BA000002632464FF080432046294603F0C0FDF0
:103BB00080468A4601222046294604F0CCFD002298
:103BC0003B4604F0ADF94246534603F061FE04461D
:103BD0000D463EE001260022BA463B4620462946D5
:103BE00003F0A6FD80460F46002253462046294694
:103BF00004F096F942463B4603F04AFE04460D4661
:103C000027E04B4981421BDDDFF828A10226002274
:103C100053462046294603F093FF00223B4603F01B
:103C200087FD80460F46002253462046294604F071
:103C300077F942463B4603F02BFE04460D4608E06A
:103C4000032622462B4600203B4903F021FE044672
:103C50000D4622462B461046194603F071FF8B464F
:103C6000824602460B4603F06BFF07460246334886
:103C700088460B4606217844FFF777FD52465B469F
:103C800003F05EFF82462E488B463A4643460521A6
:103C90007844FFF76AFD3A46434603F051FF024677
:103CA0000B46002E504659460CDA03F041FD2246E1
:103CB0002B4603F045FF01B022462B46BDE8F04FEE
:103CC00004F03CB803F034FD22462B4603F038FFE5
:103CD0001C4A7A4402EBC603D3E9002304F020F91E
:103CE00022462B4604F01CF9174A7A4402EBC6031D
:103CF000D3E9002304F022F8009A002AB8BF81F02B
:103D00000041BDE8F88F0000000010440000F07F83
:103D1000182D4454FB21F93FFB21F9BF0000DC3F83
:103D20000000203E0000F33F0000F03F0000E63FAF
:103D3000008003400000F83F0000F0BF7E5F0000FD
:103D40003C5F0000DA5E0000A25E00002DE9F04D4D
:103D50009446CCF1000423F000464CEA0404524F90
:103D600046EAD4749A46884621F00042BC4206D8FE
:103D7000454240EA050442EAD474BC4204D9BDE895
:103D8000F04D6246FFF749BDAAF14055A5F17F65A8
:103D900055EA0C040BD0022404EAAA74434DDFF860
:103DA00010E144EAD87452EA000B04D00CE0BDE8FC
:103DB000F04DFFF7BBBE002C14BF012CBDE8F08D09
:103DC000022C30D0032C32D056EA0C0B0AD0BE4263
:103DD00020D1BA4209D126F0804622F080423346F3
:103DE000114617E000291ADB25E0DFF8C8B0FB44D4
:103DF000002C04BFDBE90001BDE8F08D012C02BFFF
:103E0000DBE9000181F00041BDE8F08D022C0AD011
:103E1000032C0CD0BA4212D1B8F1000F0BDA2348B0
:103E20002549BDE8F08D28462449BDE8F08D284697
:103E30007146BDE8F08D1D482149BDE8F08D921B0B
:103E400012153C2AC4BF19481D490EDCBAF1000FF7
:103E5000BEBF12F13C0F0020014606DB624603F0B4
:103E600017FD21F00041FFF761FE002C08BFBDE8FF
:103E7000F08D012C04BF81F00041BDE8F08D114AA6
:103E8000114B022C07D004F04BF82A46BDE8F04D48
:103E90000A4B04F045B804F043F82A46BDE8F04D5B
:103EA000064B03F04BBF00000000F07F182D445478
:103EB000FB2109C0365E0000FB21F9BFFB21094050
:103EC000FB21F93F075C143326A6A13C08B560B17D
:103ED00020208DF8000028208DF8010030208DF87A
:103EE000020038208DF8030004E0A3220421684674
:103EF000FCF74BFA6A46042140F69E2001F0A0FE32
:103F000001F09AFA08BD00003EB5044602208DF883
:103F10000000CA208DF80100E3208DF8020009207E
:103F20008DF803006A460421682001F089FEA32071
:103F30008DF80000610609D5C0218DF80110C82157
:103F40008DF80210C2218DF8031005E08DF80100F4
:103F50008DF802008DF8030014F4C07F09D0C4214D
:103F60008DF80410CC218DF80510C6218DF80610AF
:103F700005E08DF804008DF805008DF806008DF839
:103F800008008DF807008DF809006A460A2140F6FE
:103F9000A72001F055FEA0074FF0D80503D0202040
:103FA0008DF8000001E08DF800506A46012140F6CE
:103FB000B62001F045FEA00601D5012000E000205A
:103FC00000F08EF814F4C07F1ED0E0050AD5B220B0
:103FD0008DF800008B208DF80100B6208DF80200CE
:103FE0009B2009E0B0208DF8000080208DF80100B2
:103FF000B4208DF8020090208DF803006A46042159
:1040000040F6A22001F01CFEE1074FF40B6022D025
:10401000F8218DF800106A46012101F011FEFA2105
:10402000072000F03BFB072000F006FB012000F01A
:1040300023FB642000F0C6FB4FF4FA7000F0D2FBC3
:10404000C821254800F0C0FA282000F0D5FA0A203F
:1040500000F0E2FA05E08DF800506A46012101F017
:10406000EFFDA00703D5D9208DF8000001E08DF801
:1040700000506A46012140F23D7001F0E1FD600709
:1040800001D5012000E0002000F048F8E00601D54D
:10409000012000E00020FFF719FF104D44F0080058
:1040A000688101F0C9F90020A873600601D50620D7
:1040B000A87314F4C07F02D0A87B801DA87314F0ED
:1040C000140F02D0A87B1030A873A00702D0A87BE1
:1040D000001DA87300203EBD09E3CA02C41B0020D6
:1040E0000EB54FF4976310B106A107C901E008A20D
:1040F00007CA8DE807006A460921184601F0A0FDAD
:104100000EBD0000B8AAB38DB4980D355D00000057
:10411000B8AAAAAAB088C3C5C700000008B560B194
:10412000C0208DF80000C2208DF80100C4208DF859
:104130000200C6208DF8030004E08B2204216846AB
:10414000FCF723F96A46042140F6982001F078FD37
:1041500001F072F908BD0000C8234FF480620249E3
:1041600040F6F63000F0FCBF448F00082DE9FF4F09
:1041700089B01746DDE9165200244D4E8846814627
:104180002C80A246B07B694601F0BAF84FF0FF3BA5
:1041900018B158460DB0BDE8F08F708910F0140FBB
:1041A0003CD0009909BA21F0FF039DF803100B439E
:1041B0003B6001991B1409BA21F0FF029DF807101A
:1041C0005B430A437A6002999DF80B4009BA21F0DB
:1041D000FF012143B960039C091424BA24F0FF0CA9
:1041E0009DF80F4012144CEA040CC7F80CC04FEABB
:1041F0002C47494302FB023207FB071111441024EC
:10420000A1F17061B1F1007F04D901F015F9A5F8B1
:1042100000A0BEE7298841F48071298042066946E2
:1042200011D50A19A41D13885BBAA8F80030538869
:104230005BBAA8F80230928852BAA8F804202A88FB
:1042400042F008022A8010F4C07F11D00A19A41D80
:1042500013885BBAA9F8003053885BBAA9F802301A
:10426000928852BAA9F804202A8842F070022A8063
:10427000800716D00C44E07800F0C00500F03F0144
:104280006078C00706D0C80801F007013268491CF1
:1042900002B190476078000703D5716809B1A80999
:1042A0008847FCF765FC0C990860002072E7000065
:1042B000C41B00202DE9FF41044603A800F01EFEA8
:1042C000BDF80C00410CC30300BF2F48028902F067
:1042D0000300550754F8200000D54042C2F3C10541
:1042E000960654F8255000D56D42C2F38116D205CA
:1042F00054F8264000D56442A0FB0367C21702FBB6
:10430000037200FB0120820042EA9670A5FB03675E
:10431000EA1702FB037205FB0122950045EA96723B
:10432000A4FB0367E51705FB037304FB01318B0056
:1043300043EA9671030E8DF80030030C8DF80130BE
:10434000030A8DF802308DF80300100E8DF804007A
:10435000100C8DF80500100A8DF80600080E8DF877
:104360000800080C8DF80900080A8DF80A008DF87D
:1043700007208DF80B106A460C214FF4257001F0D0
:104380005FFC04B0BDE8F081C41B002030B50446DA
:1043900013A285B007CA8DE807004FF0FF35C82C7F
:1043A00016D8C820B0FBF4F1491E080A8DF80C009D
:1043B0008DF80D1003AA022140F2162001F040FCF6
:1043C00030B96A460C2140F6C12001F039FC10B129
:1043D000284605B030BD054884810020F9E700007B
:1043E000FEF2ABC4AAF1DFDFBBAFDFDFC41B0020EE
:1043F000F8B53049098901F0030250F822404A0714
:1044000000D56442C1F3C1028B0650F8222000D5CA
:104410005242C1F3811350F82330C80500D55B42E6
:10442000254984FB0140850045EA947082FB0142E6
:10443000A40F44EA820483FB0121950F45EA81051C
:10444000010E8DF80010010C8DF80110010A8DF895
:1044500002108DF803006A4604214FF4747001F0D5
:10446000EFFB4FF0FF3688B9200E8DF80000200CCE
:104470008DF80100200A8DF802008DF803406A468D
:1044800004214FF4757001F0DBFB08B13046F8BD34
:10449000280E8DF80000280C8DF80100280A8DF8F0
:1044A00002008DF803506A4604214FF4767001F043
:1044B000C7FBF8BDC41B002009E3CA022DE9FF4178
:1044C00004463CA004F00303006802903AA0006890
:1044D00003903AA006683AA0056802A8C15C8DF86E
:1044E0000010C4F3C101425C8DF80120C4F38112B5
:1044F000805C8DF8020003A8C35C8DF80430415C39
:104500008DF80510805C8DF806006A46032140F2A4
:10451000264001F095FB4FF0FF37E0BB01AA0321D5
:1045200040F22A4001F08CFBA8BBCDE90065600792
:104530000BD59DF8000040F001008DF800009DF8BB
:10454000040040F001008DF80400A0060BD59DF892
:10455000010040F001008DF801009DF8050040F0D9
:1045600001008DF80500E0050BD59DF8020040F034
:1045700001008DF802009DF8060040F001008DF862
:1045800006006A4603214FF4886001F059FB10B918
:1045900001AA032100E004E040F2314001F050FBA9
:1045A00018B1384604B0BDE8F08106480481002007
:1045B000F8E700004CCD6C000CC92C003656760094
:1045C00026466600C41B00204FF47A7290FBF2F07E
:1045D00008B54843010E8DF80010010C8DF801104C
:1045E000010A8DF802108DF803006A4604214FF489
:1045F000AE7001F025FB08BD0521B0FBF1F008B558
:10460000010A8DF800108DF801006A4602214FF46E
:10461000AD7001F015FB08BD0521B0FBF1F008B548
:10462000010A8DF800108DF801006A4602214FF44E
:10463000AC7001F005FB08BD08B500218DF8001035
:10464000C10702D030218DF80010810705D59DF8F3
:10465000001041F00C018DF80010400705D59DF8C1
:10466000000040F003008DF800006A4601214FF47D
:10467000A47001F0E5FA08BD08B560B1042800D9BE
:104680000420401E8DF800006A46012140F24F10C0
:1046900001F0D6FA08BD0120F3E700002DE9FC4146
:1046A000054640074FF0FF367CD0B1F5C86F79D88A
:1046B000084603F0C9FE3E4903F0B0FD074601A8D5
:1046C00000F0FEFB9DF80400022806D004280DD05F
:1046D00008282ED0102865D134E00E21384604F089
:1046E00068F803F079FE84B2324907E00D213846BC
:1046F00004F05FF803F070FE2F4984B2384603F0EF
:10470000B7FE03F069FE210A8DF8001080B28DF823
:104710000140010A8DF802108DF80300E8076C468D
:1047200020D0224602214FF4EA7001F089FAC8BB7A
:1047300011E00C21384604F03CF803F04DFE84B241
:104740001E49DBE70B21384604F033F803F044FE42
:1047500084B21B49D2E7A21C02214FF4927001F0EF
:104760006FFAF8B9A8070DD56A4602214FF4EC702C
:1047700001F066FAB0B9A21C02214FF4947001F066
:104780005FFA78B9680710D56A4602214FF4EE70D7
:1047900001F056FA30B9A21C02214FF4967001F0D4
:1047A0004FFA10B13046BDE8FC810020FBE7000065
:1047B00000004843000040460000C045000040455E
:1047C0000000C0440521B0FBF1F008B5010A8DF8E6
:1047D00000108DF801006A4602214FF4EF7001F0DD
:1047E0002FFA08BD0521B0FBF1F008B5010A8DF8DC
:1047F00000108DF801006A4602214FF4ED7001F0BF
:104800001FFA08BD2DE9F04385B006464FF0FF3290
:10481000042104A88DE80700264801230D224068E2
:10482000007841002448FCF76DFA18B1072005B064
:10483000BDE8F0839DF810101C2000EAD1029DF81D
:104840001310DFF87890C1F301131A438DF80C2090
:104850009DF81120C1F3810300EAD2021A438DF8BA
:104860000D209DF8122001F0030100EAD200084358
:104870000024134F8DF80E00A04603AD285D10B143
:1048800046F8249009E046F824800CE056F824000D
:10489000394603F0EDFD46F82400285D401E10F077
:1048A000FF002855F2D1641CE4B2032CE6D30020AB
:1048B000BDE70000A0000020D80000207B14AE3E21
:1048C0001D5A843F2DE9F04F87B0054602200DF1B7
:1048D0000C0A4FF00109DFF818B4CDE900A08DF8FB
:1048E0000C904FF000084FF0FF368DF80D800296C7
:1048F0000C46DBF80400DBF80010174600784A7D10
:1049000041004B46FB48FCF725FB00287DD1C82021
:10491000FCF726F800208DF80C00B046CDF800A07A
:10492000CDE90198DBF800005E460123427CDBF80C
:10493000040000784100EF48FCF70CFB002865D12B
:10494000401ECB46CDF800A0CDE901B070683168BB
:10495000D04600784A794100B1460123E548FCF78A
:10496000F9FA20B14FF0FF3007B0BDE8F08FDA461A
:104970004FF0FF36CDF80080CDE901A6D9F804004C
:10498000D9F80010C34600784A7D4100C84601238B
:10499000D848FCF7DFFA0028B8D1B146CDF800B00E
:1049A000CDE901A9D8F80400D8F8001056460078DF
:1049B0008A7E41000123CF48FCF7CCFA002871D150
:1049C000CA46B146CDF800B0CDE9019AD8F800004A
:1049D000464601230279D8F8040000784100C54812
:1049E000FCF7B8FA00287DD10C208DF80C00D046D9
:1049F000CDF800B0CDE901983068DA4602797068E8
:104A0000007841000123BB4801E0A5E02BE0FCF762
:104A1000A1FA40BB0F20FBF7A3FFB06AD3460123E6
:104A2000407A8DF80C00CDF800A0CDE901983068EF
:104A30008278706800784100AE48FCF78BFA90B934
:104A4000B06ACA460123007A8DF80C00CDF800B098
:104A5000CDE9019830684278706800784100A54837
:104A6000FCF778FA08B140467EE7B06A807A0FB169
:104A700040F0E000CDE900BAC1468DF80C00CDF859
:104A800008903068D8460123827970680078410028
:104A90009848FCF75FFA28B92FB1B06AC07A40F0A5
:104AA000E00001E029E01820CDE9008A8DF80C0033
:104AB000CDF8089030680123C27970680078410011
:104AC0008C48FCF747FAC0B917B1C820FBF748FF7C
:104AD000402057468DF80C00CDF80080CDE90179D3
:104AE000C24600E073E03068012302797068007804
:104AF00041008048FCF72EFA08B1484634E7CDE97A
:104B000000A778208DF80C00CDF808907068316807
:104B1000CB4600784A794100B04601237548FCF73E
:104B200019FA08B158461FE73220FBF719FF4FF07A
:104B300000098DF80C90CDF800A0CDE9017BD8F8E4
:104B40000400D8F800105E4600784A79410001233D
:104B50006848FCF7FFF908B1304605E7022003AAD0
:104B6000CDE900200296D8F80400D8F80010B2462B
:104B700000780A7B410001235E48FCF7C3F830BB94
:104B8000BDF80C004FF00C0B40BAB0FBFBF0C5F8C1
:104B90000890C5F80490C5F80090C4F80890C4F8CF
:104BA0000490C6B20027C4F800903EE003AACDE905
:104BB000002BCDF808A0D8F80400D8F80010012385
:104BC00000784A7B41004B48FCF79CF808B15046FE
:104BD000CAE6BDF80E10BDF80C0049BA40BA0AB2D8
:104BE000236800B2BDF8101018442060606849BA0C
:104BF00010446060A06809B20844A060BDF81200CB
:104C00002B6840BA00B2BDF81410BDF81620184445
:104C1000286049BA686809B20844686052BAA8684E
:104C200012B210447F1CFFB2A860B742BED32868FE
:104C30008322C117090441EA104100040023FBF755
:104C40000FFB32460023FBF70BFB286068688322CA
:104C5000C117090441EA104100040023FBF700FBDF
:104C600032460023FBF7FCFA6860A8688322C1176C
:104C7000090441EA104100040023FBF7F1FA32462F
:104C80000023FBF7EDFAA86020684FF40065C11718
:104C9000090441EA104100042A460023FBF7E0FA28
:104CA00032460023FBF7DCFA206060682A46C11711
:104CB000090441EA104100040023FBF7D1FA32460F
:104CC0000023FBF7CDFA6060A0682A46C1170904EB
:104CD00041EA104100040023FBF7C2FA32460023E8
:104CE000FBF7BEFAA060002806DDA0F5803005E0E5
:104CF000A0000020D800002000F58030A060002037
:104D000032E600002DE9FF5F88468146002503AEAC
:104D1000681E03210096CDE901102D4801230D22C4
:104D20004068007841002B48FBF7ECFF18B10720E2
:104D300004B0BDE8F09F9DF80C00002400F01F00B7
:104D40008DF80C009DF80D006FF00F0B00F01F00A8
:104D50008DF80D009DF80E004FF0010A00F01F00C5
:104D60008DF80E0059F8241058F82400081A00D5C0
:104D7000404203F051FB594603F01BFD0746305DEE
:104D8000C0B1154802E0154903F072FB315D491EC0
:104D900011F0FF013155F6D10146384603F03EFAD5
:104DA0004FF07E5103F030FC0D4920F00040884266
:104DB00005DC07E00B483844B0F1D97F02D90AFA84
:104DC00004F00543641C032CCCDB2846B0E700004C
:104DD000A0000020D80000200000C84154E3853F17
:104DE000295C0F3E0000E0BE90F90010002902DDB2
:104DF0004FF00000704702DA4FF00400704790F95E
:104E00000110002902DD4FF00100704702DA4FF077
:104E10000500704790F90200002802DD4FF0020003
:104E2000704702DA4FF0060070474FF007007047F6
:104E3000FCF760F9FEF70CF9FDF7F2FDFDF7A0FDB8
:104E4000FDF726FEFDF790FEFDF742FEFDF7FEFEA4
:104E500000210548FCF71AFF00F02CFFFDF7AEFD1E
:104E600000F044FFFEE700002C0100202DE9F04196
:104E7000124C20F00101002594F8240010B100200C
:104E8000BDE8F081A07A4FF0FF3668B10840277C7A
:104E90002074884200D0354641B1012001F034FC35
:104EA00000F0CAFA38B127743046E9E7207D00B136
:104EB000012001F029FC2846E2E70000A0000020C4
:104EC0000D494A7A42B1012A08D0022A0FD0032A9A
:104ED0000FD04FF0FF307047022200E00422027032
:104EE000C97C11B11106C90D01700020704708225C
:104EF000F5E71022F3E70000A00000200F494A7AEE
:104F000042B1012A09D0022A11D0032A12D04FF04F
:104F1000FF3070474FF4804201E041F69C720280FE
:104F2000C97C11B1C2F34E010180002070474FF4DB
:104F30008052F4E74FF40062F1E70000A000002087
:104F40000B49097A39B1012907D002290AD003296E
:104F50000BD0002103E0FA2101E04FF4FA71018047
:104F6000002070474FF47A71F9E74FF4FA61F6E7E1
:104F7000A00000200A49097A41B1012908D002297C
:104F80000AD003290AD04FF0FF307047054900E0EE
:104F900005490160002070470449FAE70449F8E731
:104FA000A00000200000034300008342333303428B
:104FB000333383410C49C97A072913D2DFE801F062
:104FC0001204060A0C0E1000BC2100E062210180D0
:104FD000002070472A21FAE71421F8E70A21F6E7B2
:104FE0000521F4E70021F2E7A0000020054991F82F
:104FF000242012B14FF0FF307047C9890180002092
:1050000070470000A00000202DE9F04186B080200C
:105010008DF80C000DF10C084FF0FF3701264046CB
:105020004D4C8DE8C10020683346427D60680078B1
:1050300041004A48FBF78EFF002838D16420FBF777
:105040008FFC00258DF80C50CDF80080CDE901676C
:1050500020680123427D6068007841003F48FBF7EB
:1050600079FF00286ED10621CDF80080CDE9011727
:1050700020680123427E6068007841003748FBF7D2
:1050800041FE00285ED19DF811009DF80F10C00769
:10509000400F01F0010140EA41009DF80D1001F0C0
:1050A0000101084304D0012836D0022815D049E078
:1050B000CDF80080CDE9016720680123C2786068DF
:1050C000007841002548FBF71DFED8BB9DF80C0079
:1050D00010F00F0036D004281ED0E574FF2004F82D
:1050E0000A0F4FF6FF7104F8020C04F8010C60700F
:1050F000A180A0712072A67026766576E572A572F1
:10510000E56025616561A576E576A5834FF4FA60D3
:1051100000F01EFCB0B901E0E674DFE7022000F009
:10512000EBFA78B92A2000F091FC58B9322000F04F
:10513000CBFC38B90020FFF799FE18B9002000F029
:1051400019FB18B1384606B0BDE8F081002000F028
:1051500007FD0020F7E70000A0000020D800002095
:105160002DE9FF4FDFF8AC90064689B099F825008D
:10517000154688464FF0FF37C0B9B8F1000F15D07B
:10518000002423E0301B102800DD10201FFA80FBD4
:1051900008EB040292465946204600F051FD28B91A
:1051A00003AA5946204600F00DF918B138460DB053
:1051B000BDE8F08F50465A4603A9FBF775F810B1C9
:1051C0006FF00100F3E704EB0B0084B2B442D9D3D3
:1051D000280A8DF81C00022007A9CDE900108DF8DF
:1051E0001D500297D9F800003D464C46427FD9F841
:1051F00004000123007841000748FBF7ABFE08B12B
:105200002846D4E7012084F825000C98E08400208B
:10521000CDE70000A0000020D80000202DE9FF5FAE
:1052200004464FF0FF36282858D80025DFF8C880FC
:105230000DF10C0B4FF0070A02277CB1012000F0A2
:10524000C9FB20208DF80C004FF00109012C1FD064
:10525000052C20D88DF80D90052026E0002000F0C8
:10526000B9FB8DF80C508DF80DA0CDF800B0CDE94C
:105270000176D8F8000044460123427DD8F80400A6
:10528000007841001D48FBF765FE38BB257531E00D
:105290008DF80D50E0E7142C03D88DF80D700A201E
:1052A00003E003208DF80D00142000F0CFFB9DF8E3
:1052B0000D10CDF800B00AEB81108DF80D00CDE98E
:1052C0000176D8F8000044460123427DD8F8040056
:1052D000007841000948FBF73DFE18B1304604B0A4
:1052E000BDE8F09F0820A072257384F81490002078
:1052F000FFF7BCFD0020F2E7A0000020D80000204E
:105300002DE9FF472D4C8A46074694F82410904615
:105310004FF0FF30002937D0A17A002934D005465C
:105320000DF10C09022148468DE823002068012375
:10533000027B6068007841002148FBF7E3FCA0BBDA
:10534000BDF80C0046BABE4203D2002188F8001016
:105350002BE060684188B6EB510F18D90122CDF8D7
:105360000090CDE90125216800780123CA7C410025
:105370001348FBF7C7FCC0B99DF80C00C00606D562
:1053800000F05AF86FF0010004B0BDE8F087CDF8E6
:1053900000A0CDE9017520680123427B6068007898
:1053A00041000748FBF7AEFC08B12846ECE7B6FB26
:1053B000F7F0401E88F800000020E5E7A00000207C
:1053C000D80000202DE9FF4116000F464FF0FF35B1
:1053D00029D0174CA17A31B3010A8DF80C10C0B254
:1053E0008DF80D00C1196068428991421BD80221D5
:1053F00003AACDE900210295216800780123CA7E25
:1054000041000C48FBF7A6FD68B90096CDE901758F
:1054100020680123027E6068007841000548FBF7A0
:1054200071FC002800D0284604B0BDE8F0810000DF
:10543000A0000020D80000202DE9FF41704C4FF063
:10544000FF30A17A002969D001260DF10C08CDE9C1
:105450000086002705468DF80C70029520683346BB
:10546000427C6068007841006648FBF773FD0028C5
:105470007ED1CDF80080CDE9016560682168012307
:1054800000784A7941005F48FBF764FD0028EFD1BE
:10549000CDF80080CDE901656068216801230078BE
:1054A0000A7941005748FBF755FD002860D194F870
:1054B000240090B30C208DF80C00CDF80080CDE9CD
:1054C00001652068012302796068007841004D4839
:1054D000FBF740FD00284BD13220FBF741FAC020FA
:1054E0008DF80C00A07AC00702D0E0208DF80C00E7
:1054F000CDF80080CDE9016520680123027960685C
:10550000007841003F48FBF725FD002873D1607CFF
:1055100028B102208DF80C0003E017E06CE08DF854
:105520000C70CDF80080CDE9016520680123427C34
:105530006068007841003348FBF70CFDC0B98DF876
:105540000C70CDF80080CDE9016549E004208DF8AC
:105550000C00CDF80080CDE90165206801230279B7
:105560006068007841002748FBF7F4FC00B900E0D0
:1055700041E0A07CA8B9A07AC00712D05FF060001B
:105580008DF80C00CDF80080CDE90165206801237D
:1055900002796068007841001A48FBF7DBFC50BBD9
:1055A00001E04020ECE73220FBF7DAF9607C10B133
:1055B0008DF80C6001E08DF80C70CDF80080CDE91D
:1055C000016520680123427C6068007841000D4835
:1055D000FBF7C0FC78B90A4802951030CDE9000607
:1055E0002068012342796068007841000548FBF794
:1055F000B1FC002800D0284604B0BDE8F0810000CE
:10560000A0000020D80000202DE9F047394C824648
:105610008AB094F824000F4620B1002000F04EF923
:10562000012600E0002607A8FFF78AFC06A8FFF77E
:1056300047FC09A8FFF7BEFC08A8FFF7D7FC94F8C1
:105640000A9094F810800025002239465046FFF752
:1056500039F910B16D1C022DF6DB022D1AD0002590
:10566000012203A96846FFF72DF910B16D1C022D28
:10567000F6DB022D0ED003A93846FEF7DFF8C7B2DD
:1056800069465046FFF73EFB10F0FF0F4FF0000554
:1056900002D002E0002503E001250FB945F0020524
:1056A000FF2020726072E0724FF6FF71E181A072FC
:1056B000207401202073BDF81C0000F049F99DF80A
:1056C000180000F019F8BDF8240000F0BFF9BDF88B
:1056D000200000F0F9F9484600F042FA4046FFF792
:1056E000C5FB16B1012000F0E9F80AB02846BDE874
:1056F000F0870000A00000207FB51C4C01464FF051
:10570000FF30A27A002A18D0022907D0042907D036
:1057100008290FD0102910D1182102E0002100E043
:1057200008218DF80C10617A9DF80C20B1EBD20F96
:1057300002D004E01021F4E7002004B070BD05465B
:10574000012003A9CDE90010029520680123C27948
:105750006068007841000648FBF7FCFB08B128466A
:10576000EBE79DF80C00C0086072E5E7A0000020A0
:10577000D80000202DE9FF474E4C0746A07CB842D8
:1057800003D1002004B0BDE8F0874A48012603ADEC
:10579000D0E900104FF0FF38EFB38DE860010078DA
:1057A0000A79410001234448FBF7ACFAA0BB9DF8FD
:1057B0000C00012320F020008DF80C008DE8600122
:1057C000206802796068007841003B48FBF7C2FB23
:1057D00010BB0320FBF7C4F802208DF80C0094F8EE
:1057E000220010B182208DF80C0094F8230028B11B
:1057F0009DF80C0040F030008DF80C008DE8600141
:1058000020680123C27D6068007841002A48FBF7C8
:10581000A1FB08B94CE000E00CE0CDE90056CDF862
:10582000088000780A794100B14601232248FBF73D
:1058300069FA08B14046A5E7A07AC0079DF80C00B8
:1058400002D040F0200001E020F02000CDE9005916
:105850008DF80C00CDF808802068464601230279B7
:105860006068007841001448FBF774FBF0B903202E
:10587000FBF776F894F8220000B180208DF80C0038
:1058800094F8230028B19DF80C0040F030008DF80A
:105890000C00CDE90059029620680123C27D6068A2
:1058A000007841000448FBF755FB08B1304669E732
:1058B000A77466E7A0000020D80000202DE9FF4172
:1058C000214C94F82410814224D000277E1E01250B
:1058D00030B394F8250008B3002000F015FF002035
:1058E000FFF748FFE08C00F0EFF88DF80C7003A88C
:1058F0008DE861006068012323220078410013488D
:10590000FBF728FB84F82450012000F0FDFE00BFC7
:10591000FFF792FD002004B0BDE8F0813046FAE7C1
:10592000002000F0F1FE207C8DF80C0003A88DE82B
:105930006100606801232322007841000348FBF7DF
:1059400009FB84F82470E3E7A0000020D8000020C1
:105950007FB51E4C01464FF0FF30A27A002A1BD0C3
:10596000FA290AD0B1F5FA7F09D0B1F57A7F10D0C3
:10597000B1F5FA6F10D1182102E0002100E00821F2
:105980008DF80C10217A9DF80C20B1EBD20F02D0CB
:1059900004E01021F4E7002004B070BD05460120AA
:1059A00003A9CDE90010029520680123827960687F
:1059B000007841000648FBF7CDFA08B12846EBE72E
:1059C0009DF80C00C0082072E5E70000A000002050
:1059D000D80000207FB51B4C054694F82300A84250
:1059E00002D1002004B070BD0DB1302000E00020D5
:1059F0008DF80C00A07C28B19DF80C0040F002004E
:105A00008DF80C0094F8220028B19DF80C0040F0AD
:105A100080008DF80C00012003A9CDE900104FF0A3
:105A2000FF36029620680123C27D6068007841003D
:105A30000548FBF78FFA08B13046D3E784F82350C6
:105A4000CFE70000A0000020D80000207FB51C4C4C
:105A50004FF0FF35A17A69B30121BC2802D38DF83C
:105A60000C1012E0622801D302200CE02A2801D396
:105A7000032008E0142801D3042004E00A2801D3FD
:105A8000052000E006208DF80C00E07A9DF80C203F
:105A9000904202D1002004B070BD03A88DE823001D
:105AA0002068012382786068007841000548FBF790
:105AB00051FA08B12846EEE79DF80C00E072E9E7DC
:105AC000A0000020D80000202DE9FF41224E04460E
:105AD0004FF0FF37B07A78B396F8240060BB307D82
