:020000040800F2
:10000000A820002021020008FF1D00086B16000830
:10001000FD1D000817060008B922000800000000B6
:10002000000000000000000000000000890100083E
:100030001906000800000000CD010008B5210008E5
:100040003B0200083B0200083B0200083B0200089C
:100050003B0200083B0200083B0200083B0200088C
:100060003B0200083B0200083B0200083B0200087C
:100070003B0200083B0200083B0200083B0200086C
:100080003B0200083B0200083B0200083B0200085C
:100090003B0200083B0200083B0200083B0200084C
:1000A0003B0200083B0200083B0200083B0200083C
:1000B0003B0200083B020008412200083B02000806
:1000C0003B0200083B0200083B0200083B0200081C
:1000D0003B0200083B0200083B0200083B0200080C
:1000E0003B0200083B0200083B02000800F002F857
:1000F00000F03AF80AA090E8000C82448344AAF188
:100100000107DA4501D100F02FF8AFF2090EBAE885
:100110000F0013F0010F18BFFB1A43F0010318473B
:100120007484000094840000103A24BF78C878C119
:10013000FAD8520724BF30C830C144BF04680C60ED
:10014000704700000023002400250026103A28BF35
:1001500078C1FBD8520728BF30C148BF0B60704739
:100160001FB51FBD10B510BD00F020FA1146FFF7F6
:10017000F7FF03F029FC00F03EFA03B4FFF7F2FFAB
:1001800003BC00F041FA0000224B19680868B0E88F
:10019000F00F80F30988BFF36F8F4FF0000080F3FA
:1001A00011884EF00D0E70470000000006480068F0
:1001B000006880F3088862B661B6BFF34F8FBFF363
:1001C0006F8F00DF00BF00BF08ED00E0EFF3098094
:1001D000BFF36F8F0F4B1A6820E9F00F106008B55E
:1001E0004FF0500080F31188BFF34F8FBFF36F8F34
:1001F00005F06AFA4FF0000080F31188BDE808406E
:1002000019680868B0E8F00F80F30988BFF36F8FB2
:10021000704700BF14000020EFF305807047000016
:100220000948804709480047FEE7FEE7FEE7FEE78A
:10023000FEE7FEE7FEE7FEE7FEE7FEE704480549C6
:10024000054A064B704700003F220008ED000008F9
:10025000A81A0020A8200020A81C0020A81C00200C
:1002600010B54C1084EA530404D54042C1F100019A
:1002700038BF491E1B4204D55242C3F1000338BFA8
:100280005B1E00F0B4F814F0804F04D04042C1F17E
:10029000000138BF491E14F0004F04D05242C3F190
:1002A000000338BF5B1E10BD40EA010310B59B0779
:1002B0000FD1042A0DD310C808C9121F9C42F8D0D0
:1002C00020BA19BA884201D9012010BD4FF0FF3081
:1002D00010BD1AB1D30703D0521C07E0002010BD97
:1002E00010F8013B11F8014B1B1B07D110F8013B23
:1002F00011F8014B1B1B01D1921EF1D1184610BD04
:10030000032A40F2308010F0030C00F0158011F841
:10031000013BBCF1020F624498BF11F801CB00F819
:10032000013B38BF11F8013BA2F1040298BF00F86D
:1003300001CB38BF00F8013B11F0030300F0D98076
:10034000083AC0F0088051F8043B083A51F804CB51
:10035000A0E80810F5E7121D5CBF51F8043B40F817
:10036000043BAFF30080D20724BF11F8013B11F822
:1003700001CB48BF11F8012B24BF00F8013B00F866
:1003800001CB48BF00F8012B704702F0FF0343EA9E
:10039000032242EA024200F0E0B84FF0000200B54A
:1003A000134694469646203922BFA0E80C50A0E898
:1003B0000C50B1F12001BFF4F7AF090728BFA0E846
:1003C0000C5048BF0CC05DF804EB890028BF40F812
:1003D000042B08BF704748BF20F8022B11F0804F54
:1003E00018BF00F8012B704770477047704753EAF9
:1003F000020C00F069802DE9F04B4FF00006002B55
:100400001FBFB3FA83F503FA05F424FA05F65E403C
:1004100012BF1643B2FA82F502FA05F4C5F12005BF
:100420001EBF22FA05FC44EA0C04203556EA044CAF
:100430004FEA144418BF641C4FF000084FF0000945
:10044000904271EB030C39D3002919BFB1FA81F73F
:1004500001FA07F6B0FA80F700FA07F6C7F12007AD
:100460001EBF20FA07FC46EA0C062037B6FBF4FC58
:10047000A7EB0507103F07F01F0BCBF120060CFA86
:100480000BFB2CFA06F644BFB3460026202FA4BF70
:100490005E464FF0000B5BEA060C08BF4FF0010B05
:1004A00019EB0B09ABFB027C48EB0608C01B06FBF3
:1004B00002CC0BFB03CC71EB0C01C1E70B460246EF
:1004C00041464846BDE8F08B13B54FF000004FF0B1
:1004D0000001AFF30080BDE81C40704710B500F08C
:1004E0005DF8006810BD10B5044600F057F80460D0
:1004F00010BD10B5203AC0F00B80B1E81850203A7A
:10050000A0E81850B1E81850A0E81850BFF4F5AFB3
:100510005FEA027C24BFB1E81850A0E8185044BF3D
:1005200018C918C0BDE810405FEA827C24BF51F8AA
:10053000043B40F8043B08BF7047D20728BF31F89E
:10054000023B48BF11F8012B28BF20F8023B48BFEF
:1005500000F8012B70474FF000020429C0F0128010
:1005600010F0030C3FF41BAFCCF1040CBCF1020FF4
:1005700018BF00F8012BA8BF20F8022BA1EB0C013B
:10058000FFF70DBF5FEAC17C24BF00F8012B00F824
:10059000012B48BF00F8012B70470000004870474E
:1005A000441A002000487047441A00207546FFF79F
:1005B000F9FFAE4605006946534620F00700854620
:1005C00018B020B5FFF73AFEBDE820404FF0000616
:1005D0004FF000074FF000084FF0000B21F007012B
:1005E000AC46ACE8C009ACE8C009ACE8C009ACE86E
:1005F000C0098D46704710B50446AFF30080204611
:10060000BDE81040FFF7B9BD01491820ABBEFEE7B9
:10061000260002007047FEE7704772B6FEE7000052
:1006200070B5044600F004F90546601C02D0044889
:100630000078044400F0FCF8401BA042FAD370BDDF
:10064000040000202DE9F84FDFF8B8910024A9F14B
:10065000040B23460F2709F1040AABF1040EC9E08D
:100660000125A5402A40AA427DD1674ED1F804C099
:10067000ACEB0608B44532D014DCBCF1030F3AD021
:1006800009DCBCF1000F2AD0BCF1010F1CD0BCF179
:10069000020F31D11DE0BCF1110F17D0BCF1120FC8
:1006A0002AD119E0B8F5881F19D006DCB8F5803FCB
:1006B00015D0B8F5801F1FD111E0B8F5001F0ED07E
:1006C000B8F5041F18D10AE0CB6815E0CB681B1DF4
:1006D00012E0CB6808330FE0CB680C330CE08B687A
:1006E0002BB1012B4FF0080303D0456104E0042334
:1006F00002E0056100E00023FF2A01D8064601E080
:1007000000F104064FEA840501D9A5F12005D6F8C9
:10071000008007FA05FC28EA0C0803FA05F548EA08
:100720000508C6F800804D68ED0062D5374DAE690A
:1007300046F00106AE61AD6924F0030605F001053F
:100740000095334D06EB050CDCF80850A607360F74
:1007500007FA06F825EA0805DFF8B880404503D116
:100760004FF0000817E044E0DFF8AC80404502D1CC
:100770004FF001080FE0DFF8A480404502D14FF0B0
:10078000020808E0DFF89880404502D14FF00308E6
:1007900001E04FF0040808FA06F848EA0508CCF82A
:1007A00008804D68D9F80060ED024D4601D516432A
:1007B00000E096432E604D68DAF80060AD025546C1
:1007C00001D5164300E096432E604D68DBF80060CB
:1007D000AD035D4601D5164300E096432E604D689B
:1007E000DEF80060ED03754601D5164300E0964340
:1007F0002E60641C0D682A46E5407FF431AFBDE8E9
:10080000F88F0000080401400000111000100240A1
:100810000000014000080140000C014000100140B0
:10082000001401400AB1016170470904FBE70000B0
:1008300001488068704700000400002070B5040083
:1008400025D094F83D00002520B984F83C5020467E
:1008500000F078FA242084F83D002068016821F037
:10086000010101602068016841F4004101602068D5
:10087000016821F40041016000F014FC4D4A6168F8
:10088000914201D84C4900E04C49884201D20120F4
:1008900070BD4B492368B0FBF1F15E6826F03F065E
:1008A0000E435E606368934206D94FF496735943D2
:1008B0004FF47A73B1FBF3F12368491C1E6A26F0EA
:1008C0003F06314319626168914210D84900401EC9
:1008D000B0FBF1F2521CC2F30B02042A01D2042035
:1008E00022E0B0FBF1F0401CC0F30B001CE0A2685A
:1008F000F2B301EBC10303EB0116431EB3FBF6F3A6
:100900005B1C43F480431B0549D092B301EBC10249
:1009100002EB0111401EB0FBF1F0401CC0F30B00D4
:1009200040F4804040F400402168CA694CF6FF73EF
:100930009A431043C861D4E9071001432068026854
:1009400022F0C00211430160D4E903010143206891
:10095000826848F2FF339A4311438160D4E905016C
:1009600008432168CA6822F0FF021043C86001E012
:100970000EE016E02068016841F001010160256485
:10098000202084F83D00256384F83E50002070BD8F
:1009900001EB4106431EB3FBF6F35B1CB3E70120FA
:1009A000C2E701EB4101401EB0FBF1F0401CC0F377
:1009B0000B00B7E7A086010080841E0000093D00FF
:1009C00040420F002DE9FF4F83B00025DDE910798B
:1009D0009A4693460446DDF848800095FFF728FFC5
:1009E000064694F83D0020287CD119230122854930
:1009F0002046009600F050FF0028F5D194F83C0006
:100A000001286FD0012084F83C0020680168C907E4
:100A100003D1016841F0010101602068016821F4FF
:100A200000610160222084F83D00402084F83E00EF
:100A300025646762A4F82A90608D20857248E06280
:100A4000CDE9008653465A462046049900F026FE1A
:100A500000287DD1208DDFF8B491202768B10128CE
:100A600014D00228206801681ED041F48061016022
:100A70002068416980690090B6E020684169816919
:100A80000091016841F400710160ADE020680168E7
:100A900021F48061016072B620684169816900912A
:100AA000016841F400710AE041F40061016072B62E
:100AB0002068416981690091016821F480610160C9
:100AC00062B691E0032868D801280CD0022843467A
:100AD0004FF000024946204600960FD000F0DCFEA1
:100AE000B0BB10E08BE032464146204600F07AFF72
:100AF00070BB20680069616A08706CE000F0CCFE91
:100B000030BB72B634E02068016821F48061016076
:100B100072B620680069616A0870606A401C606291
:100B2000208D401E2085608D401E6085384846F22D
:100B3000A8110068B0FBF1F0C0EBC00000EB800032
:100B40000090401E009008D020684069C04300E03B
:100B500029E040070CD50098F3E744F8305F67734D
:100B6000A573206940F02000206162B625731AE069
:100B70002068016841F40071016020680069616AC1
:100B80000870606A401C6062218D491E2185618D5C
:100B9000491E618562B621681BE032464146204607
:100BA00000F020FF18B1012007B0BDE8F08F2068E9
:100BB0000069616A0870606A401C6062218D491E8C
:100BC0002185618D491E618521684A69D24352079A
:100BD0000AD409690170606A401C6062208D401E61
:100BE0002085608D401E6085208D00287FF46AAFCF
:100BF00084F83D7084F83E5084F83C50D4E70220DD
:100C0000D2E70000020010000000FFFF0400010016
:100C1000100000202DE9FF4F83B09A46DDE91197BF
:100C200093460446DDF84080FFF702FE054694F83F
:100C30003D0020287FD119230122404920460095FC
:100C400000F02AFE002876D194F83C00012872D0EA
:100C5000012084F83C0020680168C90703D10168BD
:100C600041F0010101602068016821F40061016028
:100C7000212084F83D00402084F83E0000262664B0
:100C8000C4F82480A4F82A90608D20852C48E06266
:100C9000CDE9007553465A462046049900F07CFD84
:100CA00070B930E02A463946204600F0D3FE58B1EC
:100CB000206C042804D12068016841F400710160AF
:100CC000012007B0BDE8F08F606A216800780861F4
:100CD000606A401C6062218D491E89B22185628D47
:100CE000521E628522685369DB435B070BD469B1EE
:100CF00000781061606A401C6062208D401E208573
:100D0000608D401E6085208D0028CBD12A46394653
:100D1000204600F095FD0028CAD154F83D0B01682B
:100D200041F400710160202004F81E09E67766771F
:100D30000020C6E7FFE70220C3E700000200100022
:100D40000000FFFF10B586B00021009101910291D3
:100D500003910068104988421BD1104CA06940F0F3
:100D60000800A061A069694600F0080004904FF4F3
:100D70004060009012200190032003900848FFF784
:100D800061FCE06940F48000E061E06900F480000B
:100D9000049006B010BD0000005800400010024052
:100DA000000C01400248816802781144816070475C
:100DB00004000020074810B5016841F010010160EF
:100DC000032000F0A7F80F2000F006F800F050F81C
:100DD000002010BD0020024030B505461F4887B0F6
:100DE000C16941F00401C161C06906A900F00400B5
:100DF000009001A800F036F90498B0B100F052F963
:100E000040001749174AB0FBF1F11748491E02602C
:100E1000416040F2E7320021C0E903218160816135
:100E200000F008FB040003D015E000F03BF9E8E710
:100E30000D4800F02DFB04000DD11E2000F03CF801
:100E4000102D07D2002229461E2000F043F8074843
:100E5000056000E0012407B0204630BD00100240CC
:100E600040420F0000080040180100200800002048
:100E70000F4808B5816941F001018161816901F084
:100E800001010091C16941F08051C161C069002236
:100E900000F0805000900F21901E00F01BF80548D4
:100EA000416821F0E06141F00071416008BD00003F
:100EB0000010024000000140002809DB00F01F0282
:100EC000012191404009800000F1E020C0F80011AC
:100ED00070470000F0B40E4B1B680C46C3F30223AE
:100EE000C3F10705042D00D90425191D072901D2D6
:100EF000002300E0DB1E012606FA05F1491E214011
:100F000099409E40761E16403143F0BC01F0E9B98D
:100F10000CED00E0064900F0070208684FF6FF03F9
:100F2000184040EA0220034A10430860704700005E
:100F30000CED00E00000FA052DE9F0470F46050032
:100F400061D0434E306800F00700B84209D23068E3
:100F500020F0070038433060306800F00700B842E6
:100F600051D128683B4C810712D5400703D56068F2
:100F700040F4E06060602878000703D5606840F4C2
:100F8000605060606068A96820F0F000084360600D
:100F90002878C00728D06868012810D02168022866
:100FA00010D0890700292EDA616821F0030101437E
:100FB0006160FFF73DFC804641F288390DE0216811
:100FC0008903EFE78901EDE7FFF732FCA0EB0801A9
:100FD000494502D90320BDE8F0876068696800F0E0
:100FE0000C00B0EB810FEFD1306800F00700B84281
:100FF0000BD9306820F0070038433060306800F0CB
:101000000700B84201D00120E5E72878400705D560
:101010006068E96820F4E0600843606028780007B1
:1010200006D56068296920F4605040EAC10060601C
:1010300000F048F86168084AC1F30311515CC840E8
:101040000649086006480068FFF7C6FE0020C2E7B0
:1010500000200240001002403278000810000020FA
:10106000080000200F2202600C4A536803F00303BB
:101070004360536803F0F0038360536803F4E06354
:10108000C36052684FF4E06303EAD202026104488D
:10109000006800F007000860704700000010024080
:1010A000002002400448054900684968044AC1F329
:1010B0000221515CC840704710000020001002401F
:1010C000427800080E4A51680E4801F00C03042BC8
:1010D00011D0082B0FD10C48C1F38343C903C05C66
:1010E0000AD55168084AC1F34041921E515C054A35
:1010F0005043B0FBF1F0704704494843704700008B
:101100000010024000127A002278000800093D0019
:101110002DE9F84F040070D02078C04DC00749D0A9
:101120006868C0F38100012807D06868C0F38100B7
:10113000022809D16868C00306D52868800339D51C
:1011400060680028E7D035E06068B0F5803F0BD0DC
:1011500010B1B0F5A02F11D0286820F4803028609D
:10116000286820F4802002E0286840F4803028605D
:10117000606890B1FFF75CFB06460AE0286840F41F
:1011800080202860F0E700BFFFF752FB801B642837
:1011900073D828688003F7D50CE0FFF749FB0646B3
:1011A00005E000BFFFF744FB801B6428F0D82868E7
:1011B0008003F7D420789A4E80074FF001094FF052
:1011C000000839D5686810F00C0F07D06868C0F3C4
:1011D0008100022809D16868C00306D42868800706
:1011E00014D52069012808D110E02069B0B1C6F8F3
:1011F0000090FFF71DFB074605E00AE1FFF718FB2B
:10120000C01B0228C4D828688007F7D52868616900
:1012100020F0F80040EAC10028600DE0C6F8008028
:10122000FFF706FB074604E0FFF702FBC01B02289E
:1012300023D828688007F7D4207800072CD5794870
:10124000A169D9B1C0F80090FFF7F2FA074604E0AF
:10125000FFF7EEFAC01B02280FD8686A8007F7D59F
:1012600071484FF4FA510068B0FBF1F0009000BFF4
:101270000098411E0091FAD20EE080E0C0F8008094
:10128000FFF7D6FA074604E0FFF7D2FAC01B0228A0
:1012900075D8686A8007F7D42078400760D5E86978
:1012A0000027C00008D4E86940F08050E861E86990
:1012B000012700F0805000905C480168C90513D4F4
:1012C0000168834641F480710160FFF7B1FA8246FC
:1012D00006E000BFFFF7ACFAA0EB0A0064284ED886
:1012E000DBF80000C005F5D5E06801280AD008B198
:1012F000052813D0286A20F001002862286A20F00F
:10130000040002E0286A40F001002862E06841F22F
:10131000883B98B1FFF78CFA82460BE0286A40F0D0
:1013200004002862EEE700BFFFF782FAA0EB0A0193
:1013300059455AD8286A8007F6D50CE0FFF778FAA5
:10134000824605E0FFF774FAA0EB0A0159454CD834
:10135000286A8007F6D41FB1E86920F08050E86160
:10136000E06988B36968C1F38101022944D0022889
:10137000C6F8608004D0FFF75BFA044638E034E03A
:10138000FFF756FA074604E0FFF752FAC01B02289F
:101390002BD828688001F7D4206AB0F5803F05D1AA
:1013A0006868A16820F4003008436860D4E9080147
:1013B0000843696821F4741108436860C6F86090B6
:1013C000FFF736FA044606E025E000BFFFF730FAE3
:1013D000001B022809D828688001F7D51BE000BF50
:1013E000FFF726FA001B022802D90320BDE8F88F78
:1013F00028688001F4D40EE00128F7D06868226ADA
:1014000000F48031914204D1616A00F47010884286
:1014100001D00120EAE70020E8E7000000100240C8
:101420000000424280044242100000200070004050
:101430007047704710B5040003D094F83D0010B118
:1014400007E0012010BD002084F83C00204600F099
:101450001EF8022084F83D00211D206800F0F6FEF1
:10146000012084F8460084F83E0084F83F0084F8A8
:10147000400084F8410084F8420084F8430084F876
:10148000440084F8450084F83D00002010BD7047FA
:1014900090F83D10012901D001207047022180F809
:1014A0003D100168CA6842F00102CA6000680B4939
:1014B000884208D0B0F1804F05D00949884202D057
:1014C0000849884204D1816801F00701062903D048
:1014D000016841F00101016000207047002C0140CB
:1014E0000004004000080040704770B504460068E2
:1014F00001694FF00005C943890715D4C168C94384
:10150000890711D4E91E01610120207720688069D4
:101510008007204602D0FFF7E7FF04E000F098F8CC
:10152000204600F096F8257720680169C9434907ED
:1015300017D4C168C943490713D46FF0040101618E
:10154000022020772068806910F4407F204602D076
:10155000FFF7CAFF04E000F07BF8204600F079F8BE
:10156000257720680169C943090716D4C168C943B2
:10157000090712D46FF00801016104202077206868
:10158000C0698007204602D0FFF7AEFF04E000F0FC
:101590005FF8204600F05DF8257720680169C943AF
:1015A000C90617D4C168C943C90613D46FF0100126
:1015B0000161082020772068C06910F4407F204630
:1015C00002D0FFF791FF04E000F042F8204600F05F
:1015D00040F8257720680169C943C90708D1C16867
:1015E000C943C90704D1891E0161204600F032F8C1
:1015F00020680169C943090609D4C168C9430906BD
:1016000005D46FF0800101612046FFF711FF2068CB
:101610000169C943490609D4C168C943490605D4CB
:101620006FF040010161204600F01EF8206801695A
:10163000C94389060BD4C168C943890607D46FF032
:10164000200101612046BDE87040FFF7F2BE70BD89
:101650007047704700680349884201D1FFF7A2BB79
:1016600070470000000800407047FEE701684A69C3
:10167000D24352050FD46FF480624A61002140F8D2
:10168000301F202242738173026942F0040202611A
:101690000173012070470020704700002DE9F84FCA
:1016A0000446006889460B9D01689846174641F438
:1016B000806101602068016841F4807101600095DB
:1016C0004FF0011B0022594620460A9B00F0E4F827
:1016D0004FF4007A40B120680068C00501D5C4F815
:1016E00040A00320BDE8F88F216809F0FE000861E2
:1016F0002B46284920460A9A00F016F9F0BB2068CC
:101700004169806900902A4620460A9900F0A2F9B2
:1017100040B1206C04283AD12068016841F400717E
:10172000016034E0FEB2B8F1010F09D02168380A37
:1017300008612A4620460A9900F08CF90028E8D171
:10174000206806612A4620460A9900F083F900289D
:10175000DFD12068016841F48071016000950022AA
:10176000594620460A9B00F097F80028B3D121681B
:1017700009F0FF0040F00100086100E007E02B469F
:10178000044920460A9A00F0CFF80028AAD0012088
:10179000A8E70000020001002DE9F84304460068B4
:1017A0000D46DDE9089701689846164641F48071B8
:1017B00001604B4600224FF001112046009700F0D7
:1017C0006BF848B120680068C00502D54FF400707E
:1017D00020640320BDE8F883216805F0FE0008615D
:1017E0003B464A461549204600F09EF888B92068D5
:1017F0004169806900903A464946204600F02AF93E
:1018000048B1206C042804D12068016841F40071BB
:1018100001600120DEE7F5B2B8F1010F09D02168BF
:10182000300A08613A464946204600F013F900287C
:10183000E7D1206805610020CCE70000020001002C
:1018400070B516460D4604461EE02046FFF70EFF13
:1018500008B1012070BD681C16D0FEF7E9FF801B9F
:10186000A84200D885B920684069C04340070BD51D
:10187000002044F8300F20216173A073216941F0EA
:10188000200121612073E4E720684069C0434007DC
:10189000DBD4002070BD00002DE9F04798461746C4
:1018A0000D460446C1F30746DDF820902AE000BF4C
:1018B000B8F1FF3F26D0FEF7BBFFA0EB0901414581
:1018C00002D8B8F1000F1DD12068012E16D0806912
:1018D00025EA00000004000C12D00020B84211D10B
:1018E000002044F8300F20216173A073216941F07A
:1018F0002001216120730120BDE8F0874069E7E7FE
:101900000120EBE72068012E0AD0806925EA00005B
:101910000004000C06D00020B842C9D00020EBE73C
:101920004069F3E70120F7E72DE9F04798461646AE
:101930000D4604464FF000094FF0200AC1F3074757
:1019400023E020684069C043400515D42068016841
:1019500041F40071016021686FF480604861C4F84F
:10196000309084F83DA084F83E90216C41F0040151
:10197000216484F83C9021E0701C06D0FEF758FFEB
:10198000A0EB0800B04203D816B1012F1FD021E010
:101990002068012F15D0806925EA00000004000CA2
:1019A00018D000BF44F8309F84F80DA084F80E9042
:1019B000216941F02001216184F80C900120BDE8EB
:1019C000F087406925EA00000004000CEAD1206895
:1019D000406901E02068806925EA00000004000CED
:1019E000AFD1ECE72DE9F041002590460E460446C4
:1019F000202728E04069C043C0060CD454F8301BAF
:101A00006FF01000486144F810596777A577206A95
:101A10002062257714E0FEF70BFFA0EB0800B04230
:101A200000D886B920684069C04340060BD544F809
:101A3000305F6773A573206940F020002061257333
:101A40000120BDE8F08120684169C9434906D1D42D
:101A50000020F6E770B516460D4604461EE0204607
:101A6000FFF704FE08B1012070BD681C16D0FEF718
:101A7000DFFE801BA84200D885B920684069C043BA
:101A800000060BD5002044F8300F20216173A073AD
:101A9000216941F0200121612073E4E72068406959
:101AA000C0430006DBD4002070BD00002DE9FF4FCD
:101AB0008DB00CA906A8CDE900010BAB07AA04A9BB
:101AC00002A801F01FF920B14FF0FF3011B0BDE8BE
:101AD000F08FBDF81800C0057ED5079805F08AF98B
:101AE0006FF01D04214605F052FB8246089805F070
:101AF00081F9214605F04BFB8146099805F07AF9FA
:101B0000214605F044FB80460A9805F073F921460A
:101B100005F03DFB05460121504605F038FB064621
:101B2000414605F093F904464FF04041484605F020
:101B30008DF90746294605F089F9214604F0F4FF9E
:101B400004F0C6FF00F086FC4FF0663B5A464A4B55
:101B500004F0E4FC04F0A8FA0D9908600121404665
:101B600005F015FB4146009005F070F90446384633
:101B7000494605F06BF9214605F034FA4FF07E51E5
:101B800004F0D2FF04F0A4FF07460C463046494655
:101B900005F05CF906462946009805F057F93146EC
:101BA00004F0C2FF04F094FF3A46234600F09AFE88
:101BB0005A46314B04F0B2FC04F076FA0E990860F4
:101BC0002946084605F042F907464146084605F011
:101BD0003DF90646494600E04BE0084605F036F977
:101BE00004465146084605F031F9214604F09CFFB1
:101BF000314605F0F7F9394605F0F4F904F068FFCD
:101C000006460C462946504605F020F90546414651
:101C1000484605F01BF9294604F086FF012105F02E
:101C2000B6FA04F055FF3246234600F05BFE5A46F2
:101C3000114B04F073FC04F037FA0F990860109808
:101C4000BDF8081001801A98BDF80A1001801B9891
:101C5000BDF80C1001801C98BDF8101001801D9873
:101C6000BDF8121001801E98BDF8141001800020EC
:101C70002CE76FF0010029E766A64C4038B56846AE
:101C800001F082FF10B14FF0FF3038BD782002F034
:101C900027FD10B16FF0010038BD782001F0A6FEDD
:101CA00010B16FF0020038BD642002F0CDFC10B11D
:101CB0006FF0030038BD01F01BF810B16FF00400A5
:101CC00038BD1948044601F05BFE0546E01C01F0F2
:101CD00057FE45EAC005A01D01F052FE45EA8010FE
:101CE00080B201F0B7F910B16FF0050038BD40F2D5
:101CF000731000F0D5FE10B16FF0060038BD6420FF
:101D000001F010F910B16FF0070038BD03F05AFA76
:101D100010B16FF0080038BD012002F08FFB0028E1
:101D2000F9D06FF0090038BDB800002010B5044AA2
:101D30000021044802F0D4FD0349086010BD0000F2
:101D4000FC770008D12000080000002070B586B0A4
:101D5000002418480094019402940394816941F08E
:101D600020018161816901F020010491816941F0C4
:101D700008018161816901F008010491816941F0E4
:101D80000401816180690C4E00F004004FF440753D
:101D90000490002229463046FEF744FD11200095AC
:101DA000CDE901040220039069463046FEF74AFC63
:101DB00006B070BD00100240000C01400D4810B587
:101DC0000B4901600C49416000214FF48042816061
:101DD000C0E9031241618161C1610162FEF72EFD1C
:101DE000002803D0BDE81040FEF717BC10BD00006E
:101DF00000580040C4000020A0860100FEE7FEE776
:101E000070B500240021204600F0ABF8002500202A
:101E100000F04DF96D1CEDB2802DF8D3641CE4B2D6
:101E2000082CEFD370BD10B5FFF790FF012000F034
:101E30001DF9BDE81040012000F020B970B5002464
:101E40000546802626FA04F0284000F017F9012004
:101E500000F00CF9002000F009F9641CE4B2082C31
:101E6000F0D3012000F002F9BDE87040002000F03E
:101E7000FDB810B5012000F001F9012000F0F6F8DE
:101E8000002000F0FBF8BDE81040002000F0EEB8A4
:101E900010B5002000F0F2F8012000F0E7F8BDE8EE
:101EA0001040012000F0EAB810B500204FF47A721B
:101EB0000021491C9142FCD3401C9042F8D3FFF70B
:101EC000B2FFAE2000F0E2F8D52000F0DFF880206D
:101ED00000F0DCF8A82000F0D9F83F2000F0D6F898
:101EE000D32000F0D3F8002000F0D0F8402000F01C
:101EF000CDF8A12000F0CAF8C82000F0C7F8DA2019
:101F000000F0C4F8122000F0C1F8812000F0BEF803
:101F1000CF2000F0BBF8D92000F0B8F8F12000F095
:101F2000B5F8DB2000F0B2F8302000F0AFF8A420C4
:101F300000F0ACF8A62000F0A9F88D2000F0A6F87B
:101F4000142000F0A3F8AF2000F0A0F8BDE8104086
:101F5000FFF756BF0246012000E05043491EFCD265
:101F6000704710B50C4640F0B00000F08FF810201C
:101F700040EA141000F08AF804F00F00BDE81040A9
:101F800000F084B82DE9F0410746CE004000083E3D
:101F9000801E15464FF0FF38F1B2C0B2FFF7E1FFE7
:101FA0001148002400EB05152819A0F5805090F881
:101FB000000E00F07CF8641CE4B2082CF4D308EBAB
:101FC0004700F1B2C0B2FFF7CCFF00242819A0F5FA
:101FD000805090F8080E00F06AF8641CE4B2082CF7
:101FE000F4D3BDE8F08100000A7200082DE9F04743
:101FF0001E4614008846814604D42B22FFF7C2FFF8
:10200000254603E02D22FFF7BDFF654200240A2785
:1020100014E0311B0A20491EFFF79CFFB5FBF0F0CE
:10202000B0FBF7F107FB110208EB0400401CC1B242
:1020300048463032FFF7A6FF641CE4B2B442E8D34E
:10204000BDE8F0872DE9F04115460E46074600240D
:1020500006E03019C1B23846FFF794FF641CE4B2C1
:102060002A5D002AF5D1BDE8F081000002464FF458
:1020700080710148FEF7D6BB000C014002464FF4C8
:1020800000710148FEF7CEBB000C014010B50446BC
:10209000FFF7EFFE7820FFF7D1FE0020FFF7CEFE1E
:1020A0002046FFF7CBFEBDE81040FFF7F1BE10B5AC
:1020B0000446FFF7DEFE7820FFF7C0FE4020FFF762
:1020C000BDFE2046FFF7BAFEBDE81040FFF7E0BEB8
:1020D0008EB04FF47A7500BFFFF7D0FD04460121A2
:1020E0002FA20846FFF7AEFF01212EA20846FFF7F8
:1020F000A9FF0123224608211846FFF777FF28464B
:10210000FEF78EFA002CE7D1012125A20846FFF741
:1021100099FF012125A20846FFF794FF09AC08ADFD
:1021200007AE06AF0DF11408CDF80080CDE90354D9
:10213000CDE901760AAB0DAA0CA90BA8FFF7B6FCF6
:1021400048B30523BDF91C2001210220FFF74EFFF3
:102150000523BDF9202001210320FFF747FF0523B8
:10216000BDF9242001210420FFF740FF0523BDF91C
:10217000282008210220FFF739FF0523BDF914208C
:1021800008210320FFF732FF0523BDF9182008219D
:102190000420FFF72BFF642002F04CFBC4E7000093
:1021A00020000000496E69744E473A00496E697418
:1021B0004F4B000010B5502080F31188BFF34F8FB4
:1021C000BFF36F8F03F0CEFD18B104494FF080507C
:1021D0000860002080F3118810BD000004ED00E0CD
:1021E00030B58FB028216846FEF7D7F814210AA829
:1021F000FEF7D3F801210804CDE900100024029471
:1022000002250491CDE907504FF4E010099068468B
:10221000FEF77EFF08B172B6FEE70F20CDE90A0592
:102220004FF48060CDE90C4002210AA80E94FEF71D
:1022300083FE002801D072B6FEE70FB030BD7047B4
:102240000148FFF752B9000018010020F0B50268FC
:10225000164B174C174D4FF08047984205D0B842A7
:1022600003D0A04201D0A84203D122F070064A68F0
:102270003243984205D0B84203D0A04201D0A842D0
:1022800003D122F44074CA6822434C6922F08002D0
:10229000224302608A68C2620A688262984201D15F
:1022A0000969016301214161F0BD0000002C01407A
:1022B0000004004000080040FEE7490050EAC12049
:1022C00018BF04204A0D18BF40F0010040F2FF7211
:1022D000B2EB515F08BF40F00200012808BF0520A3
:1022E00070470907090E002804DB00F1E02080F8A0
:1022F0000014704700F00F0000F1E02080F8141D7A
:1023000070472DE9F0414F1E00EBC7010446D1E9AB
:10231000000115461E4637F006020DD02A46334608
:1023200004F0FCF87F1E04EBC703D3E9002303F09D
:10233000EDFE37F00602F1D1022F25D0042F13D085
:10234000062F18BFBDE8F0812A46334604F0E6F8B0
:10235000D4E90A2303F0DAFE2A46334604F0DEF815
:10236000D4E9082303F0D2FE2A46334604F0D6F817
:10237000D4E9062303F0CAFE2A46334604F0CEF819
:10238000D4E9042303F0C2FE2A46334604F0C6F81B
:10239000D4E9022303F0BAFE2A46334604F0BEF81D
:1023A000D4E90023BDE8F04103F0B0BE012204F0FF
:1023B000C0BE03F0ABBE002213461046114603F028
:1023C00055BF0000024A0020110704F0B2BE000011
:1023D00001FDFFFF2DE9FE4F07460E46002568462A
:1023E00000F0DCFF00246FF00F0AE8464FF001090F
:1023F00057F8240056F82410401A00D5404204F043
:10240000F9FC514604F0C3FE58F8241011F0FF4FB8
:102410000BD004F0F1FB4FF07E5104F0E3FD0A49CC
:1024200020F00040884205DC07E0084908440849DC
:10243000884202D309FA04F00543641C032CD7DB5D
:102440002846BDE8FE8F00005C8F423E666666C18E
:102450009A99D9002DE9F04D8D4F21F0004A86B0B0
:1024600005460C46BA452ADBAAEB070028430AD0EA
:102470008848824501DC1AD1CDB106B02846BDE8B6
:10248000F04DFFF793BF844A844B284604F046F88A
:1024900007460E46824A834B2846214604F03EF802
:1024A00006B03A463346BDE8F04D03F02FBE01209A
:1024B000FEF719F806B0BDE8F04DFFF77CBF7A488B
:1024C000824542DABAF1795F0BDA2846FFF7F5FE6A
:1024D000042808BFFFF776FF284606B02146BDE86E
:1024E000F08D2A460B46104604F018F88346024643
:1024F0006E480E460B4606217844FFF702FF5A4607
:10250000334604F00BF8804669488A465A463346FB
:1025100004217844FFF7F5FE5A46334603F0FEFFE8
:1025200000223B4603F0F2FD02460B464046514670
:1025300003F09CFE2A46234603F0F0FF06B02A462D
:102540002346BDE8F04D03F0E1BD284624F00041EC
:1025500000223D463B4604F0DFF84FF0FF3204F026
:10256000E8FD0646024653480F460B4606217844CE
:10257000FFF7C7FE32463B4603F0D0FFCDE900012E
:102580004D4832463B4604217844FFF7BAFE3246B6
:102590003B4603F0C3FF00222B4603F0B7FD834602
:1025A00002913046394602F085FE804643480D468A
:1025B000504517DCDDE900015A46029B03F056FE48
:1025C00042462B4603F0AAFF42462B4603F09EFDEF
:1025D000012204F0AEFD304A304B04F08FF9304A4E
:1025E000304B4CE04FF0000A52460B46404603F099
:1025F0008DFDCDE9031052462B461046194603F0D7
:102600008DFF32463B4604F087F8DDE9033203F0E4
:102610002DFE06460F46DDE900015A46029B03F0F7
:1026200025FE8346009101223046394604F081FDA3
:10263000194A1A4B04F070F806460F46012240462C
:10264000294604F076FD5A46009B03F067FF3246A8
:102650003B4604F053F906460F46012250462946F0
:1026600004F067FD0E4DDFF858802A46434604F01B
:1026700053F832463B4604F04FF82A46434604F0EE
:102680004BF8002CD8BF81F0004106B0BDE8F08DBA
:102690000000F03F0000F07F075C143326A6913C59
:1026A000182D4454FB21F93F0000E03F9C5F0000DF
:1026B000B25F0000265F00003C5F00003333EF3F55
:1026C000FB21E93F2DE9F84F04460D4621F000407B
:1026D00000917349814211DC7249884201DC06D1C4
:1026E0002CB120462946BDE8F84FFFF75FBE6E4883
:1026F000002DCCBF6D496E49BDE8F88F6D49814210
:1027000011DD6D498142D8BF4FF0FF366DDD2046A7
:102710002946FFF7D2FD042808BFFFF753FE2046E5
:102720002946BDE8F88F6549654F25F0004581428F
:1027300033DD6449814219DD002632464FF0804383
:102740002046294603F0E2FC80468A4601222046C4
:10275000294604F0EEFC00223B4604F0CFF8424646
:10276000534603F083FD04460D463EE00126002259
:10277000BA463B462046294603F0C8FC80460F4631
:10278000002253462046294604F0B8F842463B460C
:1027900003F06CFD04460D4627E04B4981421BDDEA
:1027A000DFF828A10226002253462046294603F0DE
:1027B000B5FE00223B4603F0A9FC80460F460022EE
:1027C00053462046294604F099F842463B4603F01A
:1027D0004DFD04460D4608E0032622462B46002008
:1027E0003B4903F043FD04460D4622462B46104666
:1027F000194603F093FE8B46824602460B4603F0D1
:102800008DFE07460246334888460B46062178442B
:10281000FFF777FD52465B4603F080FE82462E4866
:102820008B463A46434605217844FFF76AFD3A460F
:10283000434603F073FE02460B46002E50465946AF
:102840000CDA03F063FC22462B4603F067FE01B06E
:1028500022462B46BDE8F04F03F05EBF03F056FC66
:1028600022462B4603F05AFE1C4A7A4402EBC6036A
:10287000D3E9002304F042F822462B4604F03EF848
:10288000174A7A4402EBC603D3E9002303F044FF5E
:10289000009A002AB8BF81F00041BDE8F88F00001F
:1028A000000010440000F07F182D4454FB21F93F34
:1028B000FB21F9BF0000DC3F0000203E0000F33F99
:1028C0000000F03F0000E63F008003400000F83FBA
:1028D0000000F0BF3E5D0000FC5C00009A5C000060
:1028E000625C00002DE9F04D9446CCF1000423F029
:1028F00000464CEA0404524F46EAD4749A4688468D
:1029000021F00042BC4206D8454240EA050442EAB2
:10291000D474BC4204D9BDE8F04D6246FFF749BD0E
:10292000AAF14055A5F17F6555EA0C040BD00224AD
:1029300004EAAA74434DDFF810E144EAD87452EA7D
:10294000000B04D00CE0BDE8F04DFFF7BBBE002C3F
:1029500014BF012CBDE8F08D022C30D0032C32D0F6
:1029600056EA0C0B0AD0BE4220D1BA4209D126F059
:10297000804622F080423346114617E000291ADBD8
:1029800025E0DFF8C8B0FB44002C04BFDBE9000100
:10299000BDE8F08D012C02BFDBE9000181F00041B0
:1029A000BDE8F08D022C0AD0032C0CD0BA4212D113
:1029B000B8F1000F0BDA23482549BDE8F08D284611
:1029C0002449BDE8F08D28467146BDE8F08D1D48CC
:1029D0002149BDE8F08D921B12153C2AC4BF19484D
:1029E0001D490EDCBAF1000FBEBF12F13C0F0020F2
:1029F000014606DB624603F039FC21F00041FFF797
:102A000061FE002C08BFBDE8F08D012C04BF81F0F1
:102A10000041BDE8F08D114A114B022C07D003F0A4
:102A20006DFF2A46BDE8F04D0A4B03F067BF03F087
:102A300065FF2A46BDE8F04D064B03F06DBE000071
:102A40000000F07F182D4454FB2109C0F65B000004
:102A5000FB21F9BFFB210940FB21F93F075C14333F
:102A600026A6A13C08B560B120208DF800002820E2
:102A70008DF8010030208DF8020038208DF8030019
:102A800004E0A32204216846FDF77FFC6A46042186
:102A900040F69E2001F094FE01F08EFA08BD000081
:102AA0003EB5044602208DF80000CA208DF80100D2
:102AB000E3208DF8020009208DF803006A46042106
:102AC000682001F07DFEA3208DF80000610609D585
:102AD000C0218DF80110C8218DF80210C2218DF897
:102AE000031005E08DF801008DF802008DF8030059
:102AF00014F4C07F09D0C4218DF80410CC218DF8C6
:102B00000510C6218DF8061005E08DF804008DF83B
:102B100005008DF806008DF808008DF807008DF887
:102B200009006A460A2140F6A72001F049FEA007E5
:102B30004FF0D80503D020208DF8000001E08DF87B
:102B400000506A46012140F6B62001F039FEA00689
:102B500001D5012000E0002000F08EF814F4C07FC1
:102B60001ED0E0050AD5B2208DF800008B208DF82C
:102B70000100B6208DF802009B2009E0B0208DF8FE
:102B8000000080208DF80100B4208DF80200902014
:102B90008DF803006A46042140F6A22001F010FEE1
:102BA000E1074FF40B6022D0F8218DF800106A463F
:102BB000012101F005FEFA21072000F03BFB072070
:102BC00000F006FB012000F023FB642000F0C6FBB0
:102BD0004FF4FA7000F0D2FBC821254800F0C0FA8B
:102BE000282000F0D5FA0A2000F0E2FA05E08DF87E
:102BF00000506A46012101F0E3FDA00703D5D9206A
:102C00008DF8000001E08DF800506A46012140F285
:102C10003D7001F0D5FD600701D5012000E00020E6
:102C200000F048F8E00601D5012000E00020FFF7A1
:102C300019FF104D44F00800688101F0BDF9002033
:102C4000A873600601D50620A87314F4C07F02D0D3
:102C5000A87B801DA87314F0140F02D0A87B10303D
:102C6000A873A00702D0A87B001DA87300203EBD5A
:102C700009E3CA02341A00200EB54FF4976310B16D
:102C800006A107C901E008A207CA8DE807006A4645
:102C90000921184601F094FD0EBD0000B8AAB38DBD
:102CA000B4980D355D000000B8AAAAAAB088C3C5C3
:102CB000C700000008B560B1C0208DF80000C22038
:102CC0008DF80100C4208DF80200C6208DF80300A5
:102CD00004E08B2204216846FDF757FB6A46042175
:102CE00040F6982001F06CFD01F066F908BD000087
:102CF000C8234FF48062024940F6F63000F0F0BF7E
:102D00009C7800082DE9FF4F89B01746DDE916527F
:102D100000244D4E884681462C80A246B07B6946F1
:102D200001F0AEF84FF0FF3B18B158460DB0BDE8CA
:102D3000F08F708910F0140F3CD0009909BA21F07F
:102D4000FF039DF803100B433B6001991B1409BA64
:102D500021F0FF029DF807105B430A437A60029955
:102D60009DF80B4009BA21F0FF012143B960039C93
:102D7000091424BA24F0FF0C9DF80F4012144CEAF9
:102D8000040CC7F80CC04FEA2C47494302FB02323F
:102D900007FB071111441024A1F17061B1F1007F0C
:102DA00004D901F009F9A5F800A0BEE7298841F48B
:102DB000807129804206694611D50A19A41D13881D
:102DC0005BBAA8F8003053885BBAA8F80230928842
:102DD00052BAA8F804202A8842F008022A8010F487
:102DE000C07F11D00A19A41D13885BBAA9F800305E
:102DF00053885BBAA9F80230928852BAA9F8042025
:102E00002A8842F070022A80800716D00C44E078AD
:102E100000F0C00500F03F016078C00706D0C80888
:102E200001F007013268491C02B190476078000741
:102E300003D5716809B1A8098847FDF7F9FC0C9919
:102E40000860002072E70000341A00202DE9FF41DD
:102E5000044603A800F012FEBDF80C00410CC303A9
:102E600000BF2F48028902F00300550754F82000E4
:102E700000D54042C2F3C105960654F8255000D54E
:102E80006D42C2F38116D20554F8264000D5644243
:102E9000A0FB0367C21702FB037200FB0120820044
:102EA00042EA9670A5FB0367EA1702FB037205FB73
:102EB0000122950045EA9672A4FB0367E51705FB1E
:102EC000037304FB01318B0043EA9671030E8DF806
:102ED0000030030C8DF80130030A8DF802308DF8B4
:102EE0000300100E8DF80400100C8DF80500100A78
:102EF0008DF80600080E8DF80800080C8DF8090002
:102F0000080A8DF80A008DF807208DF80B106A4624
:102F10000C214FF4257001F053FC04B0BDE8F081A2
:102F2000341A002030B5044613A285B007CA8DE8D4
:102F300007004FF0FF35C82C16D8C820B0FBF4F1BD
:102F4000491E080A8DF80C008DF80D1003AA022105
:102F500040F2162001F034FC30B96A460C2140F6EC
:102F6000C12001F02DFC10B1284605B030BD054848
:102F700084810020F9E70000FEF2ABC4AAF1DFDF94
:102F8000BBAFDFDF341A0020F8B53049098901F002
:102F9000030250F822404A0700D56442C1F3C1023F
:102FA0008B0650F8222000D55242C1F3811350F80D
:102FB0002330C80500D55B42254984FB01408500CC
:102FC00045EA947082FB0142A40F44EA820483FB29
:102FD0000121950F45EA8105010E8DF80010010CC5
:102FE0008DF80110010A8DF802108DF803006A4671
:102FF00004214FF4747001F0E3FB4FF0FF3688B901
:10300000200E8DF80000200C8DF80100200A8DF8AC
:1030100002008DF803406A4604214FF4757001F0F8
:10302000CFFB08B13046F8BD280E8DF80000280C03
:103030008DF80100280A8DF802008DF803506A46C9
:1030400004214FF4767001F0BBFBF8BD341A002068
:1030500009E3CA022DE9FF4104463CA004F0030342
:10306000006802903AA0006803903AA006683AA06F
:10307000056802A8C15C8DF80010C4F3C101425C70
:103080008DF80120C4F38112805C8DF8020003A842
:10309000C35C8DF80430415C8DF80510805C8DF8C0
:1030A00006006A46032140F2264001F089FB4FF0FA
:1030B000FF37E0BB01AA032140F22A4001F080FB68
:1030C000A8BBCDE9006560070BD59DF8000040F076
:1030D00001008DF800009DF8040040F001008DF81B
:1030E0000400A0060BD59DF8010040F001008DF80A
:1030F00001009DF8050040F001008DF80500E00595
:103100000BD59DF8020040F001008DF802009DF8FB
:10311000060040F001008DF806006A4603214FF4D6
:10312000886001F04DFB10B901AA032100E004E022
:1031300040F2314001F044FB18B1384604B0BDE81C
:10314000F081064804810020F8E700004CCD6C00B7
:103150000CC92C003656760026466600341A00202C
:103160004FF47A7290FBF2F008B54843010E8DF8E7
:103170000010010C8DF80110010A8DF802108DF875
:1031800003006A4604214FF4AE7001F019FB08BD3C
:103190000521B0FBF1F008B5010A8DF800108DF89B
:1031A00001006A4602214FF4AD7001F009FB08BD31
:1031B0000521B0FBF1F008B5010A8DF800108DF87B
:1031C00001006A4602214FF4AC7001F0F9FA08BD23
:1031D00008B500218DF80010C10702D030218DF80C
:1031E0000010810705D59DF8001041F00C018DF805
:1031F0000010400705D59DF8000040F003008DF851
:1032000000006A4601214FF4A47001F0D9FA08BD0C
:1032100008B560B1042800D90420401E8DF80000D4
:103220006A46012140F24F1001F0CAFA08BD0120A0
:10323000F3E700002DE9FC41054640074FF0FF365B
:103240007CD0B1F5C86F79D8084603F0EBFD3E4954
:1032500003F0D2FC074601A800F0F2FB9DF8040041
:10326000022806D004280DD008282ED0102865D1B9
:1032700034E00E21384603F08AFF03F09BFD84B250
:10328000324907E00D21384603F081FF03F092FD3B
:103290002F4984B2384603F0D9FD03F08BFD210A93
:1032A0008DF8001080B28DF80140010A8DF80210EF
:1032B0008DF80300E8076C4620D0224602214FF427
:1032C000EA7001F07DFAC8BB11E00C21384603F02A
:1032D0005EFF03F06FFD84B21E49DBE70B21384629
:1032E00003F055FF03F066FD84B21B49D2E7A21C30
:1032F00002214FF4927001F063FAF8B9A8070DD5D6
:103300006A4602214FF4EC7001F05AFAB0B9A21CDF
:1033100002214FF4947001F053FA78B9680710D580
:103320006A4602214FF4EE7001F04AFA30B9A21C4D
:1033300002214FF4967001F043FA10B13046BDE817
:10334000FC810020FBE700000000484300004046ED
:103350000000C045000040450000C0440521B0FB0E
:10336000F1F008B5010A8DF800108DF801006A46E9
:1033700002214FF4EF7001F023FA08BD0521B0FBE4
:10338000F1F008B5010A8DF800108DF801006A46C9
:1033900002214FF4ED7001F013FA08BD2DE9F0435E
:1033A00085B006464FF0FF32042104A88DE80700DF
:1033B000264801230D224068007841002448FDF78B
:1033C00001FB18B1072005B0BDE8F0839DF810108F
:1033D0001C2000EAD1029DF81310DFF87890C1F3A9
:1033E00001131A438DF80C209DF81120C1F38103BD
:1033F00000EAD2021A438DF80D209DF8122001F048
:10340000030100EAD20008430024134F8DF80E0098
:10341000A04603AD285D10B146F8249009E046F8B7
:1034200024800CE056F82400394603F00FFD46F8DE
:103430002400285D401E10F0FF002855F2D1641CC6
:10344000E4B2032CE6D30020BDE700008C0000208E
:10345000C40000207B14AE3E1D5A843F2DE9F04F7E
:1034600087B0054602200DF10C0A4FF00109DFF884
:1034700018B4CDE900A08DF80C904FF000084FF083
:10348000FF368DF80D8002960C46DBF80400DBF861
:103490000010174600784A7D41004B46FB48FDF777
:1034A000B9FB00287DD1C820FDF7BAF800208DF8BF
:1034B0000C00B046CDF800A0CDE90198DBF8000083
:1034C0005E460123427CDBF8040000784100EF48AF
:1034D000FDF7A0FB002865D1401ECB46CDF800A02B
:1034E000CDE901B070683168D04600784A79410072
:1034F000B1460123E548FDF78DFB20B14FF0FF30C9
:1035000007B0BDE8F08FDA464FF0FF36CDF8008007
:10351000CDE901A6D9F80400D9F80010C346007817
:103520004A7D4100C8460123D848FDF773FB0028B7
:10353000B8D1B146CDF800B0CDE901A9D8F8040062
:10354000D8F80010564600788A7E41000123CF4803
:10355000FDF760FB002871D1CA46B146CDF800B036
:10356000CDE9019AD8F80000464601230279D8F83F
:10357000040000784100C548FDF74CFB00287DD1D0
:103580000C208DF80C00D046CDF800B0CDE90198A4
:103590003068DA4602797068007841000123BB4840
:1035A00001E0A5E02BE0FDF735FB40BB0F20FDF768
:1035B00037F8B06AD3460123407A8DF80C00CDF875
:1035C00000A0CDE9019830688278706800784100E9
:1035D000AE48FDF71FFB90B9B06ACA460123007AD6
:1035E0008DF80C00CDF800B0CDE901983068427834
:1035F000706800784100A548FDF70CFB08B1404613
:103600007EE7B06A807A0FB140F0E000CDE900BA01
:10361000C1468DF80C00CDF808903068D8460123DB
:1036200082797068007841009848FDF7F3FA28B96C
:103630002FB1B06AC07A40F0E00001E029E0182024
:10364000CDE9008A8DF80C00CDF808903068012390
:10365000C2797068007841008C48FDF7DBFAC0B988
:1036600017B1C820FCF7DCFF402057468DF80C004E
:10367000CDF80080CDE90179C24600E073E0306802
:10368000012302797068007841008048FDF7C2FA92
:1036900008B1484634E7CDE900A778208DF80C0042
:1036A000CDF8089070683168CB4600784A794100BF
:1036B000B04601237548FDF7ADFA08B158461FE73B
:1036C0003220FCF7ADFF4FF000098DF80C90CDF8DB
:1036D00000A0CDE9017BD8F80400D8F800105E46C0
:1036E00000784A79410001236848FDF793FA08B150
:1036F000304605E7022003AACDE900200296D8F85B
:103700000400D8F80010B24600780A7B410001237B
:103710005E48FDF757F930BBBDF80C004FF00C0BBD
:1037200040BAB0FBFBF0C5F80890C5F80490C5F8A6
:103730000090C4F80890C4F80490C6B20027C4F8FA
:1037400000903EE003AACDE9002BCDF808A0D8F800
:103750000400D8F80010012300784A7B41004B4850
:10376000FDF730F908B15046CAE6BDF80E10BDF8B5
:103770000C0049BA40BA0AB2236800B2BDF8101072
:1037800018442060606849BA10446060A06809B2BB
:103790000844A060BDF812002B6840BA00B2BDF822
:1037A0001410BDF816201844286049BA686809B298
:1037B0000844686052BAA86812B210447F1CFFB275
:1037C000A860B742BED328688322C117090441EA22
:1037D000104100040023FCF743FD32460023FCF7B0
:1037E0003FFD286068688322C117090441EA10413F
:1037F00000040023FCF734FD32460023FCF730FDC3
:103800006860A8688322C117090441EA10410004D6
:103810000023FCF725FD32460023FCF721FDA860BC
:1038200020684FF40065C117090441EA1041000403
:103830002A460023FCF714FD32460023FCF710FD56
:10384000206060682A46C117090441EA104100045B
:103850000023FCF705FD32460023FCF701FD606004
:10386000A0682A46C117090441EA10410004002358
:10387000FCF7F6FC32460023FCF7F2FCA0600028BF
:1038800006DDA0F5803005E08C000020C40000209B
:1038900000F58030A060002032E600002DE9FF5FD7
:1038A00088468146002503AE681E03210096CDE9B7
:1038B00001102D4801230D224068007841002B485B
:1038C000FDF780F818B1072004B0BDE8F09F9DF81F
:1038D0000C00002400F01F008DF80C009DF80D0076
:1038E0006FF00F0B00F01F008DF80D009DF80E001B
:1038F0004FF0010A00F01F008DF80E0059F8241057
:1039000058F82400081A00D5404203F073FA5946CB
:1039100003F03DFC0746305DC0B1154802E0154993
:1039200003F094FA315D491E11F0FF013155F6D1D3
:103930000146384603F060F94FF07E5103F052FB28
:103940000D4920F00040884205DC07E00B48384470
:10395000B0F1D97F02D90AFA04F00543641C032CA4
:10396000CCDB2846B0E700008C000020C40000201B
:103970000000C84154E3853F295C0F3E0000E0BED3
:1039800090F90010002902DD4FF00000704702DAC4
:103990004FF00400704790F90110002902DD4FF04C
:1039A0000100704702DA4FF00500704790F90200FD
:1039B000002802DD4FF00200704702DA4FF00600E7
:1039C00070474FF007007047FDF7F4F9FEF708FC69
:1039D000FEF7BCF9FEF7F2F9FEF766FA00F044FFD5
:1039E000FEF7A4F900F05CFFFEE700002DE9F041CE
:1039F000124C20F00101002594F8240010B10020A1
:103A0000BDE8F081A07A4FF0FF3668B10840277C0E
:103A10002074884200D0354641B1012001F014FCE9
:103A200000F0CAFA38B127743046E9E7207D00B1CA
:103A3000012001F009FC2846E2E700008C0000208C
:103A40000D494A7A42B1012A08D0022A0FD0032A2E
:103A50000FD04FF0FF307047022200E004220270C6
:103A6000C97C11B11106C90D0170002070470822F0
:103A7000F5E71022F3E700008C0000200F494A7A96
:103A800042B1012A09D0022A11D0032A12D04FF0E4
:103A9000FF3070474FF4804201E041F69C72028093
:103AA000C97C11B1C2F34E010180002070474FF470
:103AB0008052F4E74FF40062F1E700008C00002030
:103AC0000B49097A39B1012907D002290AD0032903
:103AD0000BD0002103E0FA2101E04FF4FA710180DC
:103AE000002070474FF47A71F9E74FF4FA61F6E776
:103AF0008C0000200A49097A41B1012908D0022925
:103B00000AD003290AD04FF0FF307047054900E082
:103B100005490160002070470449FAE70449F8E7C5
:103B20008C00002000000343000083423333034233
:103B3000333383410C49C97A072913D2DFE801F0F6
:103B40001204060A0C0E1000BC2100E06221018064
:103B5000002070472A21FAE71421F8E70A21F6E746
:103B60000521F4E70021F2E78C000020054991F8D7
:103B7000242012B14FF0FF307047C9890180002026
:103B8000704700008C0000202DE9F04186B08020B5
:103B90008DF80C000DF10C084FF0FF370126404660
:103BA0004D4C8DE8C10020683346427D6068007846
:103BB00041004A48FDF72EF8002838D16420FCF770
:103BC0002FFD00258DF80C50CDF80080CDE9016760
:103BD00020680123427D6068007841003F48FDF77E
:103BE00019F800286ED10621CDF80080CDE9011723
:103BF00020680123427E6068007841003748FCF766
:103C0000E1FE00285ED19DF811009DF80F10C0075D
:103C1000400F01F0010140EA41009DF80D1001F054
:103C20000101084304D0012836D0022815D049E00C
:103C3000CDF80080CDE9016720680123C278606873
:103C4000007841002548FCF7BDFED8BB9DF80C006C
:103C500010F00F0036D004281ED0E574FF2004F8C1
:103C60000A0F4FF6FF7104F8020C04F8010C6070A3
:103C7000A180A0712072A67026766576E572A57285
:103C8000E56025616561A576E576A5834FF4FA6068
:103C900000F01EFCB0B901E0E674DFE7022000F09E
:103CA000EBFA78B92A2000F091FC58B9322000F0E4
:103CB000CBFC38B90020FFF799FE18B9002000F0BE
:103CC00019FB18B1384606B0BDE8F081002000F0BD
:103CD00007FD0020F7E700008C000020C400002052
:103CE0002DE9FF4FDFF8AC90064689B099F8250022
:103CF000154688464FF0FF37C0B9B8F1000F15D010
:103D0000002423E0301B102800DD10201FFA80FB68
:103D100008EB040292465946204600F051FD28B9AE
:103D200003AA5946204600F00DF918B138460DB0E7
:103D3000BDE8F08F50465A4603A9FCF7B5FA10B11A
:103D40006FF00100F3E704EB0B0084B2B442D9D367
:103D5000280A8DF81C00022007A9CDE900108DF873
:103D60001D500297D9F800003D464C46427FD9F8D5
:103D700004000123007841000748FCF74BFF08B11D
:103D80002846D4E7012084F825000C98E084002020
:103D9000CDE700008C000020C40000202DE9FF5F6B
:103DA00004464FF0FF36282858D80025DFF8C88091
:103DB0000DF10C0B4FF0070A02277CB1012000F037
:103DC000C9FB20208DF80C004FF00109012C1FD0F9
:103DD000052C20D88DF80D90052026E0002000F05D
:103DE000B9FB8DF80C508DF80DA0CDF800B0CDE9E1
:103DF0000176D8F8000044460123427DD8F804003B
:103E0000007841001D48FCF705FF38BB257531E0FF
:103E10008DF80D50E0E7142C03D88DF80D700A20B2
:103E200003E003208DF80D00142000F0CFFB9DF877
:103E30000D10CDF800B00AEB81108DF80D00CDE922
:103E40000176D8F8000044460123427DD8F80400EA
:103E5000007841000948FCF7DDFE18B1304604B097
:103E6000BDE8F09F0820A072257384F8149000200C
:103E7000FFF7BCFD0020F2E78C000020C40000200A
:103E80002DE9FF472D4C8A46074694F824109046AA
:103E90004FF0FF30002937D0A17A002934D00546F1
:103EA0000DF10C09022148468DE82300206801230A
:103EB000027B6068007841002148FCF783FDA0BBCD
:103EC000BDF80C0046BABE4203D2002188F80010AB
:103ED0002BE060684188B6EB510F18D90122CDF86C
:103EE0000090CDE90125216800780123CA7C4100BA
:103EF0001348FCF767FDC0B99DF80C00C00606D555
:103F000000F05AF86FF0010004B0BDE8F087CDF87A
:103F100000A0CDE9017520680123427B606800782C
:103F200041000748FCF74EFD08B12846ECE7B6FB18
:103F3000F7F0401E88F800000020E5E78C00002024
:103F4000C40000202DE9FF4116000F464FF0FF3559
:103F500029D0174CA17A31B3010A8DF80C10C0B2E8
:103F60008DF80D00C1196068428991421BD8022169
:103F700003AACDE900210295216800780123CA7EB9
:103F800041000C48FCF746FE68B90096CDE9017582
:103F900020680123027E6068007841000548FCF734
:103FA00011FD002800D0284604B0BDE8F0810000D3
:103FB0008C000020C40000202DE9FF41704C4FF020
:103FC000FF30A17A002969D001260DF10C08CDE956
:103FD0000086002705468DF80C7002952068334650
:103FE000427C6068007841006648FCF713FE0028B8
:103FF0007ED1CDF80080CDE901656068216801239C
:1040000000784A7941005F48FCF704FE0028EFD1B0
:10401000CDF80080CDE90165606821680123007852
:104020000A7941005748FCF7F5FD002860D194F863
:10403000240090B30C208DF80C00CDF80080CDE961
:1040400001652068012302796068007841004D48CD
:10405000FCF7E0FD00284BD13220FCF7E1FAC0204C
:104060008DF80C00A07AC00702D0E0208DF80C007B
:10407000CDF80080CDE901652068012302796068F0
:10408000007841003F48FCF7C5FD002873D1607CF3
:1040900028B102208DF80C0003E017E06CE08DF8E9
:1040A0000C70CDF80080CDE9016520680123427CC9
:1040B0006068007841003348FCF7ACFDC0B98DF86A
:1040C0000C70CDF80080CDE9016549E004208DF841
:1040D0000C00CDF80080CDE901652068012302794C
:1040E0006068007841002748FCF794FD00B900E0C3
:1040F00041E0A07CA8B9A07AC00712D05FF06000B0
:104100008DF80C00CDF80080CDE901652068012311
:1041100002796068007841001A48FCF77BFD50BBCB
:1041200001E04020ECE73220FCF77AFA607C10B125
:104130008DF80C6001E08DF80C70CDF80080CDE9B1
:10414000016520680123427C6068007841000D48C9
:10415000FCF760FD78B90A4802951030CDE90006F9
:104160002068012342796068007841000548FCF727
:1041700051FD002800D0284604B0BDE8F0810000C1
:104180008C000020C40000202DE9F047394C824605
:104190008AB094F824000F4620B1002000F04EF9B8
:1041A000012600E0002607A8FFF78AFC06A8FFF713
:1041B00047FC09A8FFF7BEFC08A8FFF7D7FC94F856
:1041C0000A9094F810800025002239465046FFF7E7
:1041D00045F910B16D1C022DF6DB022D1AD0002519
:1041E000012203A96846FFF739F910B16D1C022DB1
:1041F000F6DB022D0ED003A93846FEF7EBF8C7B266
:1042000069465046FFF74AFB10F0FF0F4FF00005DC
:1042100002D002E0002503E001250FB945F00205B8
:10422000FF2020726072E0724FF6FF71E181A07290
:10423000207401202073BDF81C0000F049F99DF89E
:10424000180000F019F8BDF8240000F0BFF9BDF81F
:10425000200000F0F9F9484600F042FA4046FFF726
:10426000C5FB16B1012000F0E9F80AB02846BDE808
:10427000F08700008C0000207FB51C4C01464FF0F9
:10428000FF30A27A002A18D0022907D0042907D0CB
:1042900008290FD0102910D1182102E0002100E0D8
:1042A00008218DF80C10617A9DF80C20B1EBD20F2B
:1042B00002D004E01021F4E7002004B070BD0546F0
:1042C000012003A9CDE90010029520680123C279DD
:1042D0006068007841000648FCF79CFC08B128465D
:1042E000EBE79DF80C00C0086072E5E78C00002049
:1042F000C40000202DE9FF474E4C0746A07CB84281
:1043000003D1002004B0BDE8F0874A48012603AD80
:10431000D0E900104FF0FF38EFB38DE8600100786E
:104320000A79410001234448FCF74CFBA0BB9DF8EF
:104330000C00012320F020008DF80C008DE86001B6
:10434000206802796068007841003B48FCF762FC15
:1043500010BB0320FCF764F902208DF80C0094F8E0
:10436000220010B182208DF80C0094F8230028B1AF
:104370009DF80C0040F030008DF80C008DE86001D5
:1043800020680123C27D6068007841002A48FCF75C
:1043900041FC08B94CE000E00CE0CDE90056CDF856
:1043A000088000780A794100B14601232248FCF7D1
:1043B00009FB08B14046A5E7A07AC0079DF80C00AC
:1043C00002D040F0200001E020F02000CDE90059AB
:1043D0008DF80C00CDF8088020684646012302794C
:1043E0006068007841001448FCF714FCF0B9032021
:1043F000FCF716F994F8220000B180208DF80C002B
:1044000094F8230028B19DF80C0040F030008DF89E
:104410000C00CDE90059029620680123C27D606836
:10442000007841000448FCF7F5FB08B1304669E725
:10443000A77466E78C000020C40000202DE9FF412E
:10444000214C94F82410814224D000277E1E01259F
:1044500030B394F8250008B3002000F0F5FE0020EA
:10446000FFF748FFE08C00F0EFF88DF80C7003A820
:104470008DE8610060680123232200784100134821
:10448000FCF7C8FB84F82450012000F0DDFE00BFDB
:10449000FFF792FD002004B0BDE8F0813046FAE756
:1044A000002000F0D1FE207C8DF80C0003A88DE8E0
:1044B0006100606801232322007841000348FCF773
:1044C000A9FB84F82470E3E78C000020C4000020DE
:1044D0007FB51E4C01464FF0FF30A27A002A1BD058
:1044E000FA290AD0B1F5FA7F09D0B1F57A7F10D058
:1044F000B1F5FA6F10D1182102E0002100E0082187
:104500008DF80C10217A9DF80C20B1EBD20F02D05F
:1045100004E01021F4E7002004B070BD054601203E
:1045200003A9CDE900100295206801238279606813
:10453000007841000648FCF76DFB08B12846EBE720
:104540009DF80C00C0082072E5E700008C000020F8
:10455000C40000207FB51B4C054694F82300A842F8
:1045600002D1002004B070BD0DB1302000E0002069
:104570008DF80C00A07C28B19DF80C0040F00200E2
:104580008DF80C0094F8220028B19DF80C0040F042
:1045900080008DF80C00012003A9CDE900104FF038
:1045A000FF36029620680123C27D606800784100D2
:1045B0000548FCF72FFB08B13046D3E784F82350B9
:1045C000CFE700008C000020C40000207FB51C4C09
:1045D0004FF0FF35A17A69B30121BC2802D38DF8D1
:1045E0000C1012E0622801D302200CE02A2801D32B
:1045F000032008E0142801D3042004E00A2801D392
:10460000052000E006208DF80C00E07A9DF80C20D3
:10461000904202D1002004B070BD03A88DE82300B1
:104620002068012382786068007841000548FCF723
:10463000F1FA08B12846EEE79DF80C00E072E9E7D0
:104640008C000020C40000202DE9FF41224E0446CA
:104650004FF0FF37B07A78B396F8240060BB307D16
:104660004FF47A7548B164B1282C03D8E0B2FFF753
:1046700095FB2EE00020FFF791FB042C05D20424CB
:1046800006E00020FFF78AFBF9E7AC4200D92C4690
:10469000B5FBF4F0401E8DF80C00012003A9CDE914
:1046A000001002973068012342787068007841005A
:1046B0000A48FCF7AFFA18B1384604B0BDE8F081FB
:1046C0009DF80C00401CB5FBF0F0F0814008FFF7AE
:1046D0007DFF0020F1E700008C000020C4000020D6
:1046E0002DE9FF47054610F0700F4FF001004FF025
:1046F000000602D08DF80C0006E015B18DF80C60B4
:1047000002E040218DF80C100DF10C092A4CCDE986
:1047100000904FF0FF378046029720680123427DCA
:104720006068007841002548FCF774FA88BB9DF862
:104730000C0020F0400020738DF80C60680602D455
:1047400004208DF80C00A80605D49DF80C0040F05C
:1047500002008DF80C00E80605D49DF80C0040F02E
:1047600001008DF80C00280705D49DF80C0040F0DE
:1047700038008DF80C00CDF80090CDE90187206855
:104780000123827D6068007841000C48FCF742FA02
:1047900020B1A672384604B0BDE8F08725B1082DD7
:1047A00002D00020FFF7D6FEA57226753220FBF757
:1047B00037FF0020EFE700008C000020C40000203D
:1047C0002DE9FF4116000F464FF0FF3529D0174C59
:1047D000A17A31B3010A8DF80C10C0B28DF80D002A
:1047E000C1196068428991421BD8022103AACDE910
:1047F00000210295216800780123CA7E41000C48FF
:10480000FCF708FA68B90096CDE901752068012324
:10481000027E6068007841000548FCF7FBF900283B
:1048200000D0284604B0BDE8F08100008C000020D4
:10483000C400002010B5EFF3058149B9EFF31081F2
:1048400031B908490968022905D1EFF3118111B185
:104850006FF0050403E0002408B100F081FE20465B
:1048600010BD000064000020EFF3058058B9EFF39D
:10487000108040B909490868022801D030B109E028
:10488000EFF3118030B16FF0050070470120086030
:10489000002070474FF0FF30704700006400002098
:1048A00010B5EFF3058060B9EFF3108048B90B49FC
:1048B0000868022802D0012806D00BE0EFF311802F
:1048C00040B16FF0050010BD0220086000F0B0FE9E
:1048D000002010BD4FF0FF3010BD0000640000202C
:1048E000F0B585B04FEA01034FF00004EFF3058106
:1048F0000394A1BBEFF3108189BB21490968022908
:1049000002D1EFF3118151BB48B3802618218DF8F5
:10491000104004AD42B3176807B13D4697691FB117
:1049200039467F1E382F02D21779FF0702D00020A8
:1049300005B0F0BD576907B1BE08D2F808C0BCF198
:10494000000F0DD0D4685C2C18D312693AB137B17E
:104950008DE806103246294601F0C5F903900DE0B6
:10496000D7685FB912694AB903AACDE90012B2B299
:10497000294601F08BF9012800D003940398D7E76A
:10498000640000202DE9F041134C0F46054666698E
:104990002068001D00F0B4FC681C07D137B1216805
:1049A000BDE8F0410D48091D00F0FABC206835440F
:1049B000B5424560216805D2A068BDE8F041091DF7
:1049C00000F0D6BC6068091D00F0D2FC206B854267
:1049D00000D22563BDE8F0811400002050060020BD
:1049E0002DE9F041054600F0E7FC2D4C2069401C04
:1049F000206120682B4F10B1E06930B32BE02560B7
:104A00002069012827D1002606EB860007EB8000ED
:104A100000F0A0FC761C382EF6D3234800F09AFC58
:104A20002148143000F096FC1F48283000F092FC1A
:104A30001D483C3000F08EFC1B48503000F08AFCD2
:104A4000194860601430A06005E02068E96AC06A17
:104A5000884200D82560E06A401CE0626864E86A29
:104A6000A169884200D9A06100EB800007EB8000BB
:104A7000291D00F095FC00F0BFFCE06900280CD077
:104A80002068E96AC06A884207D208494FF080501E
:104A90000860BFF34F8FBFF36F8FBDE8F081000058
:104AA00014000020A00100200006002004ED00E01A
:104AB00038B500F081FC104CA068C8B90F4800F070
:104AC00049FC0E48143000F045FC0C4820601430BE
:104AD00060600A4B00202833009003F1500210213F
:104AE0000A2000F077FEA06010B105A100F002FDE1
:104AF000BDE8384000F080BC500000206406002073
:104B0000546D72510000000030B4026C0B46002A54
:104B10000BD0C1681144C1604468A14201D301684F
:104B2000C16030BC1846FBF7EBBB30BC70472DE9C9
:104B3000F041856B174604460026026C82B1C7B16E
:104B4000E068FBF7DDFBE168206C091AE160226890
:104B5000914202D26168081AE060022F16D017E075
:104B60002068A8B9606801F061F90646002060601D
:104B70000EE0A068FBF7C4FB216CA0680844A060AD
:104B80006168884204D32068A06001E005B16D1E11
:104B90006D1CA5633046BDE8F08110B5044690F861
:104BA000590058B101280CD002280FD0502080F3B2
:104BB0001188BFF34F8FBFF36F8FFEE7206B00F0BC
:104BC0002FFC2046BDE8104000F02ABC10BD0000BC
:104BD00010484FF44061420706D0C01D0D4920F037
:104BE0000700411AC1F540610B4A00230144C2E9A4
:104BF00000030839103A21F0070111604B600B6087
:104C00000B1AC0E9001393604FF000405360D0606E
:104C100070470000340E002078000020144E154C20
:104C2000A6F29C474FF08058DFF84C9012E000BF8E
:104C300000F0C2FBF068C568281D00F061FB206928
:104C4000401E2061E068401EE06000F0D5FB284671
:104C5000FFF7A3FFE0680028EAD138680128F9D9F6
:104C6000C9F80080BFF34F8FBFF36F8FF2E70000EA
:104C70003C0600201400002004ED00E070B51D4645
:104C8000049C51B1C4F80020C4E90F010121204661
:104C900000F0D4FD84F84C5070BD2460F4E72DE999
:104CA000F0470E46DDE90984174682469100994691
:104CB000089DA522206BFBF768FB6FF00301206BBA
:104CC00001EB8701084420F00707780707D0502040
:104CD00080F31188BFF34F8FBFF36F8FFEE7221869
:104CE000315C82F83410315C11B1401C1028F6D3CD
:104CF000002684F84360382D00D33725E562C4E9E7
:104D00001356201D00F031FB04F1180000F02DFBBC
:104D10002461C5F138006462A061666584F858605A
:104D20004A465146384600F03BFA2060B8F1000F81
:104D300001D0C8F80040BDE8F087000030B5114947
:104D400000E011460A688242FBD34B685C1884423B
:104D500003D1406818444860084643681C189442D0
:104D600009D1084C103C2468A24209D052681A4468
:104D700042600A6812680260814200D0086030BD5B
:104D80000460F9E77800002070B5002441600B4D05
:104D90000061914206D8D11A8269914206D2011D62
:104DA000686807E09A4203D2994201D3012403E0E4
:104DB000011D286800F0DCFA204670BD500000207C
:104DC00010B5044600F0F8FAA06B28B15FF00004BB
:104DD00000F012FB204610BD0124F9E730B589B080
:104DE000304D55E00498002806DADDE90601059A01
:104DF0009047049800284BDB069C606910B1201D89
:104E000000F07EFA02A800F0B9F8024604980A28D9
:104E10003ED2DFE800F00505053D263705053D26B5
:104E20000598A169034601442046FFF7ADFF00B392
:104E3000616A20468847E069012829D10020009056
:104E40000598A169002342181946204601F0F8F898
:104E500078B9502080F31188BFF34F8FBFF36F8F65
:104E6000FEE70598A06128B1811813462046FFF798
:104E70008BFF0DE0502080F31188BFF34F8FBFF3FD
:104E80006F8FFEE794F82C0010B9204600F0C8FAA6
:104E9000002204A9A86800F023FE0028A2D109B0CE
:104EA00030BD0000500000202DE9FC410F460546B2
:104EB00000F002FC01A800F061F80446019818B166
:104EC00001F02CF8BDE8FC81224EAFB1706800689B
:104ED000A8B30027291B3A46B06800F01FFB01F079
:104EE0001DF80028EED11C494FF080500860BFF338
:104EF0004F8FBFF36F8FE5E7A542EBD801F00EF8B7
:104F000030682746C068C468201D00F0F9F9E069E0
:104F1000012810D1A0692B4641193A462046FFF7D7
:104F200033FF40B100200346014600902A46204648
:104F300001F086F820B1616A20468847C2E707E0A1
:104F4000502080F31188BFF34F8FBFF36F8FFEE7C0
:104F50000127BFE75000002004ED00E0064841684B
:104F6000096829B14168C968C9684968016370471F
:104F70004FF0FF31FAE700001400002070B505463D
:104F800000F0EAFE064E04463069844203D200F087
:104F900009F8012000E0002028602046346170BD3F
:104FA00050000020F8B5194D1FE0C068C4680668BD
:104FB000201D00F0A5F9616A20468847E0690128B4
:104FC00013D1A0693044B04206D924616060211D2C
:104FD000286800F0CDF908E0002003460146009063
:104FE0003246204601F02CF838B1286801680029C3
:104FF000DBD16968C5E90010F8BD502080F3118845
:10500000BFF34F8FBFF36F8FFEE70000500000200B
:1050100008484068401C4FF0500080F3118804D0CD
:10502000BFF34F8FBFF36F8FFEE7BFF34F8FBFF319
:105030006F8FFEE780000020074C2068016841B1B7
:10504000C0680021D0F80000FFF72EFFFFF7C6FE72
:10505000F3E701210020F7E7500000202DE9F0419F
:10506000044600F0A9F994F9455004F1240609E03A
:10507000606A48B1304600F019FF08B100F09EFAAE
:105080006D1E6DB2002DF3DC4FF0FF3684F84560E5
:1050900000F0B2F900F090F994F9445004F11007CF
:1050A00009E0206948B1384600F000FF08B100F07F
:1050B00085FA6D1E6DB2002DF3DC84F84460BDE806
:1050C000F04100F099B900002DE9F04105460027B4
:1050D00000F0F2FA314E306808B9FFF779FDF06858
:1050E00005424BD1C5B3083568070ED005F007005F
:1050F000C0F108000544680707D0502080F31188EC
:10510000BFF34F8FBFF36F8FFEE72DB370688542FB
:1051100034D82248103001460C6801E020460C4685
:105120006168A94202D221680029F7D131688C4216
:1051300024D007682168016060680837411B102986
:105140000FD96019420708D0502080F31188BFF3AF
:105150004F8FBFF36F8FFEE710E041606560FFF790
:10516000EDFD61687068401A7060B268904200D2CC
:10517000B060F06801430020C4E9000100F0CEFEF9
:10518000780707D0502080F31188BFF34F8FBFF30B
:105190006F8FFEE73846BDE8F08100006800002010
:1051A00010B5031F4FF080741C601B1F21F001011C
:1051B0001960191F024B0B60143940380A6010BD8A
:1051C0001150000810B588B0694604A8FEF7DCFF4E
:1051D000032803D04FF0FF3008B010BD07A8FEF73A
:1051E00089FC049801F006FE07990C4601F02EFE9A
:1051F00001F0C4FD0490059801F0FCFD214601F08A
:1052000025FE01F0BBFD0590069801F0F3FD214657
:1052100001F01CFE01F0B2FD069004A8FDF7B4FEFB
:1052200003A8FEF72BFCBDF80C0000994143009148
:105230000199414301910299414368460291FDF76A
:1052400005FE0020C8E700002DE9FF41174C0026AD
:10525000214694F82470D1E9002101239D1E7FB1DD
:10526000A0B102208DF80C0003A88DE82900087871
:10527000527C410001230E48FBF7CCFC60B90FE0E3
:10528000A77A4FB110B1607C68B902E08DF80C606C
:10529000EAE78DF80C30E7E7284604B0BDE8F08176
:1052A0009DF80C0060740020F7E700008C000020DF
:1052B000C40000202DE9F04106460F4601F038FAFF
:1052C000041E0D4618BF0120284320F00040C0F105
:1052D0007F6000F1E040C00F0ED0301C18BF0120ED
:1052E000384320F00040C0F17F6000F1E040C00F83
:1052F00004BF0120FBF7F7F820462946BDE8F081FE
:10530000D0E9013201699A60D0E901235A604A6804
:10531000824201D182684A60002202610868401E10
:105320000860086870470000034B036003F15C00ED
:1053300008608020106070477C070020044B0360E9
:1053400003F15C0008604FF480701060704700004B
:10535000D809002000F108014FF0FF32C0E9011226
:10536000C160016100210160704700210161704747
:1053700030B50B685A1C02D000F1080202E0026945
:1053800004E02246546825689D42FAD953684B6070
:1053900099608A60516008610168491C016030BDF4
:1053A00042684A6093688B609368596091600861B5
:1053B0000168491C01607047502080F31188BFF3D9
:1053C0004F8FBFF36F8F0A494868401C486001281F
:1053D0000CD10848006810F0FF0F07D0502080F370
:1053E0001188BFF34F8FBFF36F8FFEE77047000048
:1053F0008000002004ED00E00849486828B1401E04
:10540000486001D180F311887047502080F31188E3
:10541000BFF34F8FBFF36F8FFEE7000080000020C7
:1054200070B5002827D0144DA0F108046168E86821
:10543000014207D1502080F31188BFF34F8FBFF393
:105440006F8FFEE722683AB1502080F31188BFF3D6
:105450004F8FBFF36F8FFEE78143616000F02CF93F
:1054600060686968084468602046FFF767FCBDE82B
:10547000704000F053BD70BD680000204FF0E02088
:1054800000210161816105494FF47A720968B1FB1D
:10549000F2F1491E416107210161704710000020AF
:1054A00010B5FAF7B9FE114910280ED300F1E0202B
:1054B00090F8F0030A78904207D2502080F31188C8
:1054C000BFF34F8FBFF36F8FFEE70948006889680D
:1054D00000F4E060884207D9502080F31188BFF3C0
:1054E0004F8FBFF36F8FFEE710BD000080000020DC
:1054F0000CED00E010B5084B002200BF53F832401D
:105500001CB1521C082AF9D310BD43F8321003EB2A
:10551000C201486010BD00006001002070B5154652
:105520000E460446FFF748FF94F944100020491C3A
:1055300001D184F8440094F94510491C01D184F844
:105540004500FFF759FFA06B28B92A46314604F100
:10555000240000F051F82046BDE87040FFF77EBD02
:1055600010B5020014D00F48806B38B1502080F382
:105570001188BFF34F8FBFF36F8FFEE700F09CF8E9
:1055800000211046FFF7FEF900F0C8FC002807D103
:1055900005494FF080500860BFF34F8FBFF36F8F06
:1055A00010BD00001400002004ED00E002498A6AEA
:1055B00002604969416070471400002001490120E0
:1055C000486270471400002010B50C4650B10949DC
:1055D00009681831FFF7CCFE2046BDE810400121D4
:1055E000FFF7D0B9502080F31188BFF34F8FBFF37E
:1055F0006F8FFEE71400002070B514460D4668B1A9
:105600000A4909681831FFF7CBFE0CB14FF0FF359E
:1056100021462846BDE87040FFF7B4B9502080F31A
:105620001188BFF34F8FBFF36F8FFEE71400002088
:1056300030B587B00024039405AA04A903A80494F4
:10564000FFF772FEDDE903010094CDE901100023AC
:1056500015A11748059A00F046FB164D002868630F
:105660001FD000F0BDFC012809D0401C19D15020EA
:1056700080F31188BFF34F8FBFF36F8FFEE7502089
:1056800080F31188BFF34F8FBFF36F8F4FF0FF3060
:1056900028630120E8616C6107B0BDE8304000F08C
:1056A00045B807B030BD000049444C45000000003B
:1056B0001D4C0008140000200248816B491C8163C6
:1056C0007047000014000020164810B5816B11B11E
:1056D0000121416210BD002141628169124A01E04D
:1056E000B9B1491E01EB810352F82330002BF7D0EA
:1056F00001EB810302EB830202F1080453685B684B
:105700005360A34201D15B685360DA680260816133
:1057100010BD502080F31188BFF34F8FBFF36F8F00
:10572000FEE7000014000020A00100201CB526495F
:1057300008780190FF20087008788DF800009DF827
:1057400000009DF8002000F0F000904207D05020AB
:1057500080F31188BFF34F8FBFF36F8FFEE79DF883
:1057600000001A4B00F0500018700720986005E008
:105770009DF8002052008DF80020401E9DF800206A
:105780001206F5D49860032807D0502080F31188C2
:10579000BFF34F8FBFF36F8FFEE74FF440709860F9
:1057A000019808700A48016841F4700101600168BD
:1057B00041F070410160FFF761FE00205860FAF788
:1057C000F5FC00201CBD000000E400E0800000208B
:1057D00020ED00E038B5049D18B153B1CAB181B1D4
:1057E00020E0502080F31188BFF34F8FBFF36F8FFD
:1057F000FEE7502080F31188BFF34F8FBFF36F8F08
:10580000FEE7502080F31188BFF34F8FBFF36F8FF7
:10581000FEE739B1502080F31188BFF34F8FBFF3FB
:105820006F8FFEE750241C46012384F846302B4638
:105830000094FFF723FA204638BD000070B50D46EE
:10584000040025D0FFF7B8FDD4E90F20216802FB42
:10585000001161600021A1632168A1600A46D4E9BA
:105860000F01401E00FB0121E16021464FF0FF3097
:1058700001F8440F487004F110008DB1FFF76AFD84
:1058800004F12400FFF766FDFFF7B6FD012070BDAF
:10589000502080F31188BFF34F8FBFF36F8FFEE767
:1058A00021690029F0D000F001FB0028ECD0044968
:1058B0004FF080500860BFF34F8FBFF36F8FE3E767
:1058C00004ED00E02DE9FF4782B01D468A464FF007
:1058D0000008040003D0BAF1000F08D011E05020F6
:1058E00080F31188BFF34F8FBFF36F8FFEE7206CFB
:1058F00038B1502080F31188BFF34F8FBFF36F8F03
:10590000FEE7022D0AD1E06B012807D0502080F37A
:105910001188BFF34F8FBFF36F8FFEE700F00EFAD1
:105920003F4F4FF000094FF0805648B9049838B106
:10593000502080F31188BFF34F8FBFF36F8FFEE7C6
:10594000FFF73AFDA06BE16B884207D3022D05D02B
:105950000498D0B1B8F1000F1AD01EE02A46514683
:105960002046FFF7E4F8616A19B104F1240000F061
:105970009DFA20B13E60BFF34F8FBFF36F8FFFF7EB
:105980003BFD012006B0BDE8F087FFF735FD22E0C2
:105990006846FFF70BFE4FF00108FFF72DFDFFF7FC
:1059A0008BFEFFF709FD94F94400401C01D184F8F7
:1059B000449094F94500401C01D184F84590FFF7CC
:1059C0001BFD04A9684600F027F930B12046FFF717
:1059D00045FB00F0A3FA0020D4E7FFF7EDFCA06B35
:1059E000E16B884213D1FFF707FD04F11000049921
:1059F000FFF7EAFD2046FFF731FB00F08FFA0028A1
:105A00009ED13E60BFF34F8FBFF36F8F98E7FFF7D4
:105A1000F3FC2046FFF722FB00F080FA90E700003D
:105A200004ED00E02DE9F0471F469046894604004A
:105A300003D0B9F1000F08D011E0502080F3118895
:105A4000BFF34F8FBFF36F8FFEE7206C38B150204C
:105A500080F31188BFF34F8FBFF36F8FFEE7022FE4
:105A60000AD1E06B012807D0502080F31188BFF3E2
:105A70004F8FBFF36F8FFEE7FFF712FD5020EFF35C
:105A8000118680F31188BFF34F8FBFF36F8FA06B28
:105A9000E16B884206D3022F04D0002086F31188E0
:105AA000BDE8F08794F945503A4649462046FFF74D
:105AB0003EF8681C04D06D1C84F845500120EDE7C9
:105AC000606A0028FAD004F1240000F0EFF9002801
:105AD000F4D0B8F1000FF1D00121C8F80010EDE7C3
