:020000040800F2
:100000009021002021020008E71B0008A31A000825
:10001000E51B00086B040008E12200080000000056
:10002000000000000000000000000000890100083E
:10003000AF04000800000000CD0100084D1C0008BE
:100040003B0200083B0200083B0200083B0200089C
:100050003B0200083B0200083B0200083B0200088C
:100060003B0200083B0200083B0200083B0200087C
:100070003B0200083B0200086D04000879040008F8
:100080003B0200083B0200083B0200083B0200085C
:100090003B0200083B0200083B0200083B0200084C
:1000A0003B0200083B0200083B0200083B0200083C
:1000B0003B0200083B020008D91C00083B02000874
:1000C0003B0200083B0200083B0200083B0200081C
:1000D0003B020008D52200083B0200083B02000852
:1000E0003B0200083B0200083B02000800F002F857
:1000F00000F03AF80AA090E8000C82448344AAF188
:100100000107DA4501D100F02FF8AFF2090EBAE885
:100110000F0013F0010F18BFFB1A43F0010318473B
:10012000DC390000FC390000103A24BF78C878C1DF
:10013000FAD8520724BF30C830C144BF04680C60ED
:10014000704700000023002400250026103A28BF35
:1001500078C1FBD8520728BF30C148BF0B60704739
:100160001FB51FBD10B510BD00F045F91146FFF7D2
:10017000F7FF02F0C7F800F063F903B4FFF7F2FFEE
:1001800003BC00F06BF90000224B19680868B0E866
:10019000F00F80F30988BFF36F8F4FF0000080F3FA
:1001A00011884EF00D0E70470000000006480068F0
:1001B000006880F3088862B661B6BFF34F8FBFF363
:1001C0006F8F00DF00BF00BF08ED00E0EFF3098094
:1001D000BFF36F8F0F4B1A6820E9F00F106008B55E
:1001E0004FF0500080F31188BFF34F8FBFF36F8F34
:1001F00002F04EFF4FF0000080F31188BDE8084088
:1002000019680868B0E8F00F80F30988BFF36F8FB2
:10021000704700BF1C000020EFF30580704700000E
:100220000948804709480047FEE7FEE7FEE7FEE78A
:10023000FEE7FEE7FEE7FEE7FEE7FEE704480549C6
:10024000054A064B70470000D71C0008ED00000867
:10025000901B002090210020901D0020901D002068
:10026000032A40F2308010F0030C00F0158011F8E2
:10027000013BBCF1020F624498BF11F801CB00F8BA
:10028000013B38BF11F8013BA2F1040298BF00F80E
:1002900001CB38BF00F8013B11F0030300F0578099
:1002A000083AC0F0088051F8043B083A51F804CBF2
:1002B000A0E80810F5E7121D5CBF51F8043B40F8B8
:1002C000043BAFF30080D20724BF11F8013B11F8C3
:1002D00001CB48BF11F8012B24BF00F8013B00F807
:1002E00001CB48BF00F8012B704702F0FF0343EA3F
:1002F000032242EA024200F05EB84FF0000200B56D
:10030000134694469646203922BFA0E80C50A0E838
:100310000C50B1F12001BFF4F7AF090728BFA0E8E6
:100320000C5048BF0CC05DF804EB890028BF40F8B2
:10033000042B08BF704748BF20F8022B11F0804FF4
:1003400018BF00F8012B704770477047704710B511
:10035000203AC0F00B80B1E81850203AA0E81850BD
:10036000B1E81850A0E81850BFF4F5AF5FEA027C7E
:1003700024BFB1E81850A0E8185044BF18C918C0ED
:10038000BDE810405FEA827C24BF51F8043B40F88E
:10039000043B08BF7047D20728BF31F8023B48BF73
:1003A00011F8012B28BF20F8023B48BF00F8012BB1
:1003B00070474FF000020429C0F0128010F0030CC7
:1003C0003FF49DAFCCF1040CBCF1020F18BF00F854
:1003D000012BA8BF20F8022BA1EB0C01FFF78FBF68
:1003E0005FEAC17C24BF00F8012B00F8012B48BF55
:1003F00000F8012B7047754600F02CF8AE4605005A
:100400006946534620F00700854618B020B5FFF72F
:1004100015FFBDE820404FF000064FF000074FF0F9
:1004200000084FF0000B21F00701AC46ACE8C00912
:10043000ACE8C009ACE8C009ACE8C0098D4670471B
:1004400010B50446AFF300802046BDE81040FFF72A
:1004500094BE0000004870472C1B00200149182062
:10046000ABBEFEE7260002007047FEE7014800F041
:1004700091B8000088010020014800F08BB800000E
:10048000CC01002030B590F840500124AC40C56B41
:100490006C60046863604368102B036803D0996044
:1004A0000068C26030BD9A600068C16030BD7047AE
:1004B00072B6FEE710B590F821100022022905D08F
:1004C0000421816380F82020012010BD01680B68A1
:1004D00023F00E030B6001680B6823F001030B602F
:1004E00090F84030C46B012101FA03F3636080F897
:1004F000211080F82020104610BD000010B590F8A3
:1005000021100024022903D00421816301243DE04D
:1005100001680A6822F00E020A6001680A6822F087
:1005200001020A601A4A0168914201D1012121E0C9
:10053000174A1432914201D110211BE0144A28328B
:10054000914201D1891515E0114A3C32914201D105
:1005500089140FE00E4A5032914202D14FF480319B
:1005600008E00B4A6432914202D14FF4801101E05D
:100570004FF08071064A083A5160012180F821103D
:10058000002180F82010416B01B18847204610BD42
:10059000080002402DE9F05FC16B0C6801680B6830
:1005A000D0F840C0042202FA0CF2494DDFF824A131
:1005B000494E4A4FDFF828B1DFF828E122422CD01B
:1005C0005A072AD50A68920603D40A6822F0040260
:1005D0000A600168A94201D1042219E0514501D104
:1005E000402215E0B14202D14FF4806210E0B942DE
:1005F00002D14FF480420BE0594502D14FF48022E2
:1006000006E0714502D14FF4800201E04FF08062B4
:100610002F4908394A60C16A3BE04FF0020808FAE6
:100620000CF818EA040F4FF000094FF0010235D022
:100630005FEA837832D50B689B0605D40B6823F0FC
:100640000A030B6080F821200168A94201D102222F
:1006500019E0514501D1202215E0B14202D14FF4F9
:10066000007210E0B94202D14FF400520BE059453C
:1006700002D14FF4003206E0714502D14FF400126E
:1006800001E04FF00072124908394A6080F820906A
:10069000816A00291AD0BDE8F05F0847082505FAED
:1006A0000CF5254212D01B0710D50B6823F00E0362
:1006B0000B6090F84010C36B02FA01F1596082633D
:1006C00080F8212080F82090016BE2E7BDE8F09FE0
:1006D000080002401C00024030000240440002407A
:1006E000580002406C00024030B528B308C81349D6
:1006F00014221944B1FBF2F18900C16310498163EE
:10070000022141771A6843F6F0718A43D0E9001458
:100710002143D0E902452C43214304692143446924
:10072000214384692143114319600021416301225F
:1007300042770177084630BD012030BDF8FFFDBF8C
:100740000000024070B5044690F820000025012802
:100750000CD0012084F8200094F821600020012EA4
:1007600006D084F820000225284670BD022070BD06
:10077000022684F82160A0632068066826F001063E
:1007800006602046FFF77EFEE06A002820680168C8
:1007900002D041F00E0106E021F004010160206862
:1007A000016841F00A0101602068016841F001011F
:1007B0000160D9E770B5044600F0FEF80546601CFC
:1007C00002D004480078044400F0F6F8401BA04230
:1007D000FAD370BD0C0000202DE9F84FDFF8B89176
:1007E0000024A9F1040B23460F2709F1040AABF1F9
:1007F000040EC9E00125A5402A40AA427DD1674EDA
:10080000D1F804C0ACEB0608B44532D014DCBCF11E
:10081000030F3AD009DCBCF1000F2AD0BCF1010F64
:100820001CD0BCF1020F31D11DE0BCF1110F17D06B
:10083000BCF1120F2AD119E0B8F5881F19D006DCD7
:10084000B8F5803F15D0B8F5801F1FD111E0B8F57D
:10085000001F0ED0B8F5041F18D10AE0CB6815E0D0
:10086000CB681B1D12E0CB6808330FE0CB680C335C
:100870000CE08B682BB1012B4FF0080303D04561CE
:1008800004E0042302E0056100E00023FF2A01D810
:10089000064601E000F104064FEA840501D9A5F1FE
:1008A0002005D6F8008007FA05FC28EA0C0803FAB0
:1008B00005F548EA0508C6F800804D68ED0062D5E8
:1008C000374DAE6946F00106AE61AD6924F003060E
:1008D00005F001050095334D06EB050CDCF80850DA
:1008E000A607360F07FA06F825EA0805DFF8B880EC
:1008F000404503D14FF0000817E044E0DFF8AC803A
:10090000404502D14FF001080FE0DFF8A4804045D8
:1009100002D14FF0020808E0DFF89880404502D18C
:100920004FF0030801E04FF0040808FA06F848EA1F
:100930000508CCF808804D68D9F80060ED024D46F6
:1009400001D5164300E096432E604D68DAF800604A
:10095000AD02554601D5164300E096432E604D6822
:10096000DBF80060AD035D4601D5164300E0964319
:100970002E604D68DEF80060ED03754601D5164324
:1009800000E096432E60641C0D682A46E5407FF423
:1009900031AFBDE8F88F00000804014000001110DD
:1009A000001002400000014000080140000C01401E
:1009B00000100140001401400148806870470000A9
:1009C0000C00002002488168027811448160704761
:1009D0000C000020074810B5016841F010010160CB
:1009E000032000F0A7F80F2000F006F800F050F800
:1009F000002010BD0020024030B505461F4887B0DA
:100A0000C16941F00401C161C06906A900F0040098
:100A1000009001A800F036F90498B0B100F052F946
:100A200040001749174AB0FBF1F11748491E026010
:100A3000416040F2E7320021C0E903218160816119
:100A400000F04CFB040003D015E000F03BF9E8E7B0
:100A50000D4800F071FB04000DD11E2000F03CF8A1
:100A6000102D07D2002229461E2000F043F8074827
:100A7000056000E0012407B0204630BD00100240B0
:100A800040420F000008004010020020100000202B
:100A90000F4808B5816941F001018161816901F068
:100AA00001010091C16941F08051C161C06900221A
:100AB00000F0805000900F21901E00F01BF80548B8
:100AC000416821F0E06141F00071416008BD000023
:100AD0000010024000000140002809DB00F01F0266
:100AE000012191404009800000F1E020C0F8001190
:100AF00070470000F0B40E4B1B680C46C3F3022392
:100B0000C3F10705042D00D90425191D072901D2B9
:100B1000002300E0DB1E012606FA05F1491E2140F4
:100B200099409E40761E16403143F0BC01F0D9BB7F
:100B30000CED00E0064900F0070208684FF6FF03DD
:100B4000184040EA0220034A104308607047000042
:100B50000CED00E00000FA052DE9F0470F46050016
:100B600061D0434E306800F00700B84209D23068C7
:100B700020F0070038433060306800F00700B842CA
:100B800051D128683B4C810712D5400703D56068D6
:100B900040F4E06060602878000703D5606840F4A6
:100BA000605060606068A96820F0F00008436060F1
:100BB0002878C00728D06868012810D0216802284A
:100BC00010D0890700292EDA616821F00301014362
:100BD0006160FFF7F1FE804641F288390DE021683F
:100BE0008903EFE78901EDE7FFF7E6FEA0EB0801D7
:100BF000494502D90320BDE8F0876068696800F0C4
:100C00000C00B0EB810FEFD1306800F00700B84264
:100C10000BD9306820F0070038433060306800F0AE
:100C20000700B84201D00120E5E72878400705D544
:100C30006068E96820F4E060084360602878000795
:100C400006D56068296920F4605040EAC100606000
:100C500000F058F86168084AC1F30311515CC840BC
:100C60000649086006480068FFF7C6FE0020C2E794
:100C70000020024000100240CA3A0008180000207C
:100C8000100000200F2202600C4A536803F0030397
:100C90004360536803F0F0038360536803F4E06338
:100CA000C36052684FF4E06303EAD2020261044871
:100CB000006800F007000860704700000010024064
:100CC000002002400448054900684968044AC1F30D
:100CD0000221515CC84070471800002000100240FB
:100CE000DA3A00080448054900684968044AC1F333
:100CF000C221515CC840704718000020001002401B
:100D0000DA3A00080E4A51680E4801F00C03042B31
:100D100011D0082B0FD10C48C1F38343C903C05C29
:100D20000AD55168084AC1F34041921E515C054AF8
:100D30005043B0FBF1F0704704494843704700004E
:100D40000010024000127A00BA3A000800093D0083
:100D50002DE9F84F040070D02078C04DC00749D06D
:100D60006868C0F38100012807D06868C0F381007B
:100D7000022809D16868C00306D52868800339D5E0
:100D800060680028E7D035E06068B0F5803F0BD0A0
:100D900010B1B0F5A02F11D0286820F48030286061
:100DA000286820F4802002E0286840F48030286021
:100DB000606890B1FFF700FE06460AE0286840F43C
:100DC00080202860F0E700BFFFF7F6FD801B642855
:100DD00073D828688003F7D50CE0FFF7EDFD0646D1
:100DE00005E000BFFFF7E8FD801B6428F0D8286805
:100DF0008003F7D420789A4E80074FF001094FF016
:100E0000000839D5686810F00C0F07D06868C0F387
:100E10008100022809D16868C00306D428688007C9
:100E200014D52069012808D110E02069B0B1C6F8B6
:100E30000090FFF7C1FD074605E00AE1FFF7BCFDA2
:100E4000C01B0228C4D828688007F7D528686169C4
:100E500020F0F80040EAC10028600DE0C6F80080EC
:100E6000FFF7AAFD074604E0FFF7A6FDC01B022816
:100E700023D828688007F7D4207800072CD5794834
:100E8000A169D9B1C0F80090FFF796FD074604E0CC
:100E9000FFF792FDC01B02280FD8686A8007F7D5BC
:100EA00071484FF4FA510068B0FBF1F0009000BFB8
:100EB0000098411E0091FAD20EE080E0C0F8008058
:100EC000FFF77AFD074604E0FFF776FDC01B022816
:100ED00075D8686A8007F7D42078400760D5E8693C
:100EE0000027C00008D4E86940F08050E861E86954
:100EF000012700F0805000905C480168C90513D4B8
:100F00000168834641F480710160FFF755FD824618
:100F100006E000BFFFF750FDA0EB0A0064284ED8A2
:100F2000DBF80000C005F5D5E06801280AD008B15B
:100F3000052813D0286A20F001002862286A20F0D2
:100F4000040002E0286A40F001002862E06841F2F3
:100F5000883B98B1FFF730FD82460BE0286A40F0ED
:100F600004002862EEE700BFFFF726FDA0EB0A01B0
:100F700059455AD8286A8007F6D50CE0FFF71CFDC2
:100F8000824605E0FFF718FDA0EB0A0159454CD851
:100F9000286A8007F6D41FB1E86920F08050E86124
:100FA000E06988B36968C1F38101022944D002284D
:100FB000C6F8608004D0FFF7FFFC044638E034E058
:100FC000FFF7FAFC074604E0FFF7F6FCC01B022817
:100FD0002BD828688001F7D4206AB0F5803F05D16E
:100FE0006868A16820F4003008436860D4E908010B
:100FF0000843696821F4741108436860C6F860907A
:10100000FFF7DAFC044606E025E000BFFFF7D4FC5A
:10101000001B022809D828688001F7D51BE000BF13
:10102000FFF7CAFC001B022802D90320BDE8F88F95
:1010300028688001F4D40EE00128F7D06868226A9D
:1010400000F48031914204D1616A00F4701088424A
:1010500001D00120EAE70020E8E70000001002408C
:10106000000042428004424218000020007000400C
:101070007047704770B590F83C20012A26D00124B3
:1010800080F83C40022280F83D2003685A689D6841
:1010900022F070060A6832435A600D4B02689A4289
:1010A00008D0B2F1804F05D00A4B9A4202D00A4BC9
:1010B0009A4204D1496825F080031943916080F871
:1010C0003D40002180F83C10084670BD022070BDF4
:1010D000002C0140000400400008004010B504004E
:1010E00003D094F83D0010B107E0012010BD0020AE
:1010F00084F83C00204600F01EF8022084F83D00F1
:10110000211D206800F0EEFD012084F8460084F8DF
:101110003E0084F83F0084F8400084F8410084F8E1
:10112000420084F8430084F8440084F8450084F8C1
:101130003D00002010BD704790F83D10012901D0FE
:1011400001207047022180F83D100168CA6842F012
:101150000102CA6000680B49884208D0B0F1804F94
:1011600005D00949884202D00849884204D18168E3
:1011700001F00701062903D0016841F00101016077
:1011800000207047002C014000040040000800408F
:10119000704770B50446006801694FF00005C94307
:1011A000890715D4C168C943890711D4E91E0161B3
:1011B00001202077206880698007204602D0FFF751
:1011C000E7FF04E000F0BCF8204600F05FF9257767
:1011D00020680169C943490717D4C168C943490751
:1011E00013D46FF004010161022020772068806928
:1011F00010F4407F204602D0FFF7CAFF04E000F061
:101200009FF8204600F042F9257720680169C9431C
:10121000090716D4C168C943090712D46FF0080141
:101220000161042020772068C0698007204602D031
:10123000FFF7AEFF04E000F083F8204600F026F947
:10124000257720680169C943C90617D4C168C94315
:10125000C90613D46FF010010161082020772068BF
:10126000C06910F4407F204602D0FFF791FF04E0F0
:1012700000F066F8204600F009F92577206801693A
:10128000C943C90708D1C168C943C90704D1891E28
:101290000161204600F04AF920680169C943090646
:1012A00009D4C168C943090605D46FF08001016102
:1012B0002046FFF7DDFE20680169C943490609D4CD
:1012C000C168C943490605D46FF040010161204659
:1012D00000F036F920680169C94389060BD4C1685A
:1012E000C943890607D46FF0200101612046BDE89B
:1012F0007040FFF7BEBE70BD00B585B00021009103
:101300000191029103910068B0F1804F11D10A4818
:10131000816941F0040181618069694600F004003F
:101320000490012000900220019003900348FFF7F1
:1013300053FA05B000BD0000001002400008014053
:10134000704770B5044690F83C0000260D46012811
:101350000FD0012084F83C006AB1042A1DD0082A6D
:101360002FD00C2A3FD00126002084F83C003046C4
:1013700070BD022070BD206800F0F8FC2068816913
:1013800041F0080181612068816921F004018161D7
:10139000206881692A69114311E0206800F00EFD80
:1013A0002068816941F4006181612068816921F4CC
:1013B00080618161206881692A6941EA0221816135
:1013C000D2E7206800F026FD2068C16941F00801DD
:1013D000C1612068C16921F00401C1612068C1694F
:1013E0002A69114311E0206800F040FD2068C169BE
:1013F00041F40061C1612068C16921F48061C1616B
:101400002068C1692A6941EA0221C161ACE710B5CF
:10141000040003D094F83D0010B107E0012010BD96
:10142000002084F83C00204600F01EF8022084F8DA
:101430003D00211D206800F055FC012084F8460085
:1014400084F83E0084F83F0084F8400084F84100AE
:1014500084F8420084F8430084F8440084F845008E
:1014600084F83D00002010BD08B50068B0F1804F41
:1014700008D10548C16941F00101C161C06900F0AE
:101480000100009008BD00000010024070470000FD
:1014900010B50446022249B104290ED0082913D000
:1014A00094F84100012816D0012010BD94F83E00A8
:1014B0000128F9D184F83E200FE094F83F0001287C
:1014C000F2D184F83F2008E094F840000128EBD1E5
:1014D00084F8402001E084F841200122206800F0D7
:1014E00037FC0F492068884203D1426C42F4004225
:1014F00042642068884208D0B0F1804F05D0094985
:10150000884202D00849884204D1816801F007016D
:10151000062903D0016841F001010160002010BDDF
:10152000002C01400004004000080040006803490E
:10153000884201D1FFF746BA70470000000800401A
:10154000704738B5044690F84200202801D00220A8
:1015500038BD61B15AB1012020630020606320468C
:1015600000F018FE0028F3D1216B012901D00120E1
:1015700038BD21680A684968009121680C3151E83A
:10158000002F42F0100241E80023002BF5D138BDB6
:1015900010B50C460068104988421CD1642C1AD83A
:1015A0000E49642201F16400FFF7CBFF0B494FF6AF
:1015B000FF73224601F1640000F025FA0748F0307D
:1015C0000068016821F004010160BDE81040642159
:1015D0000248FEF792BE10BD00380140DC0000203A
:1015E00010B500680B49884212D10B49642201F101
:1015F0006400FFF7A6FF0848F0300068016821F09A
:1016000004010160BDE8104064210348FEF775BE87
:1016100010BD000000380140DC000020F8B5016872
:1016200004460868CA684B6910F00F0F4FF00005B8
:1016300059D003F0010602F49077374365D0C10713
:1016400005D0D10503D5616C41F00101616441070A
:1016500005D5D90703D0616C41F0020161648107AF
:1016600005D5D90703D0616C41F00401616401071D
:1016700007D502F02001314303D0616C41F008012D
:101680006164616C00293AD0800604D5900602D5C9
:10169000204600F0C1FC20684069616CC0F38010F6
:1016A000090700D460B3204600F081FC206840693F
:1016B000400621D52068143050E8001F21F0400179
:1016C00040E80012002AF5D1E06BA8B16D494163F2
:1016D000E06BFEF713FF002811D0E06B416B01B007
:1016E000BDE8F040084783060FD593060DD5204688
:1016F000BDE8F84000F090BC2046FFF771FFF8BD50
:101700002046FFF76DFF6564F8BD266B2023012E90
:101710007CD1C6067AD5D60678D508684868009088
:1017200048694FF00206400640D5E16B0868406802
:101730000004000CE8D0A28D8242E5D9E0858869DA
:1017400020282DD020680C3050E8001F21F4807133
:1017500040E80012002AF5D12068143050E8001F3C
:1017600021F0010140E80012002AF5D12068143070
:1017700050E8001F21F0400140E80012002AF5D196
:1017800084F84230256320680C3050E8001F21F0B7
:10179000100140E80012002AF5D1E06BFEF78AFE46
:1017A0006663A08DE18D401A81B22AE0A08DE18DA3
:1017B000401A81B2E08D0028A6D00029A4D022686A
:1017C0000C3252E8000F20F4907042E80007002F1E
:1017D000F5D12068143050E8002F22F0010240E8D3
:1017E0000027002FF5D184F84230256320680C30A3
:1017F00050E8002F22F0100240E80023002BF5D122
:1018000066632046FFF7C4FEF8BDFFE705062BD54B
:10181000150629D594F841002128F5D1A068B0F526
:10182000805F01D12069B0B1206A411C216221682A
:1018300000784860E08C401E0004000CE084E3D196
:101840002068C16821F08001C1602068C16841F052
:101850004001C160D8E7206A0088C0F308004860F2
:10186000206A801C2062E5E74006CDD55006CBD526
:10187000CA68204622F04002CA6084F8413000F075
:101880000FF9C1E7B11E000870B5040004D094F848
:101890004100002510B106E0012070BD84F84050E1
:1018A000204600F023F8242084F841002068C16815
:1018B00021F40051C160204600F010FC206801694D
:1018C00021F4904101612068416921F02A014161C0
:1018D0002068C16841F40051C1606564202084F82B
:1018E000410084F842006563002070BDF0B585B00A
:1018F00000240646009401940294039400682D4944
:10190000884254D12C48816941F4804181618169C8
:1019100001F480410491816941F004018161806991
:10192000264D00F0040004904FF400700090022057
:1019300001900320039069462846FEF74DFF2815C5
:10194000CDE90004694628460294FEF745FF1D4D87
:101950001B48802701C5102091C51A4845F8104939
:101960006C61AC61EC61FEF7BFFE08B1FEF7A0FD53
:10197000B5636E62134D124844351430C5E9000456
:10198000C5E902472C6180146C61C5E90640284610
:10199000FEF7AAFE08B1FEF78BFDF56300220521D4
:1019A00025206E62FFF7A6F82520FFF795F805B011
:1019B000F0BD000000380140001002400008014066
:1019C000440002408801002090F84230202B01D0D2
:1019D0000220704721B11AB10023036300F022BC3A
:1019E000012070470549884207D105490120024678
:1019F0000870491C0148FFF7E7BF7047400100200D
:101A00000800002070472DE9F843044690F8410093
:101A10001F4616460D46202802D00220BDE8F88356
:101A20007DB176B100206064212084F84100FEF78A
:101A3000C3FFA6848046E684A068B0F5805F02D02C
:101A400003E00120EAE7206910B12E4600250EE0F0
:101A500000260CE08021204600F0FFFBA0B9AEB1CB
:101A600016F8010B21684860E08C401EE084E08C91
:101A700043464FF0000200970028EBD14FF04001A1
:101A8000204600F0EAFB30B10320C7E735F8020B2F
:101A9000C0F30800E6E7202084F841000020BDE7FD
:101AA0007047FEE70D4808B5416941F00101416109
:101AB0004069002200F00100009005210E20FFF790
:101AC00019F80E20FFF708F8002205210F20FFF774
:101AD00011F8BDE808400F20FEF7FEBF00100240DD
:101AE00010B5074A0021074800F07CFC064C044A68
:101AF000002120602432054800F074FC606010BDB5
:101B0000703A0008E91B000800000020151C0008BE
:101B1000094808B5816941F020018161816901F0BE
:101B200020010091816941F004018161806900F028
:101B30000400009008BD00000010024010B58AB0FB
:101B4000002407941C2168460894FEF7D6FB16482B
:101B50004FF08041016040F2CF21C0E901146321C0
:101B6000C0E903148461FFF752FC08B1FEF7A0FC42
:101B7000079407A90C480894FFF77CFA08B1FEF710
:101B800097FC6020CDE900040294002269460648D3
:101B90000494FFF7D6FB08B1FEF78AFC0248FFF772
:101BA000ABFB0AB010BD0000940000200C4810B53B
:101BB0000A4901604FF4E1314160002181600C224B
:101BC000C160C0E904128161C161FFF75DFE0028B8
:101BD00003D0BDE81040FEF76BBC10BD00380140DB
:101BE00040010020FEE7FEE7642207490748FFF7AF
:101BF000A8FC07480068016821F004010160322058
:101C000000F09AFBFBE70000DC0000204001002010
:101C1000CC0100200C4D0024286844630A20FEF704
:101C2000C9FD641C642CF7DB5FF000042968C4F173
:101C3000640048630A20FEF7BDFD641C642CF5DBDC
:101C4000322000F079FBE6E79400002010B5502028
:101C500080F31188BFF34F8FBFF36F8F01F066FDE4
:101C600018B104494FF080500860002080F31188BB
:101C700010BD000004ED00E030B58FB028216846AB
:101C8000FEF73BFB14210AA8FEF737FB01210804ED
:101C9000CDE900100024029402250491CDE90750FB
:101CA0004FF4E01009906846FFF752F808B172B699
:101CB000FEE70F20CDE90A054FF48060CDE90C4026
:101CC00002210AA80E94FEF747FF002801D072B641
:101CD000FEE70FB030BD70470148FFF75ABA000069
:101CE00010020020F0B50268164B174C174D4FF04C
:101CF0008047984205D0B84203D0A04201D0A84204
:101D000003D122F070064A683243984205D0B842A7
:101D100003D0A04201D0A84203D122F44074CA6883
:101D200022434C6922F08002224302608A68C26228
:101D30000A688262984201D1096901630121416107
:101D4000F0BD0000002C01400004004000080040ED
:101D500010B501F01F030121046A99408C4304620D
:101D6000016A9A401143016210BD000030B5036A58
:101D7000026A22F0010202624268846924F073055B
:101D80000C682C4323F002058B682B430A4DA842B4
:101D90000BD123F00805CB6822F440722B434D6928
:101DA00023F0040315438A692A4342608461496829
:101DB0004163036230BD0000002C014030B5026A6F
:101DC000036A23F010030362436884690D6824F4F6
:101DD000E64444EA05248D6822F0200242EA051216
:101DE0000B4DA8420ED1CD6822F0800242EA0512C6
:101DF0004D6923F4406343EA85038D6922F0400274
:101E000043EA85034360846149688163026230BDAF
:101E1000002C014030B5036A026A22F4807202622B
:101E20004268C46923F4007324F073050C682C43E2
:101E30008D6843EA05230C4DA8420ED1CD6823F4EA
:101E4000006343EA05234D6922F4405242EA051239
:101E50008D6923F4806342EA05124260C4614968D7
:101E6000C163036230BD0000002C014030B5046A3C
:101E7000026A22F4805202624268C3690D6823F448
:101E8000E64343EA05238D6824F4005444EA05340C
:101E9000064DA84204D14D6922F4804242EA8512DF
:101EA0004260C36149680164046230BD002C014096
:101EB00010B5406A0021C185C184FFF791FB10BDB8
:101EC00070B5446A2068406994F84110C0F3C010AE
:101ED0000025212904D118B1E584204600F08EF8B0
:101EE0002068406994F84210C0F38010222904D180
:101EF00018B1E585204600F05AF8606C40F01000FB
:101F000060642046FFF76CFB70BD10B50146406A67
:101F1000096809684FF0000289062ED4C28501685D
:101F20000C3151E8003F23F4807341E80034002C69
:101F3000F5D10168143151E8003F23F0010341E875
:101F40000034002CF5D10168143151E8003F23F032
:101F5000400341E80034002CF5D1202180F84210E4
:101F6000016B012909D101680C3151E8003F23F0D0
:101F7000100341E80034002CF5D14263016B0129C4
:101F800002D0FFF72FFD10BD818DFFF701FB10BDC3
:101F900010B5406A01214163016B012902D0FFF7AE
:101FA00031FD10BD818D4908FFF7F2FA10BD0168BF
:101FB0000C3151E8002F22F4907241E80023002BED
:101FC000F5D10168143151E8002F22F0010241E8F7
:101FD0000023002BF5D1016B012909D101680C31D7
:101FE00051E8002F22F0100241E80023002BF5D128
:101FF000202180F8421000210163704701680C31F4
:1020000051E8002F22F0C00241E80023002BF5D157
:10201000202180F84110704708B590F8421022291D
:1020200001D0022008BD82684FF480539A4201D14A
:10203000016921B1816A9A421BD04AB10AE0026863
:10204000816A5268C2F308020A80816A891C08E02A
:10205000026972B10268526802F07F020A70816AF6
:10206000491C8162C18D491E0904090CC18503D038
:102070001BE002685268F1E70168CA6822F020029A
:10208000CA600168CA6822F48072CA6001684A693D
:1020900022F001024A61202180F8421000214163B0
:1020A000026B012A03D0FFF79DFC002008BD0163ED
:1020B00001680C3151E8002F22F0100241E80023A2
:1020C000002BF5D101680A68D20602D50A68496872
:1020D0000091818DFFF75CFAE7E7000070B50446D8
:1020E00000680169E26821F44051114301612169EE
:1020F000A0680843616908432168CA6841F20C631B
:102100009A430243CA6020684169A26921F4407180
:10211000114341611E492068884202D1FEF7E2FD69
:1021200001E0FEF7CFFD00EBC00101EB001260689B
:1021300064218000B2FBF0F3B3FBF1F36FF01806FB
:102140007343B2FBF0F5B2FBF0F605EB83053223E7
:1021500003EB0515B5FBF1F5B6FBF1F605F0F0055F
:1021600005EB0615B2FBF0F6B2FBF0F0B0FBF1F0B8
:102170006FF01802504306EB800003EB0010B0FB39
:10218000F1F0216800F00F002844886070BD000065
:102190000038014038B5816204468285002013462C
:1021A0006064222284F84220E56B1B4AAA62E56B38
:1021B0001A4AEA62E56B1A4A2A63E26B50630A46DE
:1021C0002168E06B091DFEF7BDFA206801684068D0
:1021D0000090206948B120680C3050E8001F41F49D
:1021E000807140E80012002AF5D12068143050E8D0
:1021F000001F41F0010140E80012002AF5D12068DB
:10220000143050E8001F41F0400140E80012002A5D
:10221000F5D1002038BD00000B1F0008911F0008F9
:10222000C11E000881628285C2850021416422218D
:1022300080F84210016921B10168CA6842F48072D5
:10224000CA6001684A6942F001024A610068C168D7
:1022500041F02001C160002070472DE9F04198460F
:1022600017460E460446069D27E0681C25D02DB172
:10227000FEF7A2FBA0EB0800A8421ED920680C3094
:1022800050E8001F21F4D07140E80012002AF5D177
:102290002068143050E8001F21F0010140E80012CE
:1022A000002AF5D1202084F8410084F84200002063
:1022B00084F840000320BDE8F0812068006836EA19
:1022C000000004D00020B842CFD00020F3E7012066
:1022D000F9E700000148FFF7A1B900004001002024
:1022E000FEE70907090E002804DB00F1E02080F872
:1022F0000014704700F00F0000F1E02080F8141D7A
:1023000070470000FEF766FBFFF7B6FCFFF700FC26
:10231000FFF7C8FBFFF74AFCFFF710FC0021054858
:10232000FFF7B6F800F022F8FFF7DAFB00F03AF812
:10233000FEE700009400002010B5EFF3058149B9D5
:10234000EFF3108131B908490968022905D1EFF38B
:10235000118111B16FF0050403E0002408B100F011
:10236000E3FD204610BD00006C000020EFF3058067
:1023700058B9EFF3108040B909490868022801D024
:1023800030B109E0EFF3118030B16FF00500704714
:1023900001200860002070474FF0FF3070470000B8
:1023A0006C00002010B5EFF3058060B9EFF31080EA
:1023B00048B90B490868022802D0012806D00BE072
:1023C000EFF3118040B16FF0050010BD02200860EE
:1023D00000F012FE002010BD4FF0FF3010BD0000D5
:1023E0006C000020F0B585B04FEA01034FF0000407
:1023F000EFF305810394A1BBEFF3108189BB214961
:102400000968022902D1EFF3118151BB48B380263C
:1024100018218DF8104004AD42B3176807B13D464E
:1024200097691FB139467F1E382F02D21779FF07EF
:1024300002D0002005B0F0BD576907B1BE08D2F840
:1024400008C0BCF1000F0DD0D4685C2C18D3126901
:102450003AB137B18DE806103246294601F027F926
:1024600003900DE0D7685FB912694AB903AACDE9B4
:102470000012B2B2294601F0EDF8012800D0039411
:102480000398D7E76C0000202DE9F041134C0F466C
:10249000054666692068001D00F016FC681C07D11F
:1024A00037B12168BDE8F0410D48091D00F05CBC62
:1024B00020683544B5424560216805D2A068BDE872
:1024C000F041091D00F038BC6068091D00F034FCC3
:1024D000206B854200D22563BDE8F0811C000020FE
:1024E000480700202DE9F041054600F049FC2D4C3D
:1024F0002069401C206120682B4F10B1E06930B387
:102500002BE025602069012827D1002606EB8600F4
:1025100007EB800000F002FC761C382EF6D323482F
:1025200000F0FCFB2148143000F0F8FB1F48283075
:1025300000F0F4FB1D483C3000F0F0FB1B4850302D
:1025400000F0ECFB194860601430A06005E02068E2
:10255000E96AC06A884200D82560E06A401CE062EF
:102560006864E86AA169884200D9A06100EB800034
:1025700007EB8000291D00F0F7FB00F021FCE0696B
:1025800000280CD02068E96AC06A884207D208494E
:102590004FF080500860BFF34F8FBFF36F8FBDE8DF
:1025A000F08100001C00002098020020F8060020A6
:1025B00004ED00E038B500F0E3FB104CA068C8B9AA
:1025C0000F4800F0ABFB0E48143000F0A7FB0C489E
:1025D0002060143060600A4B00202833009003F123
:1025E000500210210A2000F0D9FDA06010B105A111
:1025F00000F064FCBDE8384000F0E2BB5800002069
:102600005C070020546D72510000000030B4026C71
:102610000B46002A0BD0C1681144C1604468A14236
:1026200001D30168C16030BC1846FDF719BE30BC4B
:1026300070472DE9F041856B174604460026026C71
:1026400082B1C7B1E068FDF70BFEE168206C091AA2
:10265000E1602268914202D26168081AE060022FAC
:1026600016D017E02068A8B9606801F0C3F80646E4
:10267000002060600EE0A068FDF7F2FD216CA0680C
:102680000844A0606168884204D32068A06001E02B
:1026900005B16D1E6D1CA5633046BDE8F08110B517
:1026A000044690F8590058B101280CD002280FD0E8
:1026B000502080F31188BFF34F8FBFF36F8FFEE779
:1026C000206B00F091FB2046BDE8104000F08CBB71
:1026D00010BD000010484FF44061420706D0C01DF5
:1026E0000D4920F00700411AC1F540610B4A002353
:1026F0000144C2E900030839103A21F007011160D2
:102700004B600B600B1AC0E9001393604FF0004060
:102710005360D060704700002C0F00208000002024
:10272000144E154CA6F29C474FF08058DFF84C90A1
:1027300012E000BF00F024FBF068C568281D00F01F
:10274000C3FA2069401E2061E068401EE06000F08E
:1027500037FB2846FFF7A3FFE0680028EAD1386876
:102760000128F9D9C9F80080BFF34F8FBFF36F8FED
:10277000F2E70000340700201C00002004ED00E018
:1027800070B51D46049C51B1C4F80020C4E90F0186
:102790000121204600F036FD84F84C5070BD2460C5
:1027A000F4E72DE9F0470E46DDE909841746824635
:1027B00091009946089DA522206BFDF796FD6FF0CC
:1027C0000301206B01EB8701084420F0070778071D
:1027D00007D0502080F31188BFF34F8FBFF36F8F66
:1027E000FEE72218315C82F83410315C11B1401CD4
:1027F0001028F6D3002684F84360382D00D33725FF
:10280000E562C4E91356201D00F093FA04F11800A4
:1028100000F08FFA2461C5F138006462A06166653A
:1028200084F858604A465146384600F03BFA20602A
:10283000B8F1000F01D0C8F80040BDE8F0870000F3
:1028400030B5114900E011460A688242FBD34B685B
:102850005C18844203D140681844486008464368C5
:102860001C18944209D1084C103C2468A24209D09B
:1028700052681A4442600A6812680260814200D0BD
:10288000086030BD0460F9E78000002070B50024C6
:1028900041600B4D0061914206D8D11A8269914284
:1028A00006D2011D686807E09A4203D2994201D31B
:1028B000012403E0011D286800F03EFA204670BDA7
:1028C0005800002010B5044600F05AFAA06B28B159
:1028D0005FF0000400F074FA204610BD0124F9E70F
:1028E00030B589B0304D55E00498002806DADDE9AE
:1028F0000601059A9047049800284BDB069C606906
:1029000010B1201D00F0E0F902A800F0B9F802466D
:1029100004980A283ED2DFE800F00505053D263779
:1029200005053D260598A169034601442046FFF7A9
:10293000ADFF00B3616A20468847E069012829D1CC
:10294000002000900598A1690023421819462046EE
:1029500001F05AF878B9502080F31188BFF34F8FF7
:10296000BFF36F8FFEE70598A06128B18118134669
:102970002046FFF78BFF0DE0502080F31188BFF356
:102980004F8FBFF36F8FFEE794F82C0010B92046ED
:1029900000F02AFA002204A9A86800F085FD0028AA
:1029A000A2D109B030BD0000580000202DE9FC4143
:1029B0000F46054600F064FB01A800F061F80446EC
:1029C000019818B100F08EFFBDE8FC81224EAFB136
:1029D00070680068A8B30027291B3A46B06800F069
:1029E00081FA00F07FFF0028EED11C494FF08050A3
:1029F0000860BFF34F8FBFF36F8FE5E7A542EBD8B9
:102A000000F070FF30682746C068C468201D00F0E1
:102A10005BF9E069012810D1A0692B4641193A46BB
:102A20002046FFF733FF40B10020034601460090E7
:102A30002A46204600F0E8FF20B1616A2046884718
:102A4000C2E707E0502080F31188BFF34F8FBFF338
:102A50006F8FFEE70127BFE75800002004ED00E07C
:102A600006484168096829B14168C968C968496868
:102A7000016370474FF0FF31FAE700001C000020AF
:102A800070B5054600F04CFE064E0446306984429F
:102A900003D200F009F8012000E000202860204661
:102AA000346170BD58000020F8B5194D1FE0C068B2
:102AB000C4680668201D00F007F9616A204688474F
:102AC000E069012813D1A0693044B04206D92461DD
:102AD0006060211D286800F02FF908E000200346FF
:102AE000014600903246204600F08EFF38B128683B
:102AF00001680029DBD16968C5E90010F8BD5020E4
:102B000080F31188BFF34F8FBFF36F8FFEE7000094
:102B10005800002008484068401C4FF0500080F3E7
:102B2000118804D0BFF34F8FBFF36F8FFEE7BFF361
:102B30004F8FBFF36F8FFEE788000020074C20689F
:102B4000016841B1C0680021D0F80000FFF72EFFF6
:102B5000FFF7C6FEF3E701210020F7E75800002049
:102B60002DE9F041044600F00BF994F9455004F1C9
:102B7000240609E0606A48B1304600F07BFE08B1E7
:102B800000F000FA6D1E6DB2002DF3DC4FF0FF3641
:102B900084F8456000F014F900F0F2F894F944501C
:102BA00004F1100709E0206948B1384600F062FEE0
:102BB00008B100F0E7F96D1E6DB2002DF3DC84F86A
:102BC0004460BDE8F04100F0FBB800002DE9F041A1
:102BD0000546002700F054FA314E306808B9FFF777
:102BE00079FDF06805424BD1C5B3083568070ED0B2
:102BF00005F00700C0F108000544680707D0502021
:102C000080F31188BFF34F8FBFF36F8FFEE72DB3B3
:102C10007068854234D82248103001460C6801E0C3
:102C200020460C466168A94202D221680029F7D1EA
:102C300031688C4224D007682168016060680837D9
:102C4000411B10290FD96019420708D0502080F38A
:102C50001188BFF34F8FBFF36F8FFEE710E0416025
:102C60006560FFF7EDFD61687068401A7060B268DA
:102C7000904200D2B060F06801430020C4E9000136
:102C800000F030FE780707D0502080F31188BFF3A2
:102C90004F8FBFF36F8FFEE73846BDE8F08100002D
:102CA0007000002010B5031F4FF080741C601B1FC4
:102CB00021F001011960191F024B0B6014394038D3
:102CC0000A6010BD152B0008D0E9013201699A6035
:102CD000D0E901235A604A68824201D182684A6081
:102CE000002202610868401E086008687047000002
:102CF000034B036003F15C000860802010607047A4
:102D000074080020044B036003F15C0008604FF47A
:102D10008070106070470000D00A002000F10801A8
:102D20004FF0FF32C0E90112C16001610021016072
:102D3000704700210161704730B50B685A1C02D002
:102D400000F1080202E0026904E0224654682568A6
:102D50009D42FAD953684B6099608A60516008615E
:102D60000168491C016030BD42684A6093688B600D
:102D700093685960916008610168491C016070475F
:102D8000502080F31188BFF34F8FBFF36F8F0A4934
:102D90004868401C486001280CD10848006810F0C1
:102DA000FF0F07D0502080F31188BFF34F8FBFF380
:102DB0006F8FFEE7704700008800002004ED00E000
:102DC0000849486828B1401E486001D180F3118845
:102DD0007047502080F31188BFF34F8FBFF36F8F80
:102DE000FEE700008800002070B5002827D0144DB1
:102DF000A0F108046168E868014207D1502080F31F
:102E00001188BFF34F8FBFF36F8FFEE722683AB18F
:102E1000502080F31188BFF34F8FBFF36F8FFEE711
:102E20008143616000F02CF960686968084468605B
:102E30002046FFF705FDBDE8704000F053BD70BDB2
:102E4000700000204FF0E020002101618161054900
:102E50004FF47A720968B1FBF2F1491E4161072112
:102E6000016170471800002010B5FDF7D5F9114930
:102E700010280ED300F1E02090F8F0030A78904279
:102E800007D2502080F31188BFF34F8FBFF36F8FAD
:102E9000FEE709480068896800F4E060884207D9C5
:102EA000502080F31188BFF34F8FBFF36F8FFEE781
:102EB00010BD0000880000200CED00E010B5084BAC
:102EC000002200BF53F832401CB1521C082AF9D32B
:102ED00010BD43F8321003EBC201486010BD000082
:102EE0005802002070B515460E460446FFF748FF0D
:102EF00094F944100020491C01D184F8440094F94D
:102F00004510491C01D184F84500FFF759FFA06B1B
:102F100028B92A46314604F1240000F051F8204631
:102F2000BDE87040FFF71CBE10B5020014D00F487A
:102F3000806B38B1502080F31188BFF34F8FBFF3FF
:102F40006F8FFEE700F09CF800211046FFF79CFA17
:102F500000F0C8FC002807D105494FF080500860F8
:102F6000BFF34F8FBFF36F8F10BD00001C00002018
:102F700004ED00E002498A6A0260496941607047D5
:102F80001C00002001490120486270471C000020FD
:102F900010B50C4650B1094909681831FFF7CCFE4D
:102FA0002046BDE810400121FFF76EBA502080F3A3
:102FB0001188BFF34F8FBFF36F8FFEE71C00002017
:102FC00070B514460D4668B10A4909681831FFF713
:102FD000CBFE0CB14FF0FF3521462846BDE87040CE
:102FE000FFF752BA502080F31188BFF34F8FBFF321
:102FF0006F8FFEE71C00002030B587B000240394DB
:1030000005AA04A903A80494FFF772FEDDE90301F1
:103010000094CDE90110002315A11748059A00F08E
:1030200046FB164D002868631FD000F0BDFC012848
:1030300009D0401C19D1502080F31188BFF34F8F65
:10304000BFF36F8FFEE7502080F31188BFF34F8FDF
:10305000BFF36F8F4FF0FF3028630120E8616C6190
:1030600007B0BDE8304000F045B807B030BD000003
:1030700049444C4500000000212700081C000020A6
:103080000248816B491C8163704700001C000020CE
:10309000164810B5816B11B10121416210BD0021AC
:1030A00041628169124A01E0B9B1491E01EB810315
:1030B00052F82330002BF7D001EB810302EB83029F
:1030C00002F1080453685B685360A34201D15B6856
:1030D0005360DA680260816110BD502080F311886E
:1030E000BFF34F8FBFF36F8FFEE700001C0000207F
:1030F000980200201CB5264908780190FF2008702E
:1031000008788DF800009DF800009DF8002000F080
:10311000F000904207D0502080F31188BFF34F8F0A
:10312000BFF36F8FFEE79DF800001A4B00F05000D0
:1031300018700720986005E09DF8002052008DF877
:103140000020401E9DF800201206F5D49860032848
:1031500007D0502080F31188BFF34F8FBFF36F8FDC
:10316000FEE74FF440709860019808700A480168C3
:1031700041F470010160016841F070410160FFF7A6
:1031800061FE00205860FDF711F800201CBD000012
:1031900000E400E08800002020ED00E038B5049D48
:1031A00018B153B1CAB181B120E0502080F3118829
:1031B000BFF34F8FBFF36F8FFEE7502080F311886E
:1031C000BFF34F8FBFF36F8FFEE7502080F311885E
:1031D000BFF34F8FBFF36F8FFEE739B1502080F3FD
:1031E0001188BFF34F8FBFF36F8FFEE750241C464B
:1031F000012384F846302B460094FFF7C1FA20469D
:1032000038BD000070B50D46040025D0FFF7B8FDAD
:10321000D4E90F20216802FB001161600021A16345
:103220002168A1600A46D4E90F01401E00FB01217C
:10323000E16021464FF0FF3001F8440F487004F17F
:1032400010008DB1FFF76AFD04F12400FFF766FD61
:10325000FFF7B6FD012070BD502080F31188BFF349
:103260004F8FBFF36F8FFEE721690029F0D000F088
:1032700001FB0028ECD004494FF080500860BFF3F8
:103280004F8FBFF36F8FE3E704ED00E02DE9FF47B9
:1032900082B01D468A464FF00008040003D0BAF100
:1032A000000F08D011E0502080F31188BFF34F8F3A
:1032B000BFF36F8FFEE7206C38B1502080F3118888
:1032C000BFF34F8FBFF36F8FFEE7022D0AD1E06B84
:1032D000012807D0502080F31188BFF34F8FBFF330
:1032E0006F8FFEE700F00EFA3F4F4FF000094FF0EE
:1032F000805648B9049838B1502080F31188BFF344
:103300004F8FBFF36F8FFEE7FFF73AFDA06BE16BC6
:10331000884207D3022D05D00498D0B1B8F1000F30
:103320001AD01EE02A4651462046FFF782F9616A0C
:1033300019B104F1240000F09DFA20B13E60BFF302
:103340004F8FBFF36F8FFFF73BFD012006B0BDE845
:10335000F087FFF735FD22E06846FFF70BFE4FF0E0
:103360000108FFF72DFDFFF78BFEFFF709FD94F92C
:103370004400401C01D184F8449094F94500401C5D
:1033800001D184F84590FFF71BFD04A9684600F0C1
:1033900027F930B12046FFF7E3FB00F0A3FA002045
:1033A000D4E7FFF7EDFCA06BE16B884213D1FFF788
:1033B00007FD04F110000499FFF7EAFD2046FFF72E
:1033C000CFFB00F08FFA00289ED13E60BFF34F8FF5
:1033D000BFF36F8F98E7FFF7F3FC2046FFF7C0FBC2
:1033E00000F080FA90E7000004ED00E02DE9F047DE
:1033F0001F4690468946040003D0B9F1000F08D05B
:1034000011E0502080F31188BFF34F8FBFF36F8F0F
:10341000FEE7206C38B1502080F31188BFF34F8F46
:10342000BFF36F8FFEE7022F0AD1E06B012807D0B0
:10343000502080F31188BFF34F8FBFF36F8FFEE7EB
:10344000FFF712FD5020EFF3118680F31188BFF3D0
:103450004F8FBFF36F8FA06BE16B884206D3022FB3
:1034600004D0002086F31188BDE8F08794F9455018
:103470003A4649462046FFF7DCF8681C04D06D1C2C
:1034800084F845500120EDE7606A0028FAD004F185
:10349000240000F0EFF90028F4D0B8F1000FF1D0CB
:1034A0000121C8F80010EDE72DE9F747002683B0A9
:1034B0008A46040003D0BAF1000F08D011E0502072
:1034C00080F31188BFF34F8FBFF36F8FFEE7206C3F
:1034D00038B1502080F31188BFF34F8FBFF36F8F47
:1034E000FEE700F00FF9DFF8F4804FF000094FF02D
:1034F000805748B9059838B1502080F31188BFF340
:103500004F8FBFF36F8FFEE7FFF73AFCA56BC5B196
:1035100051462046FFF77AF86D1EA563206950B129
:1035200004F1100000F0A6F928B1C8F80070BFF34C
:103530004F8FBFF36F8FFFF743FC012006B0BDE84C
:10354000F087059808B11EB106E0FFF739FC27E0C7
:103550006846FFF70FFD0126FFF732FCFFF790FDED
:10356000FFF70EFC94F94400401C01D184F844900C
:1035700094F94500401C01D184F84590FFF720FCE8
:1035800005A9684600F02CF8002820460AD0FFF76D
:10359000E7FA00F0A7F92046FFF794F90028B3D026
:1035A0000020CBE7FFF78EF990B104F124000599D4
:1035B000FFF7EEFC2046FFF7D3FA00F093F900285E
:1035C000A2D1C8F80070BFF34F8FBFF36F8F9BE796
:1035D0002046FFF7C5FA00F085F995E704ED00E015
:1035E0002DE9F0410C46050011D0C4B1FFF7C8FB2E
:1035F000174B5A696E682068911B471C17D02F68BB
:103600009B6A9F4219D0964217D8012410E050209F
:1036100080F31188BFF34F8FBFF36F8FFEE7502009
:1036200080F31188BFF34F8FBFF36F8FFEE7002445
:10363000FFF7C6FB2046BDE8F081884205D9401A55
:1036400020602846FFF796FCF1E700202060DCE7C9
:103650001C0000202DE9FF5F8346DDE90E879946B7
:1036600016468A469000FFF7B1FA05001CD05C2090
:10367000FFF7ACFA040014D00020256384F8590049
:10368000CDE90240CDE900874B46324651465846C7
:10369000FFF787F82046FEF725FF012004B0BDE8BC
:1036A000F09F2846FFF7A0FB4FF0FF30F6E7F0B59C
:1036B00085B0DDE90B640A9DA6B1DCB15C270097FB
:1036C0002663022684F85960002604AFCDE902463D
:1036D000CDE90057FFF765F82046FEF703FF049891
:1036E00005B0F0BD502080F31188BFF34F8FBFF3BA
:1036F0006F8FFEE7502080F31188BFF34F8FBFF329
:103700006F8FFEE70548C16919B1806B18B10020C1
:103710007047012070470220704700001C00002005
:1037200001484069704700001C0000202DE9F0416D
:103730002E4C0027A06B40B1206A401C2062606ABA
:1037400000B101273846BDE8F0816669761C6661E4
:1037500013D16068006838B1502080F31188BFF33E
:103760004F8FBFF36F8FFEE76068A1686160A06054
:10377000A06A401CA062FFF773F9206BDFF870802D
:10378000864209D36068006880B16068C068C56817
:10379000686886420DD220632068C06A00EB800111
:1037A00058F821000128CAD90127C8E74FF0FF3097
:1037B000F1E7281DFFF788FAA86A18B105F118008B
:1037C000FFF782FAE86AA169884200D9A06100EB9C
:1037D000800108EB8100291DFFF7C6FAE86A21681D
:1037E000C96A8842CED30127CCE700001C00002024
:1037F0009802002070B504004FF0000133D01B4D3B
:103800002868844207D0502080F31188BFF34F8F7F
:10381000BFF36F8FFEE7206D38B1401E2065E36C6B
:10382000E26A9A421FD040B11DE0502080F3118817
:10383000BFF34F8FBFF36F8FFEE7201DFFF744FAF2
:10384000E06CE062C0F13800A061E06AA9698842DA
:1038500000D9A861064900EB800001EB8000211D22
:10386000FFF782FA0121084670BD00001C0000200D
:103870009802002070B5C068C46854B104F1180003
:103880000646FFF721FA144DA86B50B13146134894
:1038900015E0502080F31188BFF34F8FBFF36F8F77
:1038A000FEE7201DFFF710FAE06AA969884200D9F7
:1038B000A8610B4900EB800001EB8000211DFFF7A0
:1038C00053FAE06A2968C96A884202D9012068620D
:1038D00070BD002070BD00001C00002020070020EB
:1038E000980200202DE9F0472C4D00242746A86BB4
:1038F00038B1FFF745FAA86B401EA863A86B40B12A
:1039000046E0502080F31188BFF34F8FBFF36F8FD5
:10391000FEE72969224E0120D1B3A6F591698046C0
:103920003068E0B1F068C46804F11800FFF7CCF922
:10393000201DFFF7C9F9E06AA969884200D9A8618A
:1039400000EB800109EB8100211DFFF70DFAE06A11
:103950002968C96A8842E3D3C5F82480E0E70CB13E
:10396000FFF77EF82C6A4CB14FEA0806FFF7DEFE3F
:1039700000B16E62641EF9D100202862686A38B115
:103980000849012738070860BFF34F8FBFF36F8FD7
:10399000FFF716FA3846BDE8F08700001C0000204B
:1039A0002007002004ED00E010B586B0FEF702FE0F
:1039B000114CA068B8B100200390049005AA04A996
:1039C00003A8FFF79FF9DDE9032102208DE8070036
:1039D00000230AA10B48059AFFF769FEE06010B1C9
:1039E00006B0012010BD502080F31188BFF34F8F27
:1039F000BFF36F8FFEE7000058000020546D722067
:103A0000537663003D2B00082DE9FF411E46134607
:103A100002000A9D4FF0000016D0144CA768002F3A
:103A20000FD0CDE900130292062917DAFFF76AFEDC
:103A300002284FF000030FD000226946A068FFF76C
:103A400025FC04B0BDE8F081502080F31188BFF35D
:103A50004F8FBFF36F8FFEE72A46EEE70023324613
:103A600069463846FFF7C2FCEBE70000580000202B
:103A7000F03A000800000000000000000000000014
:103A8000000000000002000018000000000000001C
:103A900000000000E43A0008000000000000000000
:103AA000000000000000000000020000080000000C
:103AB00000000000000000000102020304050607E8
:103AC00008090A0B0C0D0E0F10100000000000007A
:103AD00000000102030406070809000000000102BB
:103AE000030400006D795461736B303200000000F4
:103AF00064656661756C745461736B001C3B0008EF
:103B0000000000209400000028010008B03B0008DD
:103B100094000020FC200000440100080000000088
:103B20000000000000000000010000001000000084
:103B3000000000000024F40000000000000000006D
:103B40000000000000000000000000000000000075
:103B50000000000000000000000000000000000065
:103B60000000000000000000000000000000000055
:103B70000000000000000000000000000000000045
:103B80000000000000000000000000000000000035
:103B90000000000000000000000000000000000025
:103BA0000000000000000000AAAAAAAA000000006D
:04000005080000ED02
:00000001FF
